{"contracts/MockDEX.sol":{"MockDEX":{"abi":[{"inputs":[{"internalType":"uint256","name":"amountIn","type":"uint256"},{"internalType":"address[]","name":"path","type":"address[]"}],"name":"getAmountsOut","outputs":[{"internalType":"uint256[]","name":"amounts","type":"uint256[]"}],"stateMutability":"view","type":"function"},{"inputs":[{"internalType":"address","name":"","type":"address"},{"internalType":"address","name":"","type":"address"}],"name":"prices","outputs":[{"internalType":"uint256","name":"","type":"uint256"}],"stateMutability":"view","type":"function"},{"inputs":[{"internalType":"address","name":"tokenA","type":"address"},{"internalType":"address","name":"tokenB","type":"address"},{"internalType":"uint256","name":"price","type":"uint256"}],"name":"setPrice","outputs":[],"stateMutability":"nonpayable","type":"function"},{"inputs":[{"internalType":"uint256","name":"amountIn","type":"uint256"},{"internalType":"uint256","name":"amountOutMin","type":"uint256"},{"internalType":"address[]","name":"path","type":"address[]"},{"internalType":"address","name":"to","type":"address"},{"internalType":"uint256","name":"deadline","type":"uint256"}],"name":"swapExactTokensForTokens","outputs":[{"internalType":"uint256[]","name":"amounts","type":"uint256[]"}],"stateMutability":"nonpayable","type":"function"}],"evm":{"bytecode":{"linkReferences":{},"object":"608060405234801561001057600080fd5b50610dbe806100206000396000f3fe608060405234801561001057600080fd5b506004361061004c5760003560e01c80631f3124041461005157806338ed173914610081578063792eb791146100b1578063d06ca61f146100cd575b600080fd5b61006b6004803603810190610066919061073d565b6100fd565b6040516100789190610796565b60405180910390f35b61009b60048036038101906100969190610842565b610122565b6040516100a8919061099a565b60405180910390f35b6100cb60048036038101906100c691906109bc565b610484565b005b6100e760048036038101906100e29190610a0f565b610509565b6040516100f4919061099a565b60405180910390f35b6000602052816000526040600020602052806000526040600020600091509150505481565b60606002858590501461016a576040517f08c379a000000000000000000000000000000000000000000000000000000000815260040161016190610acc565b60405180910390fd5b6000670de0b6b3a76400006000808888600081811061018c5761018b610aec565b5b90506020020160208101906101a19190610b1b565b73ffffffffffffffffffffffffffffffffffffffff1673ffffffffffffffffffffffffffffffffffffffff1681526020019081526020016000206000888860018181106101f1576101f0610aec565b5b90506020020160208101906102069190610b1b565b73ffffffffffffffffffffffffffffffffffffffff1673ffffffffffffffffffffffffffffffffffffffff168152602001908152602001600020548961024c9190610b77565b6102569190610be8565b90508681101561029b576040517f08c379a000000000000000000000000000000000000000000000000000000000815260040161029290610c65565b60405180910390fd5b600267ffffffffffffffff8111156102b6576102b5610c85565b5b6040519080825280602002602001820160405280156102e45781602001602082028036833780820191505090505b50915087826000815181106102fc576102fb610aec565b5b602002602001018181525050808260018151811061031d5761031c610aec565b5b6020026020010181815250508585600081811061033d5761033c610aec565b5b90506020020160208101906103529190610b1b565b73ffffffffffffffffffffffffffffffffffffffff166323b872dd33308b6040518463ffffffff1660e01b815260040161038e93929190610cc3565b6020604051808303816000875af11580156103ad573d6000803e3d6000fd5b505050506040513d601f19601f820116820180604052508101906103d19190610d32565b50858560018181106103e6576103e5610aec565b5b90506020020160208101906103fb9190610b1b565b73ffffffffffffffffffffffffffffffffffffffff1663a9059cbb85836040518363ffffffff1660e01b8152600401610435929190610d5f565b6020604051808303816000875af1158015610454573d6000803e3d6000fd5b505050506040513d601f19601f820116820180604052508101906104789190610d32565b50509695505050505050565b806000808573ffffffffffffffffffffffffffffffffffffffff1673ffffffffffffffffffffffffffffffffffffffff16815260200190815260200160002060008473ffffffffffffffffffffffffffffffffffffffff1673ffffffffffffffffffffffffffffffffffffffff16815260200190815260200160002081905550505050565b606060028383905014610551576040517f08c379a000000000000000000000000000000000000000000000000000000000815260040161054890610acc565b60405180910390fd5b6000670de0b6b3a76400006000808686600081811061057357610572610aec565b5b90506020020160208101906105889190610b1b565b73ffffffffffffffffffffffffffffffffffffffff1673ffffffffffffffffffffffffffffffffffffffff1681526020019081526020016000206000868660018181106105d8576105d7610aec565b5b90506020020160208101906105ed9190610b1b565b73ffffffffffffffffffffffffffffffffffffffff1673ffffffffffffffffffffffffffffffffffffffff16815260200190815260200160002054866106339190610b77565b61063d9190610be8565b9050600267ffffffffffffffff81111561065a57610659610c85565b5b6040519080825280602002602001820160405280156106885781602001602082028036833780820191505090505b50915084826000815181106106a05761069f610aec565b5b60200260200101818152505080826001815181106106c1576106c0610aec565b5b602002602001018181525050509392505050565b600080fd5b600080fd5b600073ffffffffffffffffffffffffffffffffffffffff82169050919050565b600061070a826106df565b9050919050565b61071a816106ff565b811461072557600080fd5b50565b60008135905061073781610711565b92915050565b60008060408385031215610754576107536106d5565b5b600061076285828601610728565b925050602061077385828601610728565b9150509250929050565b6000819050919050565b6107908161077d565b82525050565b60006020820190506107ab6000830184610787565b92915050565b6107ba8161077d565b81146107c557600080fd5b50565b6000813590506107d7816107b1565b92915050565b600080fd5b600080fd5b600080fd5b60008083601f840112610802576108016107dd565b5b8235905067ffffffffffffffff81111561081f5761081e6107e2565b5b60208301915083602082028301111561083b5761083a6107e7565b5b9250929050565b60008060008060008060a0878903121561085f5761085e6106d5565b5b600061086d89828a016107c8565b965050602061087e89828a016107c8565b955050604087013567ffffffffffffffff81111561089f5761089e6106da565b5b6108ab89828a016107ec565b945094505060606108be89828a01610728565b92505060806108cf89828a016107c8565b9150509295509295509295565b600081519050919050565b600082825260208201905092915050565b6000819050602082019050919050565b6109118161077d565b82525050565b60006109238383610908565b60208301905092915050565b6000602082019050919050565b6000610947826108dc565b61095181856108e7565b935061095c836108f8565b8060005b8381101561098d5781516109748882610917565b975061097f8361092f565b925050600181019050610960565b5085935050505092915050565b600060208201905081810360008301526109b4818461093c565b905092915050565b6000806000606084860312156109d5576109d46106d5565b5b60006109e386828701610728565b93505060206109f486828701610728565b9250506040610a05868287016107c8565b9150509250925092565b600080600060408486031215610a2857610a276106d5565b5b6000610a36868287016107c8565b935050602084013567ffffffffffffffff811115610a5757610a566106da565b5b610a63868287016107ec565b92509250509250925092565b600082825260208201905092915050565b7f4d6f636b4445583a20496e76616c696420706174680000000000000000000000600082015250565b6000610ab6601583610a6f565b9150610ac182610a80565b602082019050919050565b60006020820190508181036000830152610ae581610aa9565b9050919050565b7f4e487b7100000000000000000000000000000000000000000000000000000000600052603260045260246000fd5b600060208284031215610b3157610b306106d5565b5b6000610b3f84828501610728565b91505092915050565b7f4e487b7100000000000000000000000000000000000000000000000000000000600052601160045260246000fd5b6000610b828261077d565b9150610b8d8361077d565b9250828202610b9b8161077d565b91508282048414831517610bb257610bb1610b48565b5b5092915050565b7f4e487b7100000000000000000000000000000000000000000000000000000000600052601260045260246000fd5b6000610bf38261077d565b9150610bfe8361077d565b925082610c0e57610c0d610bb9565b5b828204905092915050565b7f4d6f636b4445583a20536c697070616765000000000000000000000000000000600082015250565b6000610c4f601183610a6f565b9150610c5a82610c19565b602082019050919050565b60006020820190508181036000830152610c7e81610c42565b9050919050565b7f4e487b7100000000000000000000000000000000000000000000000000000000600052604160045260246000fd5b610cbd816106ff565b82525050565b6000606082019050610cd86000830186610cb4565b610ce56020830185610cb4565b610cf26040830184610787565b949350505050565b60008115159050919050565b610d0f81610cfa565b8114610d1a57600080fd5b50565b600081519050610d2c81610d06565b92915050565b600060208284031215610d4857610d476106d5565b5b6000610d5684828501610d1d565b91505092915050565b6000604082019050610d746000830185610cb4565b610d816020830184610787565b939250505056fea26469706673582212202faaf4a671e309e1b142f664047b0fcebdc2d125594a27167314c8b212e02bd964736f6c63430008140033","opcodes":"PUSH1 0x80 PUSH1 0x40 MSTORE CALLVALUE DUP1 ISZERO PUSH2 0x10 JUMPI PUSH1 0x0 DUP1 REVERT JUMPDEST POP PUSH2 0xDBE DUP1 PUSH2 0x20 PUSH1 0x0 CODECOPY PUSH1 0x0 RETURN INVALID PUSH1 0x80 PUSH1 0x40 MSTORE CALLVALUE DUP1 ISZERO PUSH2 0x10 JUMPI PUSH1 0x0 DUP1 REVERT JUMPDEST POP PUSH1 0x4 CALLDATASIZE LT PUSH2 0x4C JUMPI PUSH1 0x0 CALLDATALOAD PUSH1 0xE0 SHR DUP1 PUSH4 0x1F312404 EQ PUSH2 0x51 JUMPI DUP1 PUSH4 0x38ED1739 EQ PUSH2 0x81 JUMPI DUP1 PUSH4 0x792EB791 EQ PUSH2 0xB1 JUMPI DUP1 PUSH4 0xD06CA61F EQ PUSH2 0xCD JUMPI JUMPDEST PUSH1 0x0 DUP1 REVERT JUMPDEST PUSH2 0x6B PUSH1 0x4 DUP1 CALLDATASIZE SUB DUP2 ADD SWAP1 PUSH2 0x66 SWAP2 SWAP1 PUSH2 0x73D JUMP JUMPDEST PUSH2 0xFD JUMP JUMPDEST PUSH1 0x40 MLOAD PUSH2 0x78 SWAP2 SWAP1 PUSH2 0x796 JUMP JUMPDEST PUSH1 0x40 MLOAD DUP1 SWAP2 SUB SWAP1 RETURN JUMPDEST PUSH2 0x9B PUSH1 0x4 DUP1 CALLDATASIZE SUB DUP2 ADD SWAP1 PUSH2 0x96 SWAP2 SWAP1 PUSH2 0x842 JUMP JUMPDEST PUSH2 0x122 JUMP JUMPDEST PUSH1 0x40 MLOAD PUSH2 0xA8 SWAP2 SWAP1 PUSH2 0x99A JUMP JUMPDEST PUSH1 0x40 MLOAD DUP1 SWAP2 SUB SWAP1 RETURN JUMPDEST PUSH2 0xCB PUSH1 0x4 DUP1 CALLDATASIZE SUB DUP2 ADD SWAP1 PUSH2 0xC6 SWAP2 SWAP1 PUSH2 0x9BC JUMP JUMPDEST PUSH2 0x484 JUMP JUMPDEST STOP JUMPDEST PUSH2 0xE7 PUSH1 0x4 DUP1 CALLDATASIZE SUB DUP2 ADD SWAP1 PUSH2 0xE2 SWAP2 SWAP1 PUSH2 0xA0F JUMP JUMPDEST PUSH2 0x509 JUMP JUMPDEST PUSH1 0x40 MLOAD PUSH2 0xF4 SWAP2 SWAP1 PUSH2 0x99A JUMP JUMPDEST PUSH1 0x40 MLOAD DUP1 SWAP2 SUB SWAP1 RETURN JUMPDEST PUSH1 0x0 PUSH1 0x20 MSTORE DUP2 PUSH1 0x0 MSTORE PUSH1 0x40 PUSH1 0x0 KECCAK256 PUSH1 0x20 MSTORE DUP1 PUSH1 0x0 MSTORE PUSH1 0x40 PUSH1 0x0 KECCAK256 PUSH1 0x0 SWAP2 POP SWAP2 POP POP SLOAD DUP2 JUMP JUMPDEST PUSH1 0x60 PUSH1 0x2 DUP6 DUP6 SWAP1 POP EQ PUSH2 0x16A JUMPI PUSH1 0x40 MLOAD PUSH32 0x8C379A000000000000000000000000000000000000000000000000000000000 DUP2 MSTORE PUSH1 0x4 ADD PUSH2 0x161 SWAP1 PUSH2 0xACC JUMP JUMPDEST PUSH1 0x40 MLOAD DUP1 SWAP2 SUB SWAP1 REVERT JUMPDEST PUSH1 0x0 PUSH8 0xDE0B6B3A7640000 PUSH1 0x0 DUP1 DUP9 DUP9 PUSH1 0x0 DUP2 DUP2 LT PUSH2 0x18C JUMPI PUSH2 0x18B PUSH2 0xAEC JUMP JUMPDEST JUMPDEST SWAP1 POP PUSH1 0x20 MUL ADD PUSH1 0x20 DUP2 ADD SWAP1 PUSH2 0x1A1 SWAP2 SWAP1 PUSH2 0xB1B JUMP JUMPDEST PUSH20 0xFFFFFFFFFFFFFFFFFFFFFFFFFFFFFFFFFFFFFFFF AND PUSH20 0xFFFFFFFFFFFFFFFFFFFFFFFFFFFFFFFFFFFFFFFF AND DUP2 MSTORE PUSH1 0x20 ADD SWAP1 DUP2 MSTORE PUSH1 0x20 ADD PUSH1 0x0 KECCAK256 PUSH1 0x0 DUP9 DUP9 PUSH1 0x1 DUP2 DUP2 LT PUSH2 0x1F1 JUMPI PUSH2 0x1F0 PUSH2 0xAEC JUMP JUMPDEST JUMPDEST SWAP1 POP PUSH1 0x20 MUL ADD PUSH1 0x20 DUP2 ADD SWAP1 PUSH2 0x206 SWAP2 SWAP1 PUSH2 0xB1B JUMP JUMPDEST PUSH20 0xFFFFFFFFFFFFFFFFFFFFFFFFFFFFFFFFFFFFFFFF AND PUSH20 0xFFFFFFFFFFFFFFFFFFFFFFFFFFFFFFFFFFFFFFFF AND DUP2 MSTORE PUSH1 0x20 ADD SWAP1 DUP2 MSTORE PUSH1 0x20 ADD PUSH1 0x0 KECCAK256 SLOAD DUP10 PUSH2 0x24C SWAP2 SWAP1 PUSH2 0xB77 JUMP JUMPDEST PUSH2 0x256 SWAP2 SWAP1 PUSH2 0xBE8 JUMP JUMPDEST SWAP1 POP DUP7 DUP2 LT ISZERO PUSH2 0x29B JUMPI PUSH1 0x40 MLOAD PUSH32 0x8C379A000000000000000000000000000000000000000000000000000000000 DUP2 MSTORE PUSH1 0x4 ADD PUSH2 0x292 SWAP1 PUSH2 0xC65 JUMP JUMPDEST PUSH1 0x40 MLOAD DUP1 SWAP2 SUB SWAP1 REVERT JUMPDEST PUSH1 0x2 PUSH8 0xFFFFFFFFFFFFFFFF DUP2 GT ISZERO PUSH2 0x2B6 JUMPI PUSH2 0x2B5 PUSH2 0xC85 JUMP JUMPDEST JUMPDEST PUSH1 0x40 MLOAD SWAP1 DUP1 DUP3 MSTORE DUP1 PUSH1 0x20 MUL PUSH1 0x20 ADD DUP3 ADD PUSH1 0x40 MSTORE DUP1 ISZERO PUSH2 0x2E4 JUMPI DUP2 PUSH1 0x20 ADD PUSH1 0x20 DUP3 MUL DUP1 CALLDATASIZE DUP4 CALLDATACOPY DUP1 DUP3 ADD SWAP2 POP POP SWAP1 POP JUMPDEST POP SWAP2 POP DUP8 DUP3 PUSH1 0x0 DUP2 MLOAD DUP2 LT PUSH2 0x2FC JUMPI PUSH2 0x2FB PUSH2 0xAEC JUMP JUMPDEST JUMPDEST PUSH1 0x20 MUL PUSH1 0x20 ADD ADD DUP2 DUP2 MSTORE POP POP DUP1 DUP3 PUSH1 0x1 DUP2 MLOAD DUP2 LT PUSH2 0x31D JUMPI PUSH2 0x31C PUSH2 0xAEC JUMP JUMPDEST JUMPDEST PUSH1 0x20 MUL PUSH1 0x20 ADD ADD DUP2 DUP2 MSTORE POP POP DUP6 DUP6 PUSH1 0x0 DUP2 DUP2 LT PUSH2 0x33D JUMPI PUSH2 0x33C PUSH2 0xAEC JUMP JUMPDEST JUMPDEST SWAP1 POP PUSH1 0x20 MUL ADD PUSH1 0x20 DUP2 ADD SWAP1 PUSH2 0x352 SWAP2 SWAP1 PUSH2 0xB1B JUMP JUMPDEST PUSH20 0xFFFFFFFFFFFFFFFFFFFFFFFFFFFFFFFFFFFFFFFF AND PUSH4 0x23B872DD CALLER ADDRESS DUP12 PUSH1 0x40 MLOAD DUP5 PUSH4 0xFFFFFFFF AND PUSH1 0xE0 SHL DUP2 MSTORE PUSH1 0x4 ADD PUSH2 0x38E SWAP4 SWAP3 SWAP2 SWAP1 PUSH2 0xCC3 JUMP JUMPDEST PUSH1 0x20 PUSH1 0x40 MLOAD DUP1 DUP4 SUB DUP2 PUSH1 0x0 DUP8 GAS CALL ISZERO DUP1 ISZERO PUSH2 0x3AD JUMPI RETURNDATASIZE PUSH1 0x0 DUP1 RETURNDATACOPY RETURNDATASIZE PUSH1 0x0 REVERT JUMPDEST POP POP POP POP PUSH1 0x40 MLOAD RETURNDATASIZE PUSH1 0x1F NOT PUSH1 0x1F DUP3 ADD AND DUP3 ADD DUP1 PUSH1 0x40 MSTORE POP DUP2 ADD SWAP1 PUSH2 0x3D1 SWAP2 SWAP1 PUSH2 0xD32 JUMP JUMPDEST POP DUP6 DUP6 PUSH1 0x1 DUP2 DUP2 LT PUSH2 0x3E6 JUMPI PUSH2 0x3E5 PUSH2 0xAEC JUMP JUMPDEST JUMPDEST SWAP1 POP PUSH1 0x20 MUL ADD PUSH1 0x20 DUP2 ADD SWAP1 PUSH2 0x3FB SWAP2 SWAP1 PUSH2 0xB1B JUMP JUMPDEST PUSH20 0xFFFFFFFFFFFFFFFFFFFFFFFFFFFFFFFFFFFFFFFF AND PUSH4 0xA9059CBB DUP6 DUP4 PUSH1 0x40 MLOAD DUP4 PUSH4 0xFFFFFFFF AND PUSH1 0xE0 SHL DUP2 MSTORE PUSH1 0x4 ADD PUSH2 0x435 SWAP3 SWAP2 SWAP1 PUSH2 0xD5F JUMP JUMPDEST PUSH1 0x20 PUSH1 0x40 MLOAD DUP1 DUP4 SUB DUP2 PUSH1 0x0 DUP8 GAS CALL ISZERO DUP1 ISZERO PUSH2 0x454 JUMPI RETURNDATASIZE PUSH1 0x0 DUP1 RETURNDATACOPY RETURNDATASIZE PUSH1 0x0 REVERT JUMPDEST POP POP POP POP PUSH1 0x40 MLOAD RETURNDATASIZE PUSH1 0x1F NOT PUSH1 0x1F DUP3 ADD AND DUP3 ADD DUP1 PUSH1 0x40 MSTORE POP DUP2 ADD SWAP1 PUSH2 0x478 SWAP2 SWAP1 PUSH2 0xD32 JUMP JUMPDEST POP POP SWAP7 SWAP6 POP POP POP POP POP POP JUMP JUMPDEST DUP1 PUSH1 0x0 DUP1 DUP6 PUSH20 0xFFFFFFFFFFFFFFFFFFFFFFFFFFFFFFFFFFFFFFFF AND PUSH20 0xFFFFFFFFFFFFFFFFFFFFFFFFFFFFFFFFFFFFFFFF AND DUP2 MSTORE PUSH1 0x20 ADD SWAP1 DUP2 MSTORE PUSH1 0x20 ADD PUSH1 0x0 KECCAK256 PUSH1 0x0 DUP5 PUSH20 0xFFFFFFFFFFFFFFFFFFFFFFFFFFFFFFFFFFFFFFFF AND PUSH20 0xFFFFFFFFFFFFFFFFFFFFFFFFFFFFFFFFFFFFFFFF AND DUP2 MSTORE PUSH1 0x20 ADD SWAP1 DUP2 MSTORE PUSH1 0x20 ADD PUSH1 0x0 KECCAK256 DUP2 SWAP1 SSTORE POP POP POP POP JUMP JUMPDEST PUSH1 0x60 PUSH1 0x2 DUP4 DUP4 SWAP1 POP EQ PUSH2 0x551 JUMPI PUSH1 0x40 MLOAD PUSH32 0x8C379A000000000000000000000000000000000000000000000000000000000 DUP2 MSTORE PUSH1 0x4 ADD PUSH2 0x548 SWAP1 PUSH2 0xACC JUMP JUMPDEST PUSH1 0x40 MLOAD DUP1 SWAP2 SUB SWAP1 REVERT JUMPDEST PUSH1 0x0 PUSH8 0xDE0B6B3A7640000 PUSH1 0x0 DUP1 DUP7 DUP7 PUSH1 0x0 DUP2 DUP2 LT PUSH2 0x573 JUMPI PUSH2 0x572 PUSH2 0xAEC JUMP JUMPDEST JUMPDEST SWAP1 POP PUSH1 0x20 MUL ADD PUSH1 0x20 DUP2 ADD SWAP1 PUSH2 0x588 SWAP2 SWAP1 PUSH2 0xB1B JUMP JUMPDEST PUSH20 0xFFFFFFFFFFFFFFFFFFFFFFFFFFFFFFFFFFFFFFFF AND PUSH20 0xFFFFFFFFFFFFFFFFFFFFFFFFFFFFFFFFFFFFFFFF AND DUP2 MSTORE PUSH1 0x20 ADD SWAP1 DUP2 MSTORE PUSH1 0x20 ADD PUSH1 0x0 KECCAK256 PUSH1 0x0 DUP7 DUP7 PUSH1 0x1 DUP2 DUP2 LT PUSH2 0x5D8 JUMPI PUSH2 0x5D7 PUSH2 0xAEC JUMP JUMPDEST JUMPDEST SWAP1 POP PUSH1 0x20 MUL ADD PUSH1 0x20 DUP2 ADD SWAP1 PUSH2 0x5ED SWAP2 SWAP1 PUSH2 0xB1B JUMP JUMPDEST PUSH20 0xFFFFFFFFFFFFFFFFFFFFFFFFFFFFFFFFFFFFFFFF AND PUSH20 0xFFFFFFFFFFFFFFFFFFFFFFFFFFFFFFFFFFFFFFFF AND DUP2 MSTORE PUSH1 0x20 ADD SWAP1 DUP2 MSTORE PUSH1 0x20 ADD PUSH1 0x0 KECCAK256 SLOAD DUP7 PUSH2 0x633 SWAP2 SWAP1 PUSH2 0xB77 JUMP JUMPDEST PUSH2 0x63D SWAP2 SWAP1 PUSH2 0xBE8 JUMP JUMPDEST SWAP1 POP PUSH1 0x2 PUSH8 0xFFFFFFFFFFFFFFFF DUP2 GT ISZERO PUSH2 0x65A JUMPI PUSH2 0x659 PUSH2 0xC85 JUMP JUMPDEST JUMPDEST PUSH1 0x40 MLOAD SWAP1 DUP1 DUP3 MSTORE DUP1 PUSH1 0x20 MUL PUSH1 0x20 ADD DUP3 ADD PUSH1 0x40 MSTORE DUP1 ISZERO PUSH2 0x688 JUMPI DUP2 PUSH1 0x20 ADD PUSH1 0x20 DUP3 MUL DUP1 CALLDATASIZE DUP4 CALLDATACOPY DUP1 DUP3 ADD SWAP2 POP POP SWAP1 POP JUMPDEST POP SWAP2 POP DUP5 DUP3 PUSH1 0x0 DUP2 MLOAD DUP2 LT PUSH2 0x6A0 JUMPI PUSH2 0x69F PUSH2 0xAEC JUMP JUMPDEST JUMPDEST PUSH1 0x20 MUL PUSH1 0x20 ADD ADD DUP2 DUP2 MSTORE POP POP DUP1 DUP3 PUSH1 0x1 DUP2 MLOAD DUP2 LT PUSH2 0x6C1 JUMPI PUSH2 0x6C0 PUSH2 0xAEC JUMP JUMPDEST JUMPDEST PUSH1 0x20 MUL PUSH1 0x20 ADD ADD DUP2 DUP2 MSTORE POP POP POP SWAP4 SWAP3 POP POP POP JUMP JUMPDEST PUSH1 0x0 DUP1 REVERT JUMPDEST PUSH1 0x0 DUP1 REVERT JUMPDEST PUSH1 0x0 PUSH20 0xFFFFFFFFFFFFFFFFFFFFFFFFFFFFFFFFFFFFFFFF DUP3 AND SWAP1 POP SWAP2 SWAP1 POP JUMP JUMPDEST PUSH1 0x0 PUSH2 0x70A DUP3 PUSH2 0x6DF JUMP JUMPDEST SWAP1 POP SWAP2 SWAP1 POP JUMP JUMPDEST PUSH2 0x71A DUP2 PUSH2 0x6FF JUMP JUMPDEST DUP2 EQ PUSH2 0x725 JUMPI PUSH1 0x0 DUP1 REVERT JUMPDEST POP JUMP JUMPDEST PUSH1 0x0 DUP2 CALLDATALOAD SWAP1 POP PUSH2 0x737 DUP2 PUSH2 0x711 JUMP JUMPDEST SWAP3 SWAP2 POP POP JUMP JUMPDEST PUSH1 0x0 DUP1 PUSH1 0x40 DUP4 DUP6 SUB SLT ISZERO PUSH2 0x754 JUMPI PUSH2 0x753 PUSH2 0x6D5 JUMP JUMPDEST JUMPDEST PUSH1 0x0 PUSH2 0x762 DUP6 DUP3 DUP7 ADD PUSH2 0x728 JUMP JUMPDEST SWAP3 POP POP PUSH1 0x20 PUSH2 0x773 DUP6 DUP3 DUP7 ADD PUSH2 0x728 JUMP JUMPDEST SWAP2 POP POP SWAP3 POP SWAP3 SWAP1 POP JUMP JUMPDEST PUSH1 0x0 DUP2 SWAP1 POP SWAP2 SWAP1 POP JUMP JUMPDEST PUSH2 0x790 DUP2 PUSH2 0x77D JUMP JUMPDEST DUP3 MSTORE POP POP JUMP JUMPDEST PUSH1 0x0 PUSH1 0x20 DUP3 ADD SWAP1 POP PUSH2 0x7AB PUSH1 0x0 DUP4 ADD DUP5 PUSH2 0x787 JUMP JUMPDEST SWAP3 SWAP2 POP POP JUMP JUMPDEST PUSH2 0x7BA DUP2 PUSH2 0x77D JUMP JUMPDEST DUP2 EQ PUSH2 0x7C5 JUMPI PUSH1 0x0 DUP1 REVERT JUMPDEST POP JUMP JUMPDEST PUSH1 0x0 DUP2 CALLDATALOAD SWAP1 POP PUSH2 0x7D7 DUP2 PUSH2 0x7B1 JUMP JUMPDEST SWAP3 SWAP2 POP POP JUMP JUMPDEST PUSH1 0x0 DUP1 REVERT JUMPDEST PUSH1 0x0 DUP1 REVERT JUMPDEST PUSH1 0x0 DUP1 REVERT JUMPDEST PUSH1 0x0 DUP1 DUP4 PUSH1 0x1F DUP5 ADD SLT PUSH2 0x802 JUMPI PUSH2 0x801 PUSH2 0x7DD JUMP JUMPDEST JUMPDEST DUP3 CALLDATALOAD SWAP1 POP PUSH8 0xFFFFFFFFFFFFFFFF DUP2 GT ISZERO PUSH2 0x81F JUMPI PUSH2 0x81E PUSH2 0x7E2 JUMP JUMPDEST JUMPDEST PUSH1 0x20 DUP4 ADD SWAP2 POP DUP4 PUSH1 0x20 DUP3 MUL DUP4 ADD GT ISZERO PUSH2 0x83B JUMPI PUSH2 0x83A PUSH2 0x7E7 JUMP JUMPDEST JUMPDEST SWAP3 POP SWAP3 SWAP1 POP JUMP JUMPDEST PUSH1 0x0 DUP1 PUSH1 0x0 DUP1 PUSH1 0x0 DUP1 PUSH1 0xA0 DUP8 DUP10 SUB SLT ISZERO PUSH2 0x85F JUMPI PUSH2 0x85E PUSH2 0x6D5 JUMP JUMPDEST JUMPDEST PUSH1 0x0 PUSH2 0x86D DUP10 DUP3 DUP11 ADD PUSH2 0x7C8 JUMP JUMPDEST SWAP7 POP POP PUSH1 0x20 PUSH2 0x87E DUP10 DUP3 DUP11 ADD PUSH2 0x7C8 JUMP JUMPDEST SWAP6 POP POP PUSH1 0x40 DUP8 ADD CALLDATALOAD PUSH8 0xFFFFFFFFFFFFFFFF DUP2 GT ISZERO PUSH2 0x89F JUMPI PUSH2 0x89E PUSH2 0x6DA JUMP JUMPDEST JUMPDEST PUSH2 0x8AB DUP10 DUP3 DUP11 ADD PUSH2 0x7EC JUMP JUMPDEST SWAP5 POP SWAP5 POP POP PUSH1 0x60 PUSH2 0x8BE DUP10 DUP3 DUP11 ADD PUSH2 0x728 JUMP JUMPDEST SWAP3 POP POP PUSH1 0x80 PUSH2 0x8CF DUP10 DUP3 DUP11 ADD PUSH2 0x7C8 JUMP JUMPDEST SWAP2 POP POP SWAP3 SWAP6 POP SWAP3 SWAP6 POP SWAP3 SWAP6 JUMP JUMPDEST PUSH1 0x0 DUP2 MLOAD SWAP1 POP SWAP2 SWAP1 POP JUMP JUMPDEST PUSH1 0x0 DUP3 DUP3 MSTORE PUSH1 0x20 DUP3 ADD SWAP1 POP SWAP3 SWAP2 POP POP JUMP JUMPDEST PUSH1 0x0 DUP2 SWAP1 POP PUSH1 0x20 DUP3 ADD SWAP1 POP SWAP2 SWAP1 POP JUMP JUMPDEST PUSH2 0x911 DUP2 PUSH2 0x77D JUMP JUMPDEST DUP3 MSTORE POP POP JUMP JUMPDEST PUSH1 0x0 PUSH2 0x923 DUP4 DUP4 PUSH2 0x908 JUMP JUMPDEST PUSH1 0x20 DUP4 ADD SWAP1 POP SWAP3 SWAP2 POP POP JUMP JUMPDEST PUSH1 0x0 PUSH1 0x20 DUP3 ADD SWAP1 POP SWAP2 SWAP1 POP JUMP JUMPDEST PUSH1 0x0 PUSH2 0x947 DUP3 PUSH2 0x8DC JUMP JUMPDEST PUSH2 0x951 DUP2 DUP6 PUSH2 0x8E7 JUMP JUMPDEST SWAP4 POP PUSH2 0x95C DUP4 PUSH2 0x8F8 JUMP JUMPDEST DUP1 PUSH1 0x0 JUMPDEST DUP4 DUP2 LT ISZERO PUSH2 0x98D JUMPI DUP2 MLOAD PUSH2 0x974 DUP9 DUP3 PUSH2 0x917 JUMP JUMPDEST SWAP8 POP PUSH2 0x97F DUP4 PUSH2 0x92F JUMP JUMPDEST SWAP3 POP POP PUSH1 0x1 DUP2 ADD SWAP1 POP PUSH2 0x960 JUMP JUMPDEST POP DUP6 SWAP4 POP POP POP POP SWAP3 SWAP2 POP POP JUMP JUMPDEST PUSH1 0x0 PUSH1 0x20 DUP3 ADD SWAP1 POP DUP2 DUP2 SUB PUSH1 0x0 DUP4 ADD MSTORE PUSH2 0x9B4 DUP2 DUP5 PUSH2 0x93C JUMP JUMPDEST SWAP1 POP SWAP3 SWAP2 POP POP JUMP JUMPDEST PUSH1 0x0 DUP1 PUSH1 0x0 PUSH1 0x60 DUP5 DUP7 SUB SLT ISZERO PUSH2 0x9D5 JUMPI PUSH2 0x9D4 PUSH2 0x6D5 JUMP JUMPDEST JUMPDEST PUSH1 0x0 PUSH2 0x9E3 DUP7 DUP3 DUP8 ADD PUSH2 0x728 JUMP JUMPDEST SWAP4 POP POP PUSH1 0x20 PUSH2 0x9F4 DUP7 DUP3 DUP8 ADD PUSH2 0x728 JUMP JUMPDEST SWAP3 POP POP PUSH1 0x40 PUSH2 0xA05 DUP7 DUP3 DUP8 ADD PUSH2 0x7C8 JUMP JUMPDEST SWAP2 POP POP SWAP3 POP SWAP3 POP SWAP3 JUMP JUMPDEST PUSH1 0x0 DUP1 PUSH1 0x0 PUSH1 0x40 DUP5 DUP7 SUB SLT ISZERO PUSH2 0xA28 JUMPI PUSH2 0xA27 PUSH2 0x6D5 JUMP JUMPDEST JUMPDEST PUSH1 0x0 PUSH2 0xA36 DUP7 DUP3 DUP8 ADD PUSH2 0x7C8 JUMP JUMPDEST SWAP4 POP POP PUSH1 0x20 DUP5 ADD CALLDATALOAD PUSH8 0xFFFFFFFFFFFFFFFF DUP2 GT ISZERO PUSH2 0xA57 JUMPI PUSH2 0xA56 PUSH2 0x6DA JUMP JUMPDEST JUMPDEST PUSH2 0xA63 DUP7 DUP3 DUP8 ADD PUSH2 0x7EC JUMP JUMPDEST SWAP3 POP SWAP3 POP POP SWAP3 POP SWAP3 POP SWAP3 JUMP JUMPDEST PUSH1 0x0 DUP3 DUP3 MSTORE PUSH1 0x20 DUP3 ADD SWAP1 POP SWAP3 SWAP2 POP POP JUMP JUMPDEST PUSH32 0x4D6F636B4445583A20496E76616C696420706174680000000000000000000000 PUSH1 0x0 DUP3 ADD MSTORE POP JUMP JUMPDEST PUSH1 0x0 PUSH2 0xAB6 PUSH1 0x15 DUP4 PUSH2 0xA6F JUMP JUMPDEST SWAP2 POP PUSH2 0xAC1 DUP3 PUSH2 0xA80 JUMP JUMPDEST PUSH1 0x20 DUP3 ADD SWAP1 POP SWAP2 SWAP1 POP JUMP JUMPDEST PUSH1 0x0 PUSH1 0x20 DUP3 ADD SWAP1 POP DUP2 DUP2 SUB PUSH1 0x0 DUP4 ADD MSTORE PUSH2 0xAE5 DUP2 PUSH2 0xAA9 JUMP JUMPDEST SWAP1 POP SWAP2 SWAP1 POP JUMP JUMPDEST PUSH32 0x4E487B7100000000000000000000000000000000000000000000000000000000 PUSH1 0x0 MSTORE PUSH1 0x32 PUSH1 0x4 MSTORE PUSH1 0x24 PUSH1 0x0 REVERT JUMPDEST PUSH1 0x0 PUSH1 0x20 DUP3 DUP5 SUB SLT ISZERO PUSH2 0xB31 JUMPI PUSH2 0xB30 PUSH2 0x6D5 JUMP JUMPDEST JUMPDEST PUSH1 0x0 PUSH2 0xB3F DUP5 DUP3 DUP6 ADD PUSH2 0x728 JUMP JUMPDEST SWAP2 POP POP SWAP3 SWAP2 POP POP JUMP JUMPDEST PUSH32 0x4E487B7100000000000000000000000000000000000000000000000000000000 PUSH1 0x0 MSTORE PUSH1 0x11 PUSH1 0x4 MSTORE PUSH1 0x24 PUSH1 0x0 REVERT JUMPDEST PUSH1 0x0 PUSH2 0xB82 DUP3 PUSH2 0x77D JUMP JUMPDEST SWAP2 POP PUSH2 0xB8D DUP4 PUSH2 0x77D JUMP JUMPDEST SWAP3 POP DUP3 DUP3 MUL PUSH2 0xB9B DUP2 PUSH2 0x77D JUMP JUMPDEST SWAP2 POP DUP3 DUP3 DIV DUP5 EQ DUP4 ISZERO OR PUSH2 0xBB2 JUMPI PUSH2 0xBB1 PUSH2 0xB48 JUMP JUMPDEST JUMPDEST POP SWAP3 SWAP2 POP POP JUMP JUMPDEST PUSH32 0x4E487B7100000000000000000000000000000000000000000000000000000000 PUSH1 0x0 MSTORE PUSH1 0x12 PUSH1 0x4 MSTORE PUSH1 0x24 PUSH1 0x0 REVERT JUMPDEST PUSH1 0x0 PUSH2 0xBF3 DUP3 PUSH2 0x77D JUMP JUMPDEST SWAP2 POP PUSH2 0xBFE DUP4 PUSH2 0x77D JUMP JUMPDEST SWAP3 POP DUP3 PUSH2 0xC0E JUMPI PUSH2 0xC0D PUSH2 0xBB9 JUMP JUMPDEST JUMPDEST DUP3 DUP3 DIV SWAP1 POP SWAP3 SWAP2 POP POP JUMP JUMPDEST PUSH32 0x4D6F636B4445583A20536C697070616765000000000000000000000000000000 PUSH1 0x0 DUP3 ADD MSTORE POP JUMP JUMPDEST PUSH1 0x0 PUSH2 0xC4F PUSH1 0x11 DUP4 PUSH2 0xA6F JUMP JUMPDEST SWAP2 POP PUSH2 0xC5A DUP3 PUSH2 0xC19 JUMP JUMPDEST PUSH1 0x20 DUP3 ADD SWAP1 POP SWAP2 SWAP1 POP JUMP JUMPDEST PUSH1 0x0 PUSH1 0x20 DUP3 ADD SWAP1 POP DUP2 DUP2 SUB PUSH1 0x0 DUP4 ADD MSTORE PUSH2 0xC7E DUP2 PUSH2 0xC42 JUMP JUMPDEST SWAP1 POP SWAP2 SWAP1 POP JUMP JUMPDEST PUSH32 0x4E487B7100000000000000000000000000000000000000000000000000000000 PUSH1 0x0 MSTORE PUSH1 0x41 PUSH1 0x4 MSTORE PUSH1 0x24 PUSH1 0x0 REVERT JUMPDEST PUSH2 0xCBD DUP2 PUSH2 0x6FF JUMP JUMPDEST DUP3 MSTORE POP POP JUMP JUMPDEST PUSH1 0x0 PUSH1 0x60 DUP3 ADD SWAP1 POP PUSH2 0xCD8 PUSH1 0x0 DUP4 ADD DUP7 PUSH2 0xCB4 JUMP JUMPDEST PUSH2 0xCE5 PUSH1 0x20 DUP4 ADD DUP6 PUSH2 0xCB4 JUMP JUMPDEST PUSH2 0xCF2 PUSH1 0x40 DUP4 ADD DUP5 PUSH2 0x787 JUMP JUMPDEST SWAP5 SWAP4 POP POP POP POP JUMP JUMPDEST PUSH1 0x0 DUP2 ISZERO ISZERO SWAP1 POP SWAP2 SWAP1 POP JUMP JUMPDEST PUSH2 0xD0F DUP2 PUSH2 0xCFA JUMP JUMPDEST DUP2 EQ PUSH2 0xD1A JUMPI PUSH1 0x0 DUP1 REVERT JUMPDEST POP JUMP JUMPDEST PUSH1 0x0 DUP2 MLOAD SWAP1 POP PUSH2 0xD2C DUP2 PUSH2 0xD06 JUMP JUMPDEST SWAP3 SWAP2 POP POP JUMP JUMPDEST PUSH1 0x0 PUSH1 0x20 DUP3 DUP5 SUB SLT ISZERO PUSH2 0xD48 JUMPI PUSH2 0xD47 PUSH2 0x6D5 JUMP JUMPDEST JUMPDEST PUSH1 0x0 PUSH2 0xD56 DUP5 DUP3 DUP6 ADD PUSH2 0xD1D JUMP JUMPDEST SWAP2 POP POP SWAP3 SWAP2 POP POP JUMP JUMPDEST PUSH1 0x0 PUSH1 0x40 DUP3 ADD SWAP1 POP PUSH2 0xD74 PUSH1 0x0 DUP4 ADD DUP6 PUSH2 0xCB4 JUMP JUMPDEST PUSH2 0xD81 PUSH1 0x20 DUP4 ADD DUP5 PUSH2 0x787 JUMP JUMPDEST SWAP4 SWAP3 POP POP POP JUMP INVALID LOG2 PUSH5 0x6970667358 0x22 SLT KECCAK256 0x2F 0xAA DELEGATECALL 0xA6 PUSH18 0xE309E1B142F664047B0FCEBDC2D125594A27 AND PUSH20 0x14C8B212E02BD964736F6C634300081400330000 "},"methodIdentifiers":{"getAmountsOut(uint256,address[])":"d06ca61f","prices(address,address)":"1f312404","setPrice(address,address,uint256)":"792eb791","swapExactTokensForTokens(uint256,uint256,address[],address,uint256)":"38ed1739"}}}}}