{"contracts/MockAAVEPool.sol":{"MockAAVEPool":{"abi":[{"anonymous":false,"inputs":[{"indexed":true,"internalType":"address","name":"reserve","type":"address"},{"indexed":true,"internalType":"address","name":"backer","type":"address"},{"indexed":false,"internalType":"uint256","name":"amount","type":"uint256"},{"indexed":false,"internalType":"uint256","name":"fee","type":"uint256"}],"name":"BackUnbacked","type":"event"},{"anonymous":false,"inputs":[{"indexed":true,"internalType":"address","name":"reserve","type":"address"},{"indexed":false,"internalType":"address","name":"user","type":"address"},{"indexed":true,"internalType":"address","name":"onBehalfOf","type":"address"},{"indexed":false,"internalType":"uint256","name":"amount","type":"uint256"},{"indexed":false,"internalType":"enum DataTypes.InterestRateMode","name":"interestRateMode","type":"uint8"},{"indexed":false,"internalType":"uint256","name":"borrowRate","type":"uint256"},{"indexed":true,"internalType":"uint16","name":"referralCode","type":"uint16"}],"name":"Borrow","type":"event"},{"anonymous":false,"inputs":[{"indexed":true,"internalType":"address","name":"target","type":"address"},{"indexed":false,"internalType":"address","name":"initiator","type":"address"},{"indexed":true,"internalType":"address","name":"asset","type":"address"},{"indexed":false,"internalType":"uint256","name":"amount","type":"uint256"},{"indexed":false,"internalType":"enum DataTypes.InterestRateMode","name":"interestRateMode","type":"uint8"},{"indexed":false,"internalType":"uint256","name":"premium","type":"uint256"},{"indexed":true,"internalType":"uint16","name":"referralCode","type":"uint16"}],"name":"FlashLoan","type":"event"},{"anonymous":false,"inputs":[{"indexed":true,"internalType":"address","name":"asset","type":"address"},{"indexed":false,"internalType":"uint256","name":"totalDebt","type":"uint256"}],"name":"IsolationModeTotalDebtUpdated","type":"event"},{"anonymous":false,"inputs":[{"indexed":true,"internalType":"address","name":"collateralAsset","type":"address"},{"indexed":true,"internalType":"address","name":"debtAsset","type":"address"},{"indexed":true,"internalType":"address","name":"user","type":"address"},{"indexed":false,"internalType":"uint256","name":"debtToCover","type":"uint256"},{"indexed":false,"internalType":"uint256","name":"liquidatedCollateralAmount","type":"uint256"},{"indexed":false,"internalType":"address","name":"liquidator","type":"address"},{"indexed":false,"internalType":"bool","name":"receiveAToken","type":"bool"}],"name":"LiquidationCall","type":"event"},{"anonymous":false,"inputs":[{"indexed":true,"internalType":"address","name":"reserve","type":"address"},{"indexed":false,"internalType":"address","name":"user","type":"address"},{"indexed":true,"internalType":"address","name":"onBehalfOf","type":"address"},{"indexed":false,"internalType":"uint256","name":"amount","type":"uint256"},{"indexed":true,"internalType":"uint16","name":"referralCode","type":"uint16"}],"name":"MintUnbacked","type":"event"},{"anonymous":false,"inputs":[{"indexed":true,"internalType":"address","name":"reserve","type":"address"},{"indexed":false,"internalType":"uint256","name":"amountMinted","type":"uint256"}],"name":"MintedToTreasury","type":"event"},{"anonymous":false,"inputs":[{"indexed":true,"internalType":"address","name":"reserve","type":"address"},{"indexed":true,"internalType":"address","name":"user","type":"address"}],"name":"RebalanceStableBorrowRate","type":"event"},{"anonymous":false,"inputs":[{"indexed":true,"internalType":"address","name":"reserve","type":"address"},{"indexed":true,"internalType":"address","name":"user","type":"address"},{"indexed":true,"internalType":"address","name":"repayer","type":"address"},{"indexed":false,"internalType":"uint256","name":"amount","type":"uint256"},{"indexed":false,"internalType":"bool","name":"useATokens","type":"bool"}],"name":"Repay","type":"event"},{"anonymous":false,"inputs":[{"indexed":true,"internalType":"address","name":"reserve","type":"address"},{"indexed":false,"internalType":"uint256","name":"liquidityRate","type":"uint256"},{"indexed":false,"internalType":"uint256","name":"stableBorrowRate","type":"uint256"},{"indexed":false,"internalType":"uint256","name":"variableBorrowRate","type":"uint256"},{"indexed":false,"internalType":"uint256","name":"liquidityIndex","type":"uint256"},{"indexed":false,"internalType":"uint256","name":"variableBorrowIndex","type":"uint256"}],"name":"ReserveDataUpdated","type":"event"},{"anonymous":false,"inputs":[{"indexed":true,"internalType":"address","name":"reserve","type":"address"},{"indexed":true,"internalType":"address","name":"user","type":"address"}],"name":"ReserveUsedAsCollateralDisabled","type":"event"},{"anonymous":false,"inputs":[{"indexed":true,"internalType":"address","name":"reserve","type":"address"},{"indexed":true,"internalType":"address","name":"user","type":"address"}],"name":"ReserveUsedAsCollateralEnabled","type":"event"},{"anonymous":false,"inputs":[{"indexed":true,"internalType":"address","name":"reserve","type":"address"},{"indexed":false,"internalType":"address","name":"user","type":"address"},{"indexed":true,"internalType":"address","name":"onBehalfOf","type":"address"},{"indexed":false,"internalType":"uint256","name":"amount","type":"uint256"},{"indexed":true,"internalType":"uint16","name":"referralCode","type":"uint16"}],"name":"Supply","type":"event"},{"anonymous":false,"inputs":[{"indexed":true,"internalType":"address","name":"reserve","type":"address"},{"indexed":true,"internalType":"address","name":"user","type":"address"},{"indexed":false,"internalType":"enum DataTypes.InterestRateMode","name":"interestRateMode","type":"uint8"}],"name":"SwapBorrowRateMode","type":"event"},{"anonymous":false,"inputs":[{"indexed":true,"internalType":"address","name":"user","type":"address"},{"indexed":false,"internalType":"uint8","name":"categoryId","type":"uint8"}],"name":"UserEModeSet","type":"event"},{"anonymous":false,"inputs":[{"indexed":true,"internalType":"address","name":"reserve","type":"address"},{"indexed":true,"internalType":"address","name":"user","type":"address"},{"indexed":true,"internalType":"address","name":"to","type":"address"},{"indexed":false,"internalType":"uint256","name":"amount","type":"uint256"}],"name":"Withdraw","type":"event"},{"inputs":[],"name":"ADDRESSES_PROVIDER","outputs":[{"internalType":"contract IPoolAddressesProvider","name":"","type":"address"}],"stateMutability":"view","type":"function"},{"inputs":[],"name":"BRIDGE_PROTOCOL_FEE","outputs":[{"internalType":"uint256","name":"","type":"uint256"}],"stateMutability":"view","type":"function"},{"inputs":[],"name":"FLASHLOAN_PREMIUM_TOTAL","outputs":[{"internalType":"uint128","name":"","type":"uint128"}],"stateMutability":"view","type":"function"},{"inputs":[],"name":"FLASHLOAN_PREMIUM_TO_PROTOCOL","outputs":[{"internalType":"uint128","name":"","type":"uint128"}],"stateMutability":"view","type":"function"},{"inputs":[],"name":"MAX_NUMBER_RESERVES","outputs":[{"internalType":"uint16","name":"","type":"uint16"}],"stateMutability":"view","type":"function"},{"inputs":[],"name":"MAX_STABLE_RATE_BORROW_SIZE_PERCENT","outputs":[{"internalType":"uint256","name":"","type":"uint256"}],"stateMutability":"view","type":"function"},{"inputs":[{"internalType":"address","name":"asset","type":"address"},{"internalType":"uint256","name":"amount","type":"uint256"},{"internalType":"uint256","name":"fee","type":"uint256"}],"name":"backUnbacked","outputs":[{"internalType":"uint256","name":"","type":"uint256"}],"stateMutability":"nonpayable","type":"function"},{"inputs":[{"internalType":"address","name":"asset","type":"address"},{"internalType":"uint256","name":"amount","type":"uint256"},{"internalType":"uint256","name":"interestRateMode","type":"uint256"},{"internalType":"uint16","name":"referralCode","type":"uint16"},{"internalType":"address","name":"onBehalfOf","type":"address"}],"name":"borrow","outputs":[],"stateMutability":"nonpayable","type":"function"},{"inputs":[{"internalType":"uint8","name":"id","type":"uint8"},{"components":[{"internalType":"uint16","name":"ltv","type":"uint16"},{"internalType":"uint16","name":"liquidationThreshold","type":"uint16"},{"internalType":"uint16","name":"liquidationBonus","type":"uint16"},{"internalType":"address","name":"priceSource","type":"address"},{"internalType":"string","name":"label","type":"string"}],"internalType":"struct DataTypes.EModeCategory","name":"config","type":"tuple"}],"name":"configureEModeCategory","outputs":[],"stateMutability":"nonpayable","type":"function"},{"inputs":[{"internalType":"address","name":"asset","type":"address"},{"internalType":"uint256","name":"amount","type":"uint256"},{"internalType":"address","name":"onBehalfOf","type":"address"},{"internalType":"uint16","name":"referralCode","type":"uint16"}],"name":"deposit","outputs":[],"stateMutability":"nonpayable","type":"function"},{"inputs":[{"internalType":"address","name":"asset","type":"address"}],"name":"dropReserve","outputs":[],"stateMutability":"nonpayable","type":"function"},{"inputs":[{"internalType":"address","name":"asset","type":"address"},{"internalType":"address","name":"from","type":"address"},{"internalType":"address","name":"to","type":"address"},{"internalType":"uint256","name":"amount","type":"uint256"},{"internalType":"uint256","name":"balanceFromBefore","type":"uint256"},{"internalType":"uint256","name":"balanceToBefore","type":"uint256"}],"name":"finalizeTransfer","outputs":[],"stateMutability":"nonpayable","type":"function"},{"inputs":[{"internalType":"address","name":"receiverAddress","type":"address"},{"internalType":"address[]","name":"assets","type":"address[]"},{"internalType":"uint256[]","name":"amounts","type":"uint256[]"},{"internalType":"uint256[]","name":"interestRateModes","type":"uint256[]"},{"internalType":"address","name":"onBehalfOf","type":"address"},{"internalType":"bytes","name":"params","type":"bytes"},{"internalType":"uint16","name":"referralCode","type":"uint16"}],"name":"flashLoan","outputs":[],"stateMutability":"nonpayable","type":"function"},{"inputs":[{"internalType":"address","name":"receiverAddress","type":"address"},{"internalType":"address","name":"asset","type":"address"},{"internalType":"uint256","name":"amount","type":"uint256"},{"internalType":"bytes","name":"params","type":"bytes"},{"internalType":"uint16","name":"referralCode","type":"uint16"}],"name":"flashLoanSimple","outputs":[],"stateMutability":"nonpayable","type":"function"},{"inputs":[{"internalType":"address","name":"asset","type":"address"}],"name":"getConfiguration","outputs":[{"components":[{"internalType":"uint256","name":"data","type":"uint256"}],"internalType":"struct DataTypes.ReserveConfigurationMap","name":"","type":"tuple"}],"stateMutability":"view","type":"function"},{"inputs":[{"internalType":"uint8","name":"id","type":"uint8"}],"name":"getEModeCategoryData","outputs":[{"components":[{"internalType":"uint16","name":"ltv","type":"uint16"},{"internalType":"uint16","name":"liquidationThreshold","type":"uint16"},{"internalType":"uint16","name":"liquidationBonus","type":"uint16"},{"internalType":"address","name":"priceSource","type":"address"},{"internalType":"string","name":"label","type":"string"}],"internalType":"struct DataTypes.EModeCategory","name":"","type":"tuple"}],"stateMutability":"view","type":"function"},{"inputs":[{"internalType":"uint16","name":"id","type":"uint16"}],"name":"getReserveAddressById","outputs":[{"internalType":"address","name":"","type":"address"}],"stateMutability":"view","type":"function"},{"inputs":[{"internalType":"address","name":"asset","type":"address"}],"name":"getReserveData","outputs":[{"components":[{"components":[{"internalType":"uint256","name":"data","type":"uint256"}],"internalType":"struct DataTypes.ReserveConfigurationMap","name":"configuration","type":"tuple"},{"internalType":"uint128","name":"liquidityIndex","type":"uint128"},{"internalType":"uint128","name":"currentLiquidityRate","type":"uint128"},{"internalType":"uint128","name":"variableBorrowIndex","type":"uint128"},{"internalType":"uint128","name":"currentVariableBorrowRate","type":"uint128"},{"internalType":"uint128","name":"currentStableBorrowRate","type":"uint128"},{"internalType":"uint40","name":"lastUpdateTimestamp","type":"uint40"},{"internalType":"uint16","name":"id","type":"uint16"},{"internalType":"address","name":"aTokenAddress","type":"address"},{"internalType":"address","name":"stableDebtTokenAddress","type":"address"},{"internalType":"address","name":"variableDebtTokenAddress","type":"address"},{"internalType":"address","name":"interestRateStrategyAddress","type":"address"},{"internalType":"uint128","name":"accruedToTreasury","type":"uint128"},{"internalType":"uint128","name":"unbacked","type":"uint128"},{"internalType":"uint128","name":"isolationModeTotalDebt","type":"uint128"}],"internalType":"struct DataTypes.ReserveData","name":"","type":"tuple"}],"stateMutability":"view","type":"function"},{"inputs":[{"internalType":"address","name":"asset","type":"address"}],"name":"getReserveNormalizedIncome","outputs":[{"internalType":"uint256","name":"","type":"uint256"}],"stateMutability":"view","type":"function"},{"inputs":[{"internalType":"address","name":"asset","type":"address"}],"name":"getReserveNormalizedVariableDebt","outputs":[{"internalType":"uint256","name":"","type":"uint256"}],"stateMutability":"view","type":"function"},{"inputs":[],"name":"getReservesList","outputs":[{"internalType":"address[]","name":"","type":"address[]"}],"stateMutability":"view","type":"function"},{"inputs":[{"internalType":"address","name":"user","type":"address"}],"name":"getUserAccountData","outputs":[{"internalType":"uint256","name":"","type":"uint256"},{"internalType":"uint256","name":"","type":"uint256"},{"internalType":"uint256","name":"","type":"uint256"},{"internalType":"uint256","name":"","type":"uint256"},{"internalType":"uint256","name":"","type":"uint256"},{"internalType":"uint256","name":"","type":"uint256"}],"stateMutability":"view","type":"function"},{"inputs":[{"internalType":"address","name":"user","type":"address"}],"name":"getUserConfiguration","outputs":[{"components":[{"internalType":"uint256","name":"data","type":"uint256"}],"internalType":"struct DataTypes.UserConfigurationMap","name":"","type":"tuple"}],"stateMutability":"view","type":"function"},{"inputs":[{"internalType":"address","name":"user","type":"address"}],"name":"getUserEMode","outputs":[{"internalType":"uint256","name":"","type":"uint256"}],"stateMutability":"view","type":"function"},{"inputs":[{"internalType":"address","name":"asset","type":"address"},{"internalType":"address","name":"aTokenAddress","type":"address"},{"internalType":"address","name":"stableDebtAddress","type":"address"},{"internalType":"address","name":"variableDebtAddress","type":"address"},{"internalType":"address","name":"interestRateStrategyAddress","type":"address"}],"name":"initReserve","outputs":[],"stateMutability":"nonpayable","type":"function"},{"inputs":[{"internalType":"address","name":"collateralAsset","type":"address"},{"internalType":"address","name":"debtAsset","type":"address"},{"internalType":"address","name":"user","type":"address"},{"internalType":"uint256","name":"debtToCover","type":"uint256"},{"internalType":"bool","name":"receiveAToken","type":"bool"}],"name":"liquidationCall","outputs":[],"stateMutability":"nonpayable","type":"function"},{"inputs":[{"internalType":"address[]","name":"assets","type":"address[]"}],"name":"mintToTreasury","outputs":[],"stateMutability":"nonpayable","type":"function"},{"inputs":[{"internalType":"address","name":"asset","type":"address"},{"internalType":"uint256","name":"amount","type":"uint256"},{"internalType":"address","name":"onBehalfOf","type":"address"},{"internalType":"uint16","name":"referralCode","type":"uint16"}],"name":"mintUnbacked","outputs":[],"stateMutability":"nonpayable","type":"function"},{"inputs":[{"internalType":"address","name":"asset","type":"address"},{"internalType":"address","name":"user","type":"address"}],"name":"rebalanceStableBorrowRate","outputs":[],"stateMutability":"nonpayable","type":"function"},{"inputs":[{"internalType":"address","name":"asset","type":"address"},{"internalType":"uint256","name":"amount","type":"uint256"},{"internalType":"uint256","name":"interestRateMode","type":"uint256"},{"internalType":"address","name":"onBehalfOf","type":"address"}],"name":"repay","outputs":[{"internalType":"uint256","name":"","type":"uint256"}],"stateMutability":"nonpayable","type":"function"},{"inputs":[{"internalType":"address","name":"asset","type":"address"},{"internalType":"uint256","name":"amount","type":"uint256"},{"internalType":"uint256","name":"interestRateMode","type":"uint256"}],"name":"repayWithATokens","outputs":[{"internalType":"uint256","name":"","type":"uint256"}],"stateMutability":"nonpayable","type":"function"},{"inputs":[{"internalType":"address","name":"asset","type":"address"},{"internalType":"uint256","name":"amount","type":"uint256"},{"internalType":"uint256","name":"interestRateMode","type":"uint256"},{"internalType":"address","name":"onBehalfOf","type":"address"},{"internalType":"uint256","name":"deadline","type":"uint256"},{"internalType":"uint8","name":"permitV","type":"uint8"},{"internalType":"bytes32","name":"permitR","type":"bytes32"},{"internalType":"bytes32","name":"permitS","type":"bytes32"}],"name":"repayWithPermit","outputs":[{"internalType":"uint256","name":"","type":"uint256"}],"stateMutability":"nonpayable","type":"function"},{"inputs":[{"internalType":"address","name":"token","type":"address"},{"internalType":"address","name":"to","type":"address"},{"internalType":"uint256","name":"amount","type":"uint256"}],"name":"rescueTokens","outputs":[],"stateMutability":"nonpayable","type":"function"},{"inputs":[{"internalType":"address","name":"asset","type":"address"}],"name":"resetIsolationModeTotalDebt","outputs":[],"stateMutability":"nonpayable","type":"function"},{"inputs":[{"internalType":"address","name":"asset","type":"address"},{"components":[{"internalType":"uint256","name":"data","type":"uint256"}],"internalType":"struct DataTypes.ReserveConfigurationMap","name":"configuration","type":"tuple"}],"name":"setConfiguration","outputs":[],"stateMutability":"nonpayable","type":"function"},{"inputs":[{"internalType":"address","name":"asset","type":"address"},{"internalType":"address","name":"rateStrategyAddress","type":"address"}],"name":"setReserveInterestRateStrategyAddress","outputs":[],"stateMutability":"nonpayable","type":"function"},{"inputs":[{"internalType":"uint8","name":"categoryId","type":"uint8"}],"name":"setUserEMode","outputs":[],"stateMutability":"nonpayable","type":"function"},{"inputs":[{"internalType":"address","name":"asset","type":"address"},{"internalType":"bool","name":"useAsCollateral","type":"bool"}],"name":"setUserUseReserveAsCollateral","outputs":[],"stateMutability":"nonpayable","type":"function"},{"inputs":[{"internalType":"address","name":"asset","type":"address"},{"internalType":"uint256","name":"amount","type":"uint256"},{"internalType":"address","name":"onBehalfOf","type":"address"},{"internalType":"uint16","name":"referralCode","type":"uint16"}],"name":"supply","outputs":[],"stateMutability":"nonpayable","type":"function"},{"inputs":[{"internalType":"address","name":"asset","type":"address"},{"internalType":"uint256","name":"amount","type":"uint256"},{"internalType":"address","name":"onBehalfOf","type":"address"},{"internalType":"uint16","name":"referralCode","type":"uint16"},{"internalType":"uint256","name":"deadline","type":"uint256"},{"internalType":"uint8","name":"permitV","type":"uint8"},{"internalType":"bytes32","name":"permitR","type":"bytes32"},{"internalType":"bytes32","name":"permitS","type":"bytes32"}],"name":"supplyWithPermit","outputs":[],"stateMutability":"nonpayable","type":"function"},{"inputs":[{"internalType":"address","name":"asset","type":"address"},{"internalType":"uint256","name":"interestRateMode","type":"uint256"}],"name":"swapBorrowRateMode","outputs":[],"stateMutability":"nonpayable","type":"function"},{"inputs":[{"internalType":"uint256","name":"bridgeProtocolFee","type":"uint256"}],"name":"updateBridgeProtocolFee","outputs":[],"stateMutability":"nonpayable","type":"function"},{"inputs":[{"internalType":"uint128","name":"flashLoanPremiumTotal","type":"uint128"},{"internalType":"uint128","name":"flashLoanPremiumToProtocol","type":"uint128"}],"name":"updateFlashloanPremiums","outputs":[],"stateMutability":"nonpayable","type":"function"},{"inputs":[{"internalType":"address","name":"asset","type":"address"},{"internalType":"uint256","name":"amount","type":"uint256"},{"internalType":"address","name":"to","type":"address"}],"name":"withdraw","outputs":[{"internalType":"uint256","name":"","type":"uint256"}],"stateMutability":"nonpayable","type":"function"}],"evm":{"bytecode":{"linkReferences":{},"object":"608060405234801561001057600080fd5b50612178806100206000396000f3fe608060405234801561001057600080fd5b50600436106102735760003560e01c80637a708e9211610151578063d1946dbc116100c3578063e82fec2f11610087578063e82fec2f1461079f578063e8eda9df146107bd578063eddf1b79146107d9578063ee3e210b14610809578063f51e435b14610839578063f8119d511461085557610273565b8063d1946dbc146106fd578063d579ea7d1461071b578063d5ed393314610737578063d65dc7a114610753578063e43e88a11461078357610273565b8063bcb6e52211610115578063bcb6e52214610614578063bf92857c14610630578063c44b11f714610665578063cd11238214610695578063cea9d26f146106b1578063d15e0053146106cd57610273565b80637a708e921461058857806394ba89a2146105a45780639cd19996146105c0578063a415bcad146105dc578063ab9c4b5d146105f857610273565b806342b0b77c116101ea578063617ba037116101ae578063617ba037146104b657806363c9b860146104d257806369328dec146104ee57806369a933a51461051e5780636a99c0361461053a5780636c6f6ae11461055857610273565b806342b0b77c146103ee5780634417a5831461040a578063527517971461043a578063573ade811461046a5780635a3b74b91461049a57610273565b8063272d90721161023c578063272d90721461030857806328530a47146103265780632dad97d4146103425780633036b4391461037257806335ea6a751461038e578063386497fd146103be57610273565b8062a718a91461027857806302c205f0146102945780630542975c146102b0578063074b2e43146102ce5780631d2118f9146102ec575b600080fd5b610292600480360381019061028d9190610e38565b610873565b005b6102ae60048036038101906102a99190610f5c565b61087a565b005b6102b8610884565b6040516102c59190611071565b60405180910390f35b6102d6610889565b6040516102e391906110b7565b60405180910390f35b610306600480360381019061030191906110d2565b61088e565b005b610310610892565b60405161031d9190611121565b60405180910390f35b610340600480360381019061033b919061113c565b610897565b005b61035c60048036038101906103579190611169565b61089a565b6040516103699190611121565b60405180910390f35b61038c600480360381019061038791906111bc565b6108a3565b005b6103a860048036038101906103a391906111e9565b6108a6565b6040516103b591906113c3565b60405180910390f35b6103d860048036038101906103d391906111e9565b6108bf565b6040516103e59190611121565b60405180910390f35b61040860048036038101906104039190611444565b6108c6565b005b610424600480360381019061041f91906111e9565b610a56565b60405161043191906114fa565b60405180910390f35b610454600480360381019061044f9190611515565b610a6f565b6040516104619190611551565b60405180910390f35b610484600480360381019061047f919061156c565b610a76565b6040516104919190611121565b60405180910390f35b6104b460048036038101906104af91906115d3565b610a80565b005b6104d060048036038101906104cb9190611613565b610a84565b005b6104ec60048036038101906104e791906111e9565b610a8a565b005b6105086004803603810190610503919061167a565b610a8d565b6040516105159190611121565b60405180910390f35b61053860048036038101906105339190611613565b610a96565b005b610542610a9c565b60405161054f91906110b7565b60405180910390f35b610572600480360381019061056d919061113c565b610aa1565b60405161057f91906117d3565b60405180910390f35b6105a2600480360381019061059d91906117f5565b610aba565b005b6105be60048036038101906105b99190611870565b610ac1565b005b6105da60048036038101906105d59190611906565b610ac5565b005b6105f660048036038101906105f19190611953565b610ac9565b005b610612600480360381019061060d9190611a24565b610ad0565b005b61062e60048036038101906106299190611b74565b610add565b005b61064a600480360381019061064591906111e9565b610ae1565b60405161065c96959493929190611bb4565b60405180910390f35b61067f600480360381019061067a91906111e9565b610b08565b60405161068c9190611c31565b60405180910390f35b6106af60048036038101906106aa91906110d2565b610b21565b005b6106cb60048036038101906106c69190611c4c565b610b25565b005b6106e760048036038101906106e291906111e9565b610b2a565b6040516106f49190611121565b60405180910390f35b610705610b31565b6040516107129190611d4e565b60405180910390f35b61073560048036038101906107309190611d94565b610b3b565b005b610751600480360381019061074c9190611df0565b610b3f565b005b61076d60048036038101906107689190611169565b610b47565b60405161077a9190611121565b60405180910390f35b61079d600480360381019061079891906111e9565b610b50565b005b6107a7610b53565b6040516107b49190611121565b60405180910390f35b6107d760048036038101906107d29190611613565b610b58565b005b6107f360048036038101906107ee91906111e9565b610b5e565b6040516108009190611121565b60405180910390f35b610823600480360381019061081e9190611e7d565b610b65565b6040516108309190611121565b60405180910390f35b610853600480360381019061084e9190611f52565b610b73565b005b61085d610b77565b60405161086a9190611fa1565b60405180910390f35b5050505050565b5050505050505050565b600090565b600090565b5050565b600090565b50565b60009392505050565b50565b6108ae610b7c565b6108b6610b7c565b80915050919050565b6000919050565b8473ffffffffffffffffffffffffffffffffffffffff1663a9059cbb87866040518363ffffffff1660e01b8152600401610901929190611fbc565b6020604051808303816000875af1158015610920573d6000803e3d6000fd5b505050506040513d601f19601f820116820180604052508101906109449190611ffa565b508573ffffffffffffffffffffffffffffffffffffffff16631b11d0ff868660003388886040518763ffffffff1660e01b8152600401610989969594939291906120af565b6020604051808303816000875af11580156109a8573d6000803e3d6000fd5b505050506040513d601f19601f820116820180604052508101906109cc9190611ffa565b508473ffffffffffffffffffffffffffffffffffffffff166323b872dd8730876040518463ffffffff1660e01b8152600401610a0a9392919061210b565b6020604051808303816000875af1158015610a29573d6000803e3d6000fd5b505050506040513d601f19601f82011682018060405250810190610a4d9190611ffa565b50505050505050565b610a5e610ceb565b610a66610ceb565b80915050919050565b6000919050565b6000949350505050565b5050565b50505050565b50565b60009392505050565b50505050565b600090565b610aa9610cfe565b610ab1610cfe565b80915050919050565b5050505050565b5050565b5050565b5050505050565b5050505050505050505050565b5050565b60008060008060008060008060008060008095509550955095509550955091939550919395565b610b10610d4f565b610b18610d4f565b80915050919050565b5050565b505050565b6000919050565b6060808091505090565b5050565b505050505050565b60009392505050565b50565b600090565b50505050565b6000919050565b600098975050505050505050565b5050565b600090565b604051806101e00160405280610b90610d4f565b815260200160006fffffffffffffffffffffffffffffffff16815260200160006fffffffffffffffffffffffffffffffff16815260200160006fffffffffffffffffffffffffffffffff16815260200160006fffffffffffffffffffffffffffffffff16815260200160006fffffffffffffffffffffffffffffffff168152602001600064ffffffffff168152602001600061ffff168152602001600073ffffffffffffffffffffffffffffffffffffffff168152602001600073ffffffffffffffffffffffffffffffffffffffff168152602001600073ffffffffffffffffffffffffffffffffffffffff168152602001600073ffffffffffffffffffffffffffffffffffffffff16815260200160006fffffffffffffffffffffffffffffffff16815260200160006fffffffffffffffffffffffffffffffff16815260200160006fffffffffffffffffffffffffffffffff1681525090565b6040518060200160405280600081525090565b6040518060a00160405280600061ffff168152602001600061ffff168152602001600061ffff168152602001600073ffffffffffffffffffffffffffffffffffffffff168152602001606081525090565b6040518060200160405280600081525090565b600080fd5b600080fd5b600073ffffffffffffffffffffffffffffffffffffffff82169050919050565b6000610d9782610d6c565b9050919050565b610da781610d8c565b8114610db257600080fd5b50565b600081359050610dc481610d9e565b92915050565b6000819050919050565b610ddd81610dca565b8114610de857600080fd5b50565b600081359050610dfa81610dd4565b92915050565b60008115159050919050565b610e1581610e00565b8114610e2057600080fd5b50565b600081359050610e3281610e0c565b92915050565b600080600080600060a08688031215610e5457610e53610d62565b5b6000610e6288828901610db5565b9550506020610e7388828901610db5565b9450506040610e8488828901610db5565b9350506060610e9588828901610deb565b9250506080610ea688828901610e23565b9150509295509295909350565b600061ffff82169050919050565b610eca81610eb3565b8114610ed557600080fd5b50565b600081359050610ee781610ec1565b92915050565b600060ff82169050919050565b610f0381610eed565b8114610f0e57600080fd5b50565b600081359050610f2081610efa565b92915050565b6000819050919050565b610f3981610f26565b8114610f4457600080fd5b50565b600081359050610f5681610f30565b92915050565b600080600080600080600080610100898b031215610f7d57610f7c610d62565b5b6000610f8b8b828c01610db5565b9850506020610f9c8b828c01610deb565b9750506040610fad8b828c01610db5565b9650506060610fbe8b828c01610ed8565b9550506080610fcf8b828c01610deb565b94505060a0610fe08b828c01610f11565b93505060c0610ff18b828c01610f47565b92505060e06110028b828c01610f47565b9150509295985092959890939650565b6000819050919050565b600061103761103261102d84610d6c565b611012565b610d6c565b9050919050565b60006110498261101c565b9050919050565b600061105b8261103e565b9050919050565b61106b81611050565b82525050565b60006020820190506110866000830184611062565b92915050565b60006fffffffffffffffffffffffffffffffff82169050919050565b6110b18161108c565b82525050565b60006020820190506110cc60008301846110a8565b92915050565b600080604083850312156110e9576110e8610d62565b5b60006110f785828601610db5565b925050602061110885828601610db5565b9150509250929050565b61111b81610dca565b82525050565b60006020820190506111366000830184611112565b92915050565b60006020828403121561115257611151610d62565b5b600061116084828501610f11565b91505092915050565b60008060006060848603121561118257611181610d62565b5b600061119086828701610db5565b93505060206111a186828701610deb565b92505060406111b286828701610deb565b9150509250925092565b6000602082840312156111d2576111d1610d62565b5b60006111e084828501610deb565b91505092915050565b6000602082840312156111ff576111fe610d62565b5b600061120d84828501610db5565b91505092915050565b61121f81610dca565b82525050565b60208201600082015161123b6000850182611216565b50505050565b61124a8161108c565b82525050565b600064ffffffffff82169050919050565b61126a81611250565b82525050565b61127981610eb3565b82525050565b61128881610d8c565b82525050565b6101e0820160008201516112a56000850182611225565b5060208201516112b86020850182611241565b5060408201516112cb6040850182611241565b5060608201516112de6060850182611241565b5060808201516112f16080850182611241565b5060a082015161130460a0850182611241565b5060c082015161131760c0850182611261565b5060e082015161132a60e0850182611270565b5061010082015161133f61010085018261127f565b5061012082015161135461012085018261127f565b5061014082015161136961014085018261127f565b5061016082015161137e61016085018261127f565b50610180820151611393610180850182611241565b506101a08201516113a86101a0850182611241565b506101c08201516113bd6101c0850182611241565b50505050565b60006101e0820190506113d9600083018461128e565b92915050565b600080fd5b600080fd5b600080fd5b60008083601f840112611404576114036113df565b5b8235905067ffffffffffffffff811115611421576114206113e4565b5b60208301915083600182028301111561143d5761143c6113e9565b5b9250929050565b60008060008060008060a0878903121561146157611460610d62565b5b600061146f89828a01610db5565b965050602061148089828a01610db5565b955050604061149189828a01610deb565b945050606087013567ffffffffffffffff8111156114b2576114b1610d67565b5b6114be89828a016113ee565b935093505060806114d189828a01610ed8565b9150509295509295509295565b6020820160008201516114f46000850182611216565b50505050565b600060208201905061150f60008301846114de565b92915050565b60006020828403121561152b5761152a610d62565b5b600061153984828501610ed8565b91505092915050565b61154b81610d8c565b82525050565b60006020820190506115666000830184611542565b92915050565b6000806000806080858703121561158657611585610d62565b5b600061159487828801610db5565b94505060206115a587828801610deb565b93505060406115b687828801610deb565b92505060606115c787828801610db5565b91505092959194509250565b600080604083850312156115ea576115e9610d62565b5b60006115f885828601610db5565b925050602061160985828601610e23565b9150509250929050565b6000806000806080858703121561162d5761162c610d62565b5b600061163b87828801610db5565b945050602061164c87828801610deb565b935050604061165d87828801610db5565b925050606061166e87828801610ed8565b91505092959194509250565b60008060006060848603121561169357611692610d62565b5b60006116a186828701610db5565b93505060206116b286828701610deb565b92505060406116c386828701610db5565b9150509250925092565b600081519050919050565b600082825260208201905092915050565b60005b838110156117075780820151818401526020810190506116ec565b60008484015250505050565b6000601f19601f8301169050919050565b600061172f826116cd565b61173981856116d8565b93506117498185602086016116e9565b61175281611713565b840191505092915050565b600060a0830160008301516117756000860182611270565b5060208301516117886020860182611270565b50604083015161179b6040860182611270565b5060608301516117ae606086018261127f565b50608083015184820360808601526117c68282611724565b9150508091505092915050565b600060208201905081810360008301526117ed818461175d565b905092915050565b600080600080600060a0868803121561181157611810610d62565b5b600061181f88828901610db5565b955050602061183088828901610db5565b945050604061184188828901610db5565b935050606061185288828901610db5565b925050608061186388828901610db5565b9150509295509295909350565b6000806040838503121561188757611886610d62565b5b600061189585828601610db5565b92505060206118a685828601610deb565b9150509250929050565b60008083601f8401126118c6576118c56113df565b5b8235905067ffffffffffffffff8111156118e3576118e26113e4565b5b6020830191508360208202830111156118ff576118fe6113e9565b5b9250929050565b6000806020838503121561191d5761191c610d62565b5b600083013567ffffffffffffffff81111561193b5761193a610d67565b5b611947858286016118b0565b92509250509250929050565b600080600080600060a0868803121561196f5761196e610d62565b5b600061197d88828901610db5565b955050602061198e88828901610deb565b945050604061199f88828901610deb565b93505060606119b088828901610ed8565b92505060806119c188828901610db5565b9150509295509295909350565b60008083601f8401126119e4576119e36113df565b5b8235905067ffffffffffffffff811115611a0157611a006113e4565b5b602083019150836020820283011115611a1d57611a1c6113e9565b5b9250929050565b600080600080600080600080600080600060e08c8e031215611a4957611a48610d62565b5b6000611a578e828f01610db5565b9b505060208c013567ffffffffffffffff811115611a7857611a77610d67565b5b611a848e828f016118b0565b9a509a505060408c013567ffffffffffffffff811115611aa757611aa6610d67565b5b611ab38e828f016119ce565b985098505060608c013567ffffffffffffffff811115611ad657611ad5610d67565b5b611ae28e828f016119ce565b96509650506080611af58e828f01610db5565b94505060a08c013567ffffffffffffffff811115611b1657611b15610d67565b5b611b228e828f016113ee565b935093505060c0611b358e828f01610ed8565b9150509295989b509295989b9093969950565b611b518161108c565b8114611b5c57600080fd5b50565b600081359050611b6e81611b48565b92915050565b60008060408385031215611b8b57611b8a610d62565b5b6000611b9985828601611b5f565b9250506020611baa85828601611b5f565b9150509250929050565b600060c082019050611bc96000830189611112565b611bd66020830188611112565b611be36040830187611112565b611bf06060830186611112565b611bfd6080830185611112565b611c0a60a0830184611112565b979650505050505050565b602082016000820151611c2b6000850182611216565b50505050565b6000602082019050611c466000830184611c15565b92915050565b600080600060608486031215611c6557611c64610d62565b5b6000611c7386828701610db5565b9350506020611c8486828701610db5565b9250506040611c9586828701610deb565b9150509250925092565b600081519050919050565b600082825260208201905092915050565b6000819050602082019050919050565b6000611cd7838361127f565b60208301905092915050565b6000602082019050919050565b6000611cfb82611c9f565b611d058185611caa565b9350611d1083611cbb565b8060005b83811015611d41578151611d288882611ccb565b9750611d3383611ce3565b925050600181019050611d14565b5085935050505092915050565b60006020820190508181036000830152611d688184611cf0565b905092915050565b600080fd5b600060a08284031215611d8b57611d8a611d70565b5b81905092915050565b60008060408385031215611dab57611daa610d62565b5b6000611db985828601610f11565b925050602083013567ffffffffffffffff811115611dda57611dd9610d67565b5b611de685828601611d75565b9150509250929050565b60008060008060008060c08789031215611e0d57611e0c610d62565b5b6000611e1b89828a01610db5565b9650506020611e2c89828a01610db5565b9550506040611e3d89828a01610db5565b9450506060611e4e89828a01610deb565b9350506080611e5f89828a01610deb565b92505060a0611e7089828a01610deb565b9150509295509295509295565b600080600080600080600080610100898b031215611e9e57611e9d610d62565b5b6000611eac8b828c01610db5565b9850506020611ebd8b828c01610deb565b9750506040611ece8b828c01610deb565b9650506060611edf8b828c01610db5565b9550506080611ef08b828c01610deb565b94505060a0611f018b828c01610f11565b93505060c0611f128b828c01610f47565b92505060e0611f238b828c01610f47565b9150509295985092959890939650565b600060208284031215611f4957611f48611d70565b5b81905092915050565b60008060408385031215611f6957611f68610d62565b5b6000611f7785828601610db5565b9250506020611f8885828601611f33565b9150509250929050565b611f9b81610eb3565b82525050565b6000602082019050611fb66000830184611f92565b92915050565b6000604082019050611fd16000830185611542565b611fde6020830184611112565b9392505050565b600081519050611ff481610e0c565b92915050565b6000602082840312156120105761200f610d62565b5b600061201e84828501611fe5565b91505092915050565b6000819050919050565b600061204c61204761204284612027565b611012565b610dca565b9050919050565b61205c81612031565b82525050565b600082825260208201905092915050565b82818337600083830152505050565b600061208e8385612062565b935061209b838584612073565b6120a483611713565b840190509392505050565b600060a0820190506120c46000830189611542565b6120d16020830188611112565b6120de6040830187612053565b6120eb6060830186611542565b81810360808301526120fe818486612082565b9050979650505050505050565b60006060820190506121206000830186611542565b61212d6020830185611542565b61213a6040830184611112565b94935050505056fea264697066735822122093ae389e5addae8cfe338fed4fca8a6832bd3c5ba7e1599633fc2e6b1efc1eba64736f6c63430008140033","opcodes":"PUSH1 0x80 PUSH1 0x40 MSTORE CALLVALUE DUP1 ISZERO PUSH2 0x10 JUMPI PUSH1 0x0 DUP1 REVERT JUMPDEST POP PUSH2 0x2178 DUP1 PUSH2 0x20 PUSH1 0x0 CODECOPY PUSH1 0x0 RETURN INVALID PUSH1 0x80 PUSH1 0x40 MSTORE CALLVALUE DUP1 ISZERO PUSH2 0x10 JUMPI PUSH1 0x0 DUP1 REVERT JUMPDEST POP PUSH1 0x4 CALLDATASIZE LT PUSH2 0x273 JUMPI PUSH1 0x0 CALLDATALOAD PUSH1 0xE0 SHR DUP1 PUSH4 0x7A708E92 GT PUSH2 0x151 JUMPI DUP1 PUSH4 0xD1946DBC GT PUSH2 0xC3 JUMPI DUP1 PUSH4 0xE82FEC2F GT PUSH2 0x87 JUMPI DUP1 PUSH4 0xE82FEC2F EQ PUSH2 0x79F JUMPI DUP1 PUSH4 0xE8EDA9DF EQ PUSH2 0x7BD JUMPI DUP1 PUSH4 0xEDDF1B79 EQ PUSH2 0x7D9 JUMPI DUP1 PUSH4 0xEE3E210B EQ PUSH2 0x809 JUMPI DUP1 PUSH4 0xF51E435B EQ PUSH2 0x839 JUMPI DUP1 PUSH4 0xF8119D51 EQ PUSH2 0x855 JUMPI PUSH2 0x273 JUMP JUMPDEST DUP1 PUSH4 0xD1946DBC EQ PUSH2 0x6FD JUMPI DUP1 PUSH4 0xD579EA7D EQ PUSH2 0x71B JUMPI DUP1 PUSH4 0xD5ED3933 EQ PUSH2 0x737 JUMPI DUP1 PUSH4 0xD65DC7A1 EQ PUSH2 0x753 JUMPI DUP1 PUSH4 0xE43E88A1 EQ PUSH2 0x783 JUMPI PUSH2 0x273 JUMP JUMPDEST DUP1 PUSH4 0xBCB6E522 GT PUSH2 0x115 JUMPI DUP1 PUSH4 0xBCB6E522 EQ PUSH2 0x614 JUMPI DUP1 PUSH4 0xBF92857C EQ PUSH2 0x630 JUMPI DUP1 PUSH4 0xC44B11F7 EQ PUSH2 0x665 JUMPI DUP1 PUSH4 0xCD112382 EQ PUSH2 0x695 JUMPI DUP1 PUSH4 0xCEA9D26F EQ PUSH2 0x6B1 JUMPI DUP1 PUSH4 0xD15E0053 EQ PUSH2 0x6CD JUMPI PUSH2 0x273 JUMP JUMPDEST DUP1 PUSH4 0x7A708E92 EQ PUSH2 0x588 JUMPI DUP1 PUSH4 0x94BA89A2 EQ PUSH2 0x5A4 JUMPI DUP1 PUSH4 0x9CD19996 EQ PUSH2 0x5C0 JUMPI DUP1 PUSH4 0xA415BCAD EQ PUSH2 0x5DC JUMPI DUP1 PUSH4 0xAB9C4B5D EQ PUSH2 0x5F8 JUMPI PUSH2 0x273 JUMP JUMPDEST DUP1 PUSH4 0x42B0B77C GT PUSH2 0x1EA JUMPI DUP1 PUSH4 0x617BA037 GT PUSH2 0x1AE JUMPI DUP1 PUSH4 0x617BA037 EQ PUSH2 0x4B6 JUMPI DUP1 PUSH4 0x63C9B860 EQ PUSH2 0x4D2 JUMPI DUP1 PUSH4 0x69328DEC EQ PUSH2 0x4EE JUMPI DUP1 PUSH4 0x69A933A5 EQ PUSH2 0x51E JUMPI DUP1 PUSH4 0x6A99C036 EQ PUSH2 0x53A JUMPI DUP1 PUSH4 0x6C6F6AE1 EQ PUSH2 0x558 JUMPI PUSH2 0x273 JUMP JUMPDEST DUP1 PUSH4 0x42B0B77C EQ PUSH2 0x3EE JUMPI DUP1 PUSH4 0x4417A583 EQ PUSH2 0x40A JUMPI DUP1 PUSH4 0x52751797 EQ PUSH2 0x43A JUMPI DUP1 PUSH4 0x573ADE81 EQ PUSH2 0x46A JUMPI DUP1 PUSH4 0x5A3B74B9 EQ PUSH2 0x49A JUMPI PUSH2 0x273 JUMP JUMPDEST DUP1 PUSH4 0x272D9072 GT PUSH2 0x23C JUMPI DUP1 PUSH4 0x272D9072 EQ PUSH2 0x308 JUMPI DUP1 PUSH4 0x28530A47 EQ PUSH2 0x326 JUMPI DUP1 PUSH4 0x2DAD97D4 EQ PUSH2 0x342 JUMPI DUP1 PUSH4 0x3036B439 EQ PUSH2 0x372 JUMPI DUP1 PUSH4 0x35EA6A75 EQ PUSH2 0x38E JUMPI DUP1 PUSH4 0x386497FD EQ PUSH2 0x3BE JUMPI PUSH2 0x273 JUMP JUMPDEST DUP1 PUSH3 0xA718A9 EQ PUSH2 0x278 JUMPI DUP1 PUSH4 0x2C205F0 EQ PUSH2 0x294 JUMPI DUP1 PUSH4 0x542975C EQ PUSH2 0x2B0 JUMPI DUP1 PUSH4 0x74B2E43 EQ PUSH2 0x2CE JUMPI DUP1 PUSH4 0x1D2118F9 EQ PUSH2 0x2EC JUMPI JUMPDEST PUSH1 0x0 DUP1 REVERT JUMPDEST PUSH2 0x292 PUSH1 0x4 DUP1 CALLDATASIZE SUB DUP2 ADD SWAP1 PUSH2 0x28D SWAP2 SWAP1 PUSH2 0xE38 JUMP JUMPDEST PUSH2 0x873 JUMP JUMPDEST STOP JUMPDEST PUSH2 0x2AE PUSH1 0x4 DUP1 CALLDATASIZE SUB DUP2 ADD SWAP1 PUSH2 0x2A9 SWAP2 SWAP1 PUSH2 0xF5C JUMP JUMPDEST PUSH2 0x87A JUMP JUMPDEST STOP JUMPDEST PUSH2 0x2B8 PUSH2 0x884 JUMP JUMPDEST PUSH1 0x40 MLOAD PUSH2 0x2C5 SWAP2 SWAP1 PUSH2 0x1071 JUMP JUMPDEST PUSH1 0x40 MLOAD DUP1 SWAP2 SUB SWAP1 RETURN JUMPDEST PUSH2 0x2D6 PUSH2 0x889 JUMP JUMPDEST PUSH1 0x40 MLOAD PUSH2 0x2E3 SWAP2 SWAP1 PUSH2 0x10B7 JUMP JUMPDEST PUSH1 0x40 MLOAD DUP1 SWAP2 SUB SWAP1 RETURN JUMPDEST PUSH2 0x306 PUSH1 0x4 DUP1 CALLDATASIZE SUB DUP2 ADD SWAP1 PUSH2 0x301 SWAP2 SWAP1 PUSH2 0x10D2 JUMP JUMPDEST PUSH2 0x88E JUMP JUMPDEST STOP JUMPDEST PUSH2 0x310 PUSH2 0x892 JUMP JUMPDEST PUSH1 0x40 MLOAD PUSH2 0x31D SWAP2 SWAP1 PUSH2 0x1121 JUMP JUMPDEST PUSH1 0x40 MLOAD DUP1 SWAP2 SUB SWAP1 RETURN JUMPDEST PUSH2 0x340 PUSH1 0x4 DUP1 CALLDATASIZE SUB DUP2 ADD SWAP1 PUSH2 0x33B SWAP2 SWAP1 PUSH2 0x113C JUMP JUMPDEST PUSH2 0x897 JUMP JUMPDEST STOP JUMPDEST PUSH2 0x35C PUSH1 0x4 DUP1 CALLDATASIZE SUB DUP2 ADD SWAP1 PUSH2 0x357 SWAP2 SWAP1 PUSH2 0x1169 JUMP JUMPDEST PUSH2 0x89A JUMP JUMPDEST PUSH1 0x40 MLOAD PUSH2 0x369 SWAP2 SWAP1 PUSH2 0x1121 JUMP JUMPDEST PUSH1 0x40 MLOAD DUP1 SWAP2 SUB SWAP1 RETURN JUMPDEST PUSH2 0x38C PUSH1 0x4 DUP1 CALLDATASIZE SUB DUP2 ADD SWAP1 PUSH2 0x387 SWAP2 SWAP1 PUSH2 0x11BC JUMP JUMPDEST PUSH2 0x8A3 JUMP JUMPDEST STOP JUMPDEST PUSH2 0x3A8 PUSH1 0x4 DUP1 CALLDATASIZE SUB DUP2 ADD SWAP1 PUSH2 0x3A3 SWAP2 SWAP1 PUSH2 0x11E9 JUMP JUMPDEST PUSH2 0x8A6 JUMP JUMPDEST PUSH1 0x40 MLOAD PUSH2 0x3B5 SWAP2 SWAP1 PUSH2 0x13C3 JUMP JUMPDEST PUSH1 0x40 MLOAD DUP1 SWAP2 SUB SWAP1 RETURN JUMPDEST PUSH2 0x3D8 PUSH1 0x4 DUP1 CALLDATASIZE SUB DUP2 ADD SWAP1 PUSH2 0x3D3 SWAP2 SWAP1 PUSH2 0x11E9 JUMP JUMPDEST PUSH2 0x8BF JUMP JUMPDEST PUSH1 0x40 MLOAD PUSH2 0x3E5 SWAP2 SWAP1 PUSH2 0x1121 JUMP JUMPDEST PUSH1 0x40 MLOAD DUP1 SWAP2 SUB SWAP1 RETURN JUMPDEST PUSH2 0x408 PUSH1 0x4 DUP1 CALLDATASIZE SUB DUP2 ADD SWAP1 PUSH2 0x403 SWAP2 SWAP1 PUSH2 0x1444 JUMP JUMPDEST PUSH2 0x8C6 JUMP JUMPDEST STOP JUMPDEST PUSH2 0x424 PUSH1 0x4 DUP1 CALLDATASIZE SUB DUP2 ADD SWAP1 PUSH2 0x41F SWAP2 SWAP1 PUSH2 0x11E9 JUMP JUMPDEST PUSH2 0xA56 JUMP JUMPDEST PUSH1 0x40 MLOAD PUSH2 0x431 SWAP2 SWAP1 PUSH2 0x14FA JUMP JUMPDEST PUSH1 0x40 MLOAD DUP1 SWAP2 SUB SWAP1 RETURN JUMPDEST PUSH2 0x454 PUSH1 0x4 DUP1 CALLDATASIZE SUB DUP2 ADD SWAP1 PUSH2 0x44F SWAP2 SWAP1 PUSH2 0x1515 JUMP JUMPDEST PUSH2 0xA6F JUMP JUMPDEST PUSH1 0x40 MLOAD PUSH2 0x461 SWAP2 SWAP1 PUSH2 0x1551 JUMP JUMPDEST PUSH1 0x40 MLOAD DUP1 SWAP2 SUB SWAP1 RETURN JUMPDEST PUSH2 0x484 PUSH1 0x4 DUP1 CALLDATASIZE SUB DUP2 ADD SWAP1 PUSH2 0x47F SWAP2 SWAP1 PUSH2 0x156C JUMP JUMPDEST PUSH2 0xA76 JUMP JUMPDEST PUSH1 0x40 MLOAD PUSH2 0x491 SWAP2 SWAP1 PUSH2 0x1121 JUMP JUMPDEST PUSH1 0x40 MLOAD DUP1 SWAP2 SUB SWAP1 RETURN JUMPDEST PUSH2 0x4B4 PUSH1 0x4 DUP1 CALLDATASIZE SUB DUP2 ADD SWAP1 PUSH2 0x4AF SWAP2 SWAP1 PUSH2 0x15D3 JUMP JUMPDEST PUSH2 0xA80 JUMP JUMPDEST STOP JUMPDEST PUSH2 0x4D0 PUSH1 0x4 DUP1 CALLDATASIZE SUB DUP2 ADD SWAP1 PUSH2 0x4CB SWAP2 SWAP1 PUSH2 0x1613 JUMP JUMPDEST PUSH2 0xA84 JUMP JUMPDEST STOP JUMPDEST PUSH2 0x4EC PUSH1 0x4 DUP1 CALLDATASIZE SUB DUP2 ADD SWAP1 PUSH2 0x4E7 SWAP2 SWAP1 PUSH2 0x11E9 JUMP JUMPDEST PUSH2 0xA8A JUMP JUMPDEST STOP JUMPDEST PUSH2 0x508 PUSH1 0x4 DUP1 CALLDATASIZE SUB DUP2 ADD SWAP1 PUSH2 0x503 SWAP2 SWAP1 PUSH2 0x167A JUMP JUMPDEST PUSH2 0xA8D JUMP JUMPDEST PUSH1 0x40 MLOAD PUSH2 0x515 SWAP2 SWAP1 PUSH2 0x1121 JUMP JUMPDEST PUSH1 0x40 MLOAD DUP1 SWAP2 SUB SWAP1 RETURN JUMPDEST PUSH2 0x538 PUSH1 0x4 DUP1 CALLDATASIZE SUB DUP2 ADD SWAP1 PUSH2 0x533 SWAP2 SWAP1 PUSH2 0x1613 JUMP JUMPDEST PUSH2 0xA96 JUMP JUMPDEST STOP JUMPDEST PUSH2 0x542 PUSH2 0xA9C JUMP JUMPDEST PUSH1 0x40 MLOAD PUSH2 0x54F SWAP2 SWAP1 PUSH2 0x10B7 JUMP JUMPDEST PUSH1 0x40 MLOAD DUP1 SWAP2 SUB SWAP1 RETURN JUMPDEST PUSH2 0x572 PUSH1 0x4 DUP1 CALLDATASIZE SUB DUP2 ADD SWAP1 PUSH2 0x56D SWAP2 SWAP1 PUSH2 0x113C JUMP JUMPDEST PUSH2 0xAA1 JUMP JUMPDEST PUSH1 0x40 MLOAD PUSH2 0x57F SWAP2 SWAP1 PUSH2 0x17D3 JUMP JUMPDEST PUSH1 0x40 MLOAD DUP1 SWAP2 SUB SWAP1 RETURN JUMPDEST PUSH2 0x5A2 PUSH1 0x4 DUP1 CALLDATASIZE SUB DUP2 ADD SWAP1 PUSH2 0x59D SWAP2 SWAP1 PUSH2 0x17F5 JUMP JUMPDEST PUSH2 0xABA JUMP JUMPDEST STOP JUMPDEST PUSH2 0x5BE PUSH1 0x4 DUP1 CALLDATASIZE SUB DUP2 ADD SWAP1 PUSH2 0x5B9 SWAP2 SWAP1 PUSH2 0x1870 JUMP JUMPDEST PUSH2 0xAC1 JUMP JUMPDEST STOP JUMPDEST PUSH2 0x5DA PUSH1 0x4 DUP1 CALLDATASIZE SUB DUP2 ADD SWAP1 PUSH2 0x5D5 SWAP2 SWAP1 PUSH2 0x1906 JUMP JUMPDEST PUSH2 0xAC5 JUMP JUMPDEST STOP JUMPDEST PUSH2 0x5F6 PUSH1 0x4 DUP1 CALLDATASIZE SUB DUP2 ADD SWAP1 PUSH2 0x5F1 SWAP2 SWAP1 PUSH2 0x1953 JUMP JUMPDEST PUSH2 0xAC9 JUMP JUMPDEST STOP JUMPDEST PUSH2 0x612 PUSH1 0x4 DUP1 CALLDATASIZE SUB DUP2 ADD SWAP1 PUSH2 0x60D SWAP2 SWAP1 PUSH2 0x1A24 JUMP JUMPDEST PUSH2 0xAD0 JUMP JUMPDEST STOP JUMPDEST PUSH2 0x62E PUSH1 0x4 DUP1 CALLDATASIZE SUB DUP2 ADD SWAP1 PUSH2 0x629 SWAP2 SWAP1 PUSH2 0x1B74 JUMP JUMPDEST PUSH2 0xADD JUMP JUMPDEST STOP JUMPDEST PUSH2 0x64A PUSH1 0x4 DUP1 CALLDATASIZE SUB DUP2 ADD SWAP1 PUSH2 0x645 SWAP2 SWAP1 PUSH2 0x11E9 JUMP JUMPDEST PUSH2 0xAE1 JUMP JUMPDEST PUSH1 0x40 MLOAD PUSH2 0x65C SWAP7 SWAP6 SWAP5 SWAP4 SWAP3 SWAP2 SWAP1 PUSH2 0x1BB4 JUMP JUMPDEST PUSH1 0x40 MLOAD DUP1 SWAP2 SUB SWAP1 RETURN JUMPDEST PUSH2 0x67F PUSH1 0x4 DUP1 CALLDATASIZE SUB DUP2 ADD SWAP1 PUSH2 0x67A SWAP2 SWAP1 PUSH2 0x11E9 JUMP JUMPDEST PUSH2 0xB08 JUMP JUMPDEST PUSH1 0x40 MLOAD PUSH2 0x68C SWAP2 SWAP1 PUSH2 0x1C31 JUMP JUMPDEST PUSH1 0x40 MLOAD DUP1 SWAP2 SUB SWAP1 RETURN JUMPDEST PUSH2 0x6AF PUSH1 0x4 DUP1 CALLDATASIZE SUB DUP2 ADD SWAP1 PUSH2 0x6AA SWAP2 SWAP1 PUSH2 0x10D2 JUMP JUMPDEST PUSH2 0xB21 JUMP JUMPDEST STOP JUMPDEST PUSH2 0x6CB PUSH1 0x4 DUP1 CALLDATASIZE SUB DUP2 ADD SWAP1 PUSH2 0x6C6 SWAP2 SWAP1 PUSH2 0x1C4C JUMP JUMPDEST PUSH2 0xB25 JUMP JUMPDEST STOP JUMPDEST PUSH2 0x6E7 PUSH1 0x4 DUP1 CALLDATASIZE SUB DUP2 ADD SWAP1 PUSH2 0x6E2 SWAP2 SWAP1 PUSH2 0x11E9 JUMP JUMPDEST PUSH2 0xB2A JUMP JUMPDEST PUSH1 0x40 MLOAD PUSH2 0x6F4 SWAP2 SWAP1 PUSH2 0x1121 JUMP JUMPDEST PUSH1 0x40 MLOAD DUP1 SWAP2 SUB SWAP1 RETURN JUMPDEST PUSH2 0x705 PUSH2 0xB31 JUMP JUMPDEST PUSH1 0x40 MLOAD PUSH2 0x712 SWAP2 SWAP1 PUSH2 0x1D4E JUMP JUMPDEST PUSH1 0x40 MLOAD DUP1 SWAP2 SUB SWAP1 RETURN JUMPDEST PUSH2 0x735 PUSH1 0x4 DUP1 CALLDATASIZE SUB DUP2 ADD SWAP1 PUSH2 0x730 SWAP2 SWAP1 PUSH2 0x1D94 JUMP JUMPDEST PUSH2 0xB3B JUMP JUMPDEST STOP JUMPDEST PUSH2 0x751 PUSH1 0x4 DUP1 CALLDATASIZE SUB DUP2 ADD SWAP1 PUSH2 0x74C SWAP2 SWAP1 PUSH2 0x1DF0 JUMP JUMPDEST PUSH2 0xB3F JUMP JUMPDEST STOP JUMPDEST PUSH2 0x76D PUSH1 0x4 DUP1 CALLDATASIZE SUB DUP2 ADD SWAP1 PUSH2 0x768 SWAP2 SWAP1 PUSH2 0x1169 JUMP JUMPDEST PUSH2 0xB47 JUMP JUMPDEST PUSH1 0x40 MLOAD PUSH2 0x77A SWAP2 SWAP1 PUSH2 0x1121 JUMP JUMPDEST PUSH1 0x40 MLOAD DUP1 SWAP2 SUB SWAP1 RETURN JUMPDEST PUSH2 0x79D PUSH1 0x4 DUP1 CALLDATASIZE SUB DUP2 ADD SWAP1 PUSH2 0x798 SWAP2 SWAP1 PUSH2 0x11E9 JUMP JUMPDEST PUSH2 0xB50 JUMP JUMPDEST STOP JUMPDEST PUSH2 0x7A7 PUSH2 0xB53 JUMP JUMPDEST PUSH1 0x40 MLOAD PUSH2 0x7B4 SWAP2 SWAP1 PUSH2 0x1121 JUMP JUMPDEST PUSH1 0x40 MLOAD DUP1 SWAP2 SUB SWAP1 RETURN JUMPDEST PUSH2 0x7D7 PUSH1 0x4 DUP1 CALLDATASIZE SUB DUP2 ADD SWAP1 PUSH2 0x7D2 SWAP2 SWAP1 PUSH2 0x1613 JUMP JUMPDEST PUSH2 0xB58 JUMP JUMPDEST STOP JUMPDEST PUSH2 0x7F3 PUSH1 0x4 DUP1 CALLDATASIZE SUB DUP2 ADD SWAP1 PUSH2 0x7EE SWAP2 SWAP1 PUSH2 0x11E9 JUMP JUMPDEST PUSH2 0xB5E JUMP JUMPDEST PUSH1 0x40 MLOAD PUSH2 0x800 SWAP2 SWAP1 PUSH2 0x1121 JUMP JUMPDEST PUSH1 0x40 MLOAD DUP1 SWAP2 SUB SWAP1 RETURN JUMPDEST PUSH2 0x823 PUSH1 0x4 DUP1 CALLDATASIZE SUB DUP2 ADD SWAP1 PUSH2 0x81E SWAP2 SWAP1 PUSH2 0x1E7D JUMP JUMPDEST PUSH2 0xB65 JUMP JUMPDEST PUSH1 0x40 MLOAD PUSH2 0x830 SWAP2 SWAP1 PUSH2 0x1121 JUMP JUMPDEST PUSH1 0x40 MLOAD DUP1 SWAP2 SUB SWAP1 RETURN JUMPDEST PUSH2 0x853 PUSH1 0x4 DUP1 CALLDATASIZE SUB DUP2 ADD SWAP1 PUSH2 0x84E SWAP2 SWAP1 PUSH2 0x1F52 JUMP JUMPDEST PUSH2 0xB73 JUMP JUMPDEST STOP JUMPDEST PUSH2 0x85D PUSH2 0xB77 JUMP JUMPDEST PUSH1 0x40 MLOAD PUSH2 0x86A SWAP2 SWAP1 PUSH2 0x1FA1 JUMP JUMPDEST PUSH1 0x40 MLOAD DUP1 SWAP2 SUB SWAP1 RETURN JUMPDEST POP POP POP POP POP JUMP JUMPDEST POP POP POP POP POP POP POP POP JUMP JUMPDEST PUSH1 0x0 SWAP1 JUMP JUMPDEST PUSH1 0x0 SWAP1 JUMP JUMPDEST POP POP JUMP JUMPDEST PUSH1 0x0 SWAP1 JUMP JUMPDEST POP JUMP JUMPDEST PUSH1 0x0 SWAP4 SWAP3 POP POP POP JUMP JUMPDEST POP JUMP JUMPDEST PUSH2 0x8AE PUSH2 0xB7C JUMP JUMPDEST PUSH2 0x8B6 PUSH2 0xB7C JUMP JUMPDEST DUP1 SWAP2 POP POP SWAP2 SWAP1 POP JUMP JUMPDEST PUSH1 0x0 SWAP2 SWAP1 POP JUMP JUMPDEST DUP5 PUSH20 0xFFFFFFFFFFFFFFFFFFFFFFFFFFFFFFFFFFFFFFFF AND PUSH4 0xA9059CBB DUP8 DUP7 PUSH1 0x40 MLOAD DUP4 PUSH4 0xFFFFFFFF AND PUSH1 0xE0 SHL DUP2 MSTORE PUSH1 0x4 ADD PUSH2 0x901 SWAP3 SWAP2 SWAP1 PUSH2 0x1FBC JUMP JUMPDEST PUSH1 0x20 PUSH1 0x40 MLOAD DUP1 DUP4 SUB DUP2 PUSH1 0x0 DUP8 GAS CALL ISZERO DUP1 ISZERO PUSH2 0x920 JUMPI RETURNDATASIZE PUSH1 0x0 DUP1 RETURNDATACOPY RETURNDATASIZE PUSH1 0x0 REVERT JUMPDEST POP POP POP POP PUSH1 0x40 MLOAD RETURNDATASIZE PUSH1 0x1F NOT PUSH1 0x1F DUP3 ADD AND DUP3 ADD DUP1 PUSH1 0x40 MSTORE POP DUP2 ADD SWAP1 PUSH2 0x944 SWAP2 SWAP1 PUSH2 0x1FFA JUMP JUMPDEST POP DUP6 PUSH20 0xFFFFFFFFFFFFFFFFFFFFFFFFFFFFFFFFFFFFFFFF AND PUSH4 0x1B11D0FF DUP7 DUP7 PUSH1 0x0 CALLER DUP9 DUP9 PUSH1 0x40 MLOAD DUP8 PUSH4 0xFFFFFFFF AND PUSH1 0xE0 SHL DUP2 MSTORE PUSH1 0x4 ADD PUSH2 0x989 SWAP7 SWAP6 SWAP5 SWAP4 SWAP3 SWAP2 SWAP1 PUSH2 0x20AF JUMP JUMPDEST PUSH1 0x20 PUSH1 0x40 MLOAD DUP1 DUP4 SUB DUP2 PUSH1 0x0 DUP8 GAS CALL ISZERO DUP1 ISZERO PUSH2 0x9A8 JUMPI RETURNDATASIZE PUSH1 0x0 DUP1 RETURNDATACOPY RETURNDATASIZE PUSH1 0x0 REVERT JUMPDEST POP POP POP POP PUSH1 0x40 MLOAD RETURNDATASIZE PUSH1 0x1F NOT PUSH1 0x1F DUP3 ADD AND DUP3 ADD DUP1 PUSH1 0x40 MSTORE POP DUP2 ADD SWAP1 PUSH2 0x9CC SWAP2 SWAP1 PUSH2 0x1FFA JUMP JUMPDEST POP DUP5 PUSH20 0xFFFFFFFFFFFFFFFFFFFFFFFFFFFFFFFFFFFFFFFF AND PUSH4 0x23B872DD DUP8 ADDRESS DUP8 PUSH1 0x40 MLOAD DUP5 PUSH4 0xFFFFFFFF AND PUSH1 0xE0 SHL DUP2 MSTORE PUSH1 0x4 ADD PUSH2 0xA0A SWAP4 SWAP3 SWAP2 SWAP1 PUSH2 0x210B JUMP JUMPDEST PUSH1 0x20 PUSH1 0x40 MLOAD DUP1 DUP4 SUB DUP2 PUSH1 0x0 DUP8 GAS CALL ISZERO DUP1 ISZERO PUSH2 0xA29 JUMPI RETURNDATASIZE PUSH1 0x0 DUP1 RETURNDATACOPY RETURNDATASIZE PUSH1 0x0 REVERT JUMPDEST POP POP POP POP PUSH1 0x40 MLOAD RETURNDATASIZE PUSH1 0x1F NOT PUSH1 0x1F DUP3 ADD AND DUP3 ADD DUP1 PUSH1 0x40 MSTORE POP DUP2 ADD SWAP1 PUSH2 0xA4D SWAP2 SWAP1 PUSH2 0x1FFA JUMP JUMPDEST POP POP POP POP POP POP POP JUMP JUMPDEST PUSH2 0xA5E PUSH2 0xCEB JUMP JUMPDEST PUSH2 0xA66 PUSH2 0xCEB JUMP JUMPDEST DUP1 SWAP2 POP POP SWAP2 SWAP1 POP JUMP JUMPDEST PUSH1 0x0 SWAP2 SWAP1 POP JUMP JUMPDEST PUSH1 0x0 SWAP5 SWAP4 POP POP POP POP JUMP JUMPDEST POP POP JUMP JUMPDEST POP POP POP POP JUMP JUMPDEST POP JUMP JUMPDEST PUSH1 0x0 SWAP4 SWAP3 POP POP POP JUMP JUMPDEST POP POP POP POP JUMP JUMPDEST PUSH1 0x0 SWAP1 JUMP JUMPDEST PUSH2 0xAA9 PUSH2 0xCFE JUMP JUMPDEST PUSH2 0xAB1 PUSH2 0xCFE JUMP JUMPDEST DUP1 SWAP2 POP POP SWAP2 SWAP1 POP JUMP JUMPDEST POP POP POP POP POP JUMP JUMPDEST POP POP JUMP JUMPDEST POP POP JUMP JUMPDEST POP POP POP POP POP JUMP JUMPDEST POP POP POP POP POP POP POP POP POP POP POP JUMP JUMPDEST POP POP JUMP JUMPDEST PUSH1 0x0 DUP1 PUSH1 0x0 DUP1 PUSH1 0x0 DUP1 PUSH1 0x0 DUP1 PUSH1 0x0 DUP1 PUSH1 0x0 DUP1 SWAP6 POP SWAP6 POP SWAP6 POP SWAP6 POP SWAP6 POP SWAP6 POP SWAP2 SWAP4 SWAP6 POP SWAP2 SWAP4 SWAP6 JUMP JUMPDEST PUSH2 0xB10 PUSH2 0xD4F JUMP JUMPDEST PUSH2 0xB18 PUSH2 0xD4F JUMP JUMPDEST DUP1 SWAP2 POP POP SWAP2 SWAP1 POP JUMP JUMPDEST POP POP JUMP JUMPDEST POP POP POP JUMP JUMPDEST PUSH1 0x0 SWAP2 SWAP1 POP JUMP JUMPDEST PUSH1 0x60 DUP1 DUP1 SWAP2 POP POP SWAP1 JUMP JUMPDEST POP POP JUMP JUMPDEST POP POP POP POP POP POP JUMP JUMPDEST PUSH1 0x0 SWAP4 SWAP3 POP POP POP JUMP JUMPDEST POP JUMP JUMPDEST PUSH1 0x0 SWAP1 JUMP JUMPDEST POP POP POP POP JUMP JUMPDEST PUSH1 0x0 SWAP2 SWAP1 POP JUMP JUMPDEST PUSH1 0x0 SWAP9 SWAP8 POP POP POP POP POP POP POP POP JUMP JUMPDEST POP POP JUMP JUMPDEST PUSH1 0x0 SWAP1 JUMP JUMPDEST PUSH1 0x40 MLOAD DUP1 PUSH2 0x1E0 ADD PUSH1 0x40 MSTORE DUP1 PUSH2 0xB90 PUSH2 0xD4F JUMP JUMPDEST DUP2 MSTORE PUSH1 0x20 ADD PUSH1 0x0 PUSH16 0xFFFFFFFFFFFFFFFFFFFFFFFFFFFFFFFF AND DUP2 MSTORE PUSH1 0x20 ADD PUSH1 0x0 PUSH16 0xFFFFFFFFFFFFFFFFFFFFFFFFFFFFFFFF AND DUP2 MSTORE PUSH1 0x20 ADD PUSH1 0x0 PUSH16 0xFFFFFFFFFFFFFFFFFFFFFFFFFFFFFFFF AND DUP2 MSTORE PUSH1 0x20 ADD PUSH1 0x0 PUSH16 0xFFFFFFFFFFFFFFFFFFFFFFFFFFFFFFFF AND DUP2 MSTORE PUSH1 0x20 ADD PUSH1 0x0 PUSH16 0xFFFFFFFFFFFFFFFFFFFFFFFFFFFFFFFF AND DUP2 MSTORE PUSH1 0x20 ADD PUSH1 0x0 PUSH5 0xFFFFFFFFFF AND DUP2 MSTORE PUSH1 0x20 ADD PUSH1 0x0 PUSH2 0xFFFF AND DUP2 MSTORE PUSH1 0x20 ADD PUSH1 0x0 PUSH20 0xFFFFFFFFFFFFFFFFFFFFFFFFFFFFFFFFFFFFFFFF AND DUP2 MSTORE PUSH1 0x20 ADD PUSH1 0x0 PUSH20 0xFFFFFFFFFFFFFFFFFFFFFFFFFFFFFFFFFFFFFFFF AND DUP2 MSTORE PUSH1 0x20 ADD PUSH1 0x0 PUSH20 0xFFFFFFFFFFFFFFFFFFFFFFFFFFFFFFFFFFFFFFFF AND DUP2 MSTORE PUSH1 0x20 ADD PUSH1 0x0 PUSH20 0xFFFFFFFFFFFFFFFFFFFFFFFFFFFFFFFFFFFFFFFF AND DUP2 MSTORE PUSH1 0x20 ADD PUSH1 0x0 PUSH16 0xFFFFFFFFFFFFFFFFFFFFFFFFFFFFFFFF AND DUP2 MSTORE PUSH1 0x20 ADD PUSH1 0x0 PUSH16 0xFFFFFFFFFFFFFFFFFFFFFFFFFFFFFFFF AND DUP2 MSTORE PUSH1 0x20 ADD PUSH1 0x0 PUSH16 0xFFFFFFFFFFFFFFFFFFFFFFFFFFFFFFFF AND DUP2 MSTORE POP SWAP1 JUMP JUMPDEST PUSH1 0x40 MLOAD DUP1 PUSH1 0x20 ADD PUSH1 0x40 MSTORE DUP1 PUSH1 0x0 DUP2 MSTORE POP SWAP1 JUMP JUMPDEST PUSH1 0x40 MLOAD DUP1 PUSH1 0xA0 ADD PUSH1 0x40 MSTORE DUP1 PUSH1 0x0 PUSH2 0xFFFF AND DUP2 MSTORE PUSH1 0x20 ADD PUSH1 0x0 PUSH2 0xFFFF AND DUP2 MSTORE PUSH1 0x20 ADD PUSH1 0x0 PUSH2 0xFFFF AND DUP2 MSTORE PUSH1 0x20 ADD PUSH1 0x0 PUSH20 0xFFFFFFFFFFFFFFFFFFFFFFFFFFFFFFFFFFFFFFFF AND DUP2 MSTORE PUSH1 0x20 ADD PUSH1 0x60 DUP2 MSTORE POP SWAP1 JUMP JUMPDEST PUSH1 0x40 MLOAD DUP1 PUSH1 0x20 ADD PUSH1 0x40 MSTORE DUP1 PUSH1 0x0 DUP2 MSTORE POP SWAP1 JUMP JUMPDEST PUSH1 0x0 DUP1 REVERT JUMPDEST PUSH1 0x0 DUP1 REVERT JUMPDEST PUSH1 0x0 PUSH20 0xFFFFFFFFFFFFFFFFFFFFFFFFFFFFFFFFFFFFFFFF DUP3 AND SWAP1 POP SWAP2 SWAP1 POP JUMP JUMPDEST PUSH1 0x0 PUSH2 0xD97 DUP3 PUSH2 0xD6C JUMP JUMPDEST SWAP1 POP SWAP2 SWAP1 POP JUMP JUMPDEST PUSH2 0xDA7 DUP2 PUSH2 0xD8C JUMP JUMPDEST DUP2 EQ PUSH2 0xDB2 JUMPI PUSH1 0x0 DUP1 REVERT JUMPDEST POP JUMP JUMPDEST PUSH1 0x0 DUP2 CALLDATALOAD SWAP1 POP PUSH2 0xDC4 DUP2 PUSH2 0xD9E JUMP JUMPDEST SWAP3 SWAP2 POP POP JUMP JUMPDEST PUSH1 0x0 DUP2 SWAP1 POP SWAP2 SWAP1 POP JUMP JUMPDEST PUSH2 0xDDD DUP2 PUSH2 0xDCA JUMP JUMPDEST DUP2 EQ PUSH2 0xDE8 JUMPI PUSH1 0x0 DUP1 REVERT JUMPDEST POP JUMP JUMPDEST PUSH1 0x0 DUP2 CALLDATALOAD SWAP1 POP PUSH2 0xDFA DUP2 PUSH2 0xDD4 JUMP JUMPDEST SWAP3 SWAP2 POP POP JUMP JUMPDEST PUSH1 0x0 DUP2 ISZERO ISZERO SWAP1 POP SWAP2 SWAP1 POP JUMP JUMPDEST PUSH2 0xE15 DUP2 PUSH2 0xE00 JUMP JUMPDEST DUP2 EQ PUSH2 0xE20 JUMPI PUSH1 0x0 DUP1 REVERT JUMPDEST POP JUMP JUMPDEST PUSH1 0x0 DUP2 CALLDATALOAD SWAP1 POP PUSH2 0xE32 DUP2 PUSH2 0xE0C JUMP JUMPDEST SWAP3 SWAP2 POP POP JUMP JUMPDEST PUSH1 0x0 DUP1 PUSH1 0x0 DUP1 PUSH1 0x0 PUSH1 0xA0 DUP7 DUP9 SUB SLT ISZERO PUSH2 0xE54 JUMPI PUSH2 0xE53 PUSH2 0xD62 JUMP JUMPDEST JUMPDEST PUSH1 0x0 PUSH2 0xE62 DUP9 DUP3 DUP10 ADD PUSH2 0xDB5 JUMP JUMPDEST SWAP6 POP POP PUSH1 0x20 PUSH2 0xE73 DUP9 DUP3 DUP10 ADD PUSH2 0xDB5 JUMP JUMPDEST SWAP5 POP POP PUSH1 0x40 PUSH2 0xE84 DUP9 DUP3 DUP10 ADD PUSH2 0xDB5 JUMP JUMPDEST SWAP4 POP POP PUSH1 0x60 PUSH2 0xE95 DUP9 DUP3 DUP10 ADD PUSH2 0xDEB JUMP JUMPDEST SWAP3 POP POP PUSH1 0x80 PUSH2 0xEA6 DUP9 DUP3 DUP10 ADD PUSH2 0xE23 JUMP JUMPDEST SWAP2 POP POP SWAP3 SWAP6 POP SWAP3 SWAP6 SWAP1 SWAP4 POP JUMP JUMPDEST PUSH1 0x0 PUSH2 0xFFFF DUP3 AND SWAP1 POP SWAP2 SWAP1 POP JUMP JUMPDEST PUSH2 0xECA DUP2 PUSH2 0xEB3 JUMP JUMPDEST DUP2 EQ PUSH2 0xED5 JUMPI PUSH1 0x0 DUP1 REVERT JUMPDEST POP JUMP JUMPDEST PUSH1 0x0 DUP2 CALLDATALOAD SWAP1 POP PUSH2 0xEE7 DUP2 PUSH2 0xEC1 JUMP JUMPDEST SWAP3 SWAP2 POP POP JUMP JUMPDEST PUSH1 0x0 PUSH1 0xFF DUP3 AND SWAP1 POP SWAP2 SWAP1 POP JUMP JUMPDEST PUSH2 0xF03 DUP2 PUSH2 0xEED JUMP JUMPDEST DUP2 EQ PUSH2 0xF0E JUMPI PUSH1 0x0 DUP1 REVERT JUMPDEST POP JUMP JUMPDEST PUSH1 0x0 DUP2 CALLDATALOAD SWAP1 POP PUSH2 0xF20 DUP2 PUSH2 0xEFA JUMP JUMPDEST SWAP3 SWAP2 POP POP JUMP JUMPDEST PUSH1 0x0 DUP2 SWAP1 POP SWAP2 SWAP1 POP JUMP JUMPDEST PUSH2 0xF39 DUP2 PUSH2 0xF26 JUMP JUMPDEST DUP2 EQ PUSH2 0xF44 JUMPI PUSH1 0x0 DUP1 REVERT JUMPDEST POP JUMP JUMPDEST PUSH1 0x0 DUP2 CALLDATALOAD SWAP1 POP PUSH2 0xF56 DUP2 PUSH2 0xF30 JUMP JUMPDEST SWAP3 SWAP2 POP POP JUMP JUMPDEST PUSH1 0x0 DUP1 PUSH1 0x0 DUP1 PUSH1 0x0 DUP1 PUSH1 0x0 DUP1 PUSH2 0x100 DUP10 DUP12 SUB SLT ISZERO PUSH2 0xF7D JUMPI PUSH2 0xF7C PUSH2 0xD62 JUMP JUMPDEST JUMPDEST PUSH1 0x0 PUSH2 0xF8B DUP12 DUP3 DUP13 ADD PUSH2 0xDB5 JUMP JUMPDEST SWAP9 POP POP PUSH1 0x20 PUSH2 0xF9C DUP12 DUP3 DUP13 ADD PUSH2 0xDEB JUMP JUMPDEST SWAP8 POP POP PUSH1 0x40 PUSH2 0xFAD DUP12 DUP3 DUP13 ADD PUSH2 0xDB5 JUMP JUMPDEST SWAP7 POP POP PUSH1 0x60 PUSH2 0xFBE DUP12 DUP3 DUP13 ADD PUSH2 0xED8 JUMP JUMPDEST SWAP6 POP POP PUSH1 0x80 PUSH2 0xFCF DUP12 DUP3 DUP13 ADD PUSH2 0xDEB JUMP JUMPDEST SWAP5 POP POP PUSH1 0xA0 PUSH2 0xFE0 DUP12 DUP3 DUP13 ADD PUSH2 0xF11 JUMP JUMPDEST SWAP4 POP POP PUSH1 0xC0 PUSH2 0xFF1 DUP12 DUP3 DUP13 ADD PUSH2 0xF47 JUMP JUMPDEST SWAP3 POP POP PUSH1 0xE0 PUSH2 0x1002 DUP12 DUP3 DUP13 ADD PUSH2 0xF47 JUMP JUMPDEST SWAP2 POP POP SWAP3 SWAP6 SWAP9 POP SWAP3 SWAP6 SWAP9 SWAP1 SWAP4 SWAP7 POP JUMP JUMPDEST PUSH1 0x0 DUP2 SWAP1 POP SWAP2 SWAP1 POP JUMP JUMPDEST PUSH1 0x0 PUSH2 0x1037 PUSH2 0x1032 PUSH2 0x102D DUP5 PUSH2 0xD6C JUMP JUMPDEST PUSH2 0x1012 JUMP JUMPDEST PUSH2 0xD6C JUMP JUMPDEST SWAP1 POP SWAP2 SWAP1 POP JUMP JUMPDEST PUSH1 0x0 PUSH2 0x1049 DUP3 PUSH2 0x101C JUMP JUMPDEST SWAP1 POP SWAP2 SWAP1 POP JUMP JUMPDEST PUSH1 0x0 PUSH2 0x105B DUP3 PUSH2 0x103E JUMP JUMPDEST SWAP1 POP SWAP2 SWAP1 POP JUMP JUMPDEST PUSH2 0x106B DUP2 PUSH2 0x1050 JUMP JUMPDEST DUP3 MSTORE POP POP JUMP JUMPDEST PUSH1 0x0 PUSH1 0x20 DUP3 ADD SWAP1 POP PUSH2 0x1086 PUSH1 0x0 DUP4 ADD DUP5 PUSH2 0x1062 JUMP JUMPDEST SWAP3 SWAP2 POP POP JUMP JUMPDEST PUSH1 0x0 PUSH16 0xFFFFFFFFFFFFFFFFFFFFFFFFFFFFFFFF DUP3 AND SWAP1 POP SWAP2 SWAP1 POP JUMP JUMPDEST PUSH2 0x10B1 DUP2 PUSH2 0x108C JUMP JUMPDEST DUP3 MSTORE POP POP JUMP JUMPDEST PUSH1 0x0 PUSH1 0x20 DUP3 ADD SWAP1 POP PUSH2 0x10CC PUSH1 0x0 DUP4 ADD DUP5 PUSH2 0x10A8 JUMP JUMPDEST SWAP3 SWAP2 POP POP JUMP JUMPDEST PUSH1 0x0 DUP1 PUSH1 0x40 DUP4 DUP6 SUB SLT ISZERO PUSH2 0x10E9 JUMPI PUSH2 0x10E8 PUSH2 0xD62 JUMP JUMPDEST JUMPDEST PUSH1 0x0 PUSH2 0x10F7 DUP6 DUP3 DUP7 ADD PUSH2 0xDB5 JUMP JUMPDEST SWAP3 POP POP PUSH1 0x20 PUSH2 0x1108 DUP6 DUP3 DUP7 ADD PUSH2 0xDB5 JUMP JUMPDEST SWAP2 POP POP SWAP3 POP SWAP3 SWAP1 POP JUMP JUMPDEST PUSH2 0x111B DUP2 PUSH2 0xDCA JUMP JUMPDEST DUP3 MSTORE POP POP JUMP JUMPDEST PUSH1 0x0 PUSH1 0x20 DUP3 ADD SWAP1 POP PUSH2 0x1136 PUSH1 0x0 DUP4 ADD DUP5 PUSH2 0x1112 JUMP JUMPDEST SWAP3 SWAP2 POP POP JUMP JUMPDEST PUSH1 0x0 PUSH1 0x20 DUP3 DUP5 SUB SLT ISZERO PUSH2 0x1152 JUMPI PUSH2 0x1151 PUSH2 0xD62 JUMP JUMPDEST JUMPDEST PUSH1 0x0 PUSH2 0x1160 DUP5 DUP3 DUP6 ADD PUSH2 0xF11 JUMP JUMPDEST SWAP2 POP POP SWAP3 SWAP2 POP POP JUMP JUMPDEST PUSH1 0x0 DUP1 PUSH1 0x0 PUSH1 0x60 DUP5 DUP7 SUB SLT ISZERO PUSH2 0x1182 JUMPI PUSH2 0x1181 PUSH2 0xD62 JUMP JUMPDEST JUMPDEST PUSH1 0x0 PUSH2 0x1190 DUP7 DUP3 DUP8 ADD PUSH2 0xDB5 JUMP JUMPDEST SWAP4 POP POP PUSH1 0x20 PUSH2 0x11A1 DUP7 DUP3 DUP8 ADD PUSH2 0xDEB JUMP JUMPDEST SWAP3 POP POP PUSH1 0x40 PUSH2 0x11B2 DUP7 DUP3 DUP8 ADD PUSH2 0xDEB JUMP JUMPDEST SWAP2 POP POP SWAP3 POP SWAP3 POP SWAP3 JUMP JUMPDEST PUSH1 0x0 PUSH1 0x20 DUP3 DUP5 SUB SLT ISZERO PUSH2 0x11D2 JUMPI PUSH2 0x11D1 PUSH2 0xD62 JUMP JUMPDEST JUMPDEST PUSH1 0x0 PUSH2 0x11E0 DUP5 DUP3 DUP6 ADD PUSH2 0xDEB JUMP JUMPDEST SWAP2 POP POP SWAP3 SWAP2 POP POP JUMP JUMPDEST PUSH1 0x0 PUSH1 0x20 DUP3 DUP5 SUB SLT ISZERO PUSH2 0x11FF JUMPI PUSH2 0x11FE PUSH2 0xD62 JUMP JUMPDEST JUMPDEST PUSH1 0x0 PUSH2 0x120D DUP5 DUP3 DUP6 ADD PUSH2 0xDB5 JUMP JUMPDEST SWAP2 POP POP SWAP3 SWAP2 POP POP JUMP JUMPDEST PUSH2 0x121F DUP2 PUSH2 0xDCA JUMP JUMPDEST DUP3 MSTORE POP POP JUMP JUMPDEST PUSH1 0x20 DUP3 ADD PUSH1 0x0 DUP3 ADD MLOAD PUSH2 0x123B PUSH1 0x0 DUP6 ADD DUP3 PUSH2 0x1216 JUMP JUMPDEST POP POP POP POP JUMP JUMPDEST PUSH2 0x124A DUP2 PUSH2 0x108C JUMP JUMPDEST DUP3 MSTORE POP POP JUMP JUMPDEST PUSH1 0x0 PUSH5 0xFFFFFFFFFF DUP3 AND SWAP1 POP SWAP2 SWAP1 POP JUMP JUMPDEST PUSH2 0x126A DUP2 PUSH2 0x1250 JUMP JUMPDEST DUP3 MSTORE POP POP JUMP JUMPDEST PUSH2 0x1279 DUP2 PUSH2 0xEB3 JUMP JUMPDEST DUP3 MSTORE POP POP JUMP JUMPDEST PUSH2 0x1288 DUP2 PUSH2 0xD8C JUMP JUMPDEST DUP3 MSTORE POP POP JUMP JUMPDEST PUSH2 0x1E0 DUP3 ADD PUSH1 0x0 DUP3 ADD MLOAD PUSH2 0x12A5 PUSH1 0x0 DUP6 ADD DUP3 PUSH2 0x1225 JUMP JUMPDEST POP PUSH1 0x20 DUP3 ADD MLOAD PUSH2 0x12B8 PUSH1 0x20 DUP6 ADD DUP3 PUSH2 0x1241 JUMP JUMPDEST POP PUSH1 0x40 DUP3 ADD MLOAD PUSH2 0x12CB PUSH1 0x40 DUP6 ADD DUP3 PUSH2 0x1241 JUMP JUMPDEST POP PUSH1 0x60 DUP3 ADD MLOAD PUSH2 0x12DE PUSH1 0x60 DUP6 ADD DUP3 PUSH2 0x1241 JUMP JUMPDEST POP PUSH1 0x80 DUP3 ADD MLOAD PUSH2 0x12F1 PUSH1 0x80 DUP6 ADD DUP3 PUSH2 0x1241 JUMP JUMPDEST POP PUSH1 0xA0 DUP3 ADD MLOAD PUSH2 0x1304 PUSH1 0xA0 DUP6 ADD DUP3 PUSH2 0x1241 JUMP JUMPDEST POP PUSH1 0xC0 DUP3 ADD MLOAD PUSH2 0x1317 PUSH1 0xC0 DUP6 ADD DUP3 PUSH2 0x1261 JUMP JUMPDEST POP PUSH1 0xE0 DUP3 ADD MLOAD PUSH2 0x132A PUSH1 0xE0 DUP6 ADD DUP3 PUSH2 0x1270 JUMP JUMPDEST POP PUSH2 0x100 DUP3 ADD MLOAD PUSH2 0x133F PUSH2 0x100 DUP6 ADD DUP3 PUSH2 0x127F JUMP JUMPDEST POP PUSH2 0x120 DUP3 ADD MLOAD PUSH2 0x1354 PUSH2 0x120 DUP6 ADD DUP3 PUSH2 0x127F JUMP JUMPDEST POP PUSH2 0x140 DUP3 ADD MLOAD PUSH2 0x1369 PUSH2 0x140 DUP6 ADD DUP3 PUSH2 0x127F JUMP JUMPDEST POP PUSH2 0x160 DUP3 ADD MLOAD PUSH2 0x137E PUSH2 0x160 DUP6 ADD DUP3 PUSH2 0x127F JUMP JUMPDEST POP PUSH2 0x180 DUP3 ADD MLOAD PUSH2 0x1393 PUSH2 0x180 DUP6 ADD DUP3 PUSH2 0x1241 JUMP JUMPDEST POP PUSH2 0x1A0 DUP3 ADD MLOAD PUSH2 0x13A8 PUSH2 0x1A0 DUP6 ADD DUP3 PUSH2 0x1241 JUMP JUMPDEST POP PUSH2 0x1C0 DUP3 ADD MLOAD PUSH2 0x13BD PUSH2 0x1C0 DUP6 ADD DUP3 PUSH2 0x1241 JUMP JUMPDEST POP POP POP POP JUMP JUMPDEST PUSH1 0x0 PUSH2 0x1E0 DUP3 ADD SWAP1 POP PUSH2 0x13D9 PUSH1 0x0 DUP4 ADD DUP5 PUSH2 0x128E JUMP JUMPDEST SWAP3 SWAP2 POP POP JUMP JUMPDEST PUSH1 0x0 DUP1 REVERT JUMPDEST PUSH1 0x0 DUP1 REVERT JUMPDEST PUSH1 0x0 DUP1 REVERT JUMPDEST PUSH1 0x0 DUP1 DUP4 PUSH1 0x1F DUP5 ADD SLT PUSH2 0x1404 JUMPI PUSH2 0x1403 PUSH2 0x13DF JUMP JUMPDEST JUMPDEST DUP3 CALLDATALOAD SWAP1 POP PUSH8 0xFFFFFFFFFFFFFFFF DUP2 GT ISZERO PUSH2 0x1421 JUMPI PUSH2 0x1420 PUSH2 0x13E4 JUMP JUMPDEST JUMPDEST PUSH1 0x20 DUP4 ADD SWAP2 POP DUP4 PUSH1 0x1 DUP3 MUL DUP4 ADD GT ISZERO PUSH2 0x143D JUMPI PUSH2 0x143C PUSH2 0x13E9 JUMP JUMPDEST JUMPDEST SWAP3 POP SWAP3 SWAP1 POP JUMP JUMPDEST PUSH1 0x0 DUP1 PUSH1 0x0 DUP1 PUSH1 0x0 DUP1 PUSH1 0xA0 DUP8 DUP10 SUB SLT ISZERO PUSH2 0x1461 JUMPI PUSH2 0x1460 PUSH2 0xD62 JUMP JUMPDEST JUMPDEST PUSH1 0x0 PUSH2 0x146F DUP10 DUP3 DUP11 ADD PUSH2 0xDB5 JUMP JUMPDEST SWAP7 POP POP PUSH1 0x20 PUSH2 0x1480 DUP10 DUP3 DUP11 ADD PUSH2 0xDB5 JUMP JUMPDEST SWAP6 POP POP PUSH1 0x40 PUSH2 0x1491 DUP10 DUP3 DUP11 ADD PUSH2 0xDEB JUMP JUMPDEST SWAP5 POP POP PUSH1 0x60 DUP8 ADD CALLDATALOAD PUSH8 0xFFFFFFFFFFFFFFFF DUP2 GT ISZERO PUSH2 0x14B2 JUMPI PUSH2 0x14B1 PUSH2 0xD67 JUMP JUMPDEST JUMPDEST PUSH2 0x14BE DUP10 DUP3 DUP11 ADD PUSH2 0x13EE JUMP JUMPDEST SWAP4 POP SWAP4 POP POP PUSH1 0x80 PUSH2 0x14D1 DUP10 DUP3 DUP11 ADD PUSH2 0xED8 JUMP JUMPDEST SWAP2 POP POP SWAP3 SWAP6 POP SWAP3 SWAP6 POP SWAP3 SWAP6 JUMP JUMPDEST PUSH1 0x20 DUP3 ADD PUSH1 0x0 DUP3 ADD MLOAD PUSH2 0x14F4 PUSH1 0x0 DUP6 ADD DUP3 PUSH2 0x1216 JUMP JUMPDEST POP POP POP POP JUMP JUMPDEST PUSH1 0x0 PUSH1 0x20 DUP3 ADD SWAP1 POP PUSH2 0x150F PUSH1 0x0 DUP4 ADD DUP5 PUSH2 0x14DE JUMP JUMPDEST SWAP3 SWAP2 POP POP JUMP JUMPDEST PUSH1 0x0 PUSH1 0x20 DUP3 DUP5 SUB SLT ISZERO PUSH2 0x152B JUMPI PUSH2 0x152A PUSH2 0xD62 JUMP JUMPDEST JUMPDEST PUSH1 0x0 PUSH2 0x1539 DUP5 DUP3 DUP6 ADD PUSH2 0xED8 JUMP JUMPDEST SWAP2 POP POP SWAP3 SWAP2 POP POP JUMP JUMPDEST PUSH2 0x154B DUP2 PUSH2 0xD8C JUMP JUMPDEST DUP3 MSTORE POP POP JUMP JUMPDEST PUSH1 0x0 PUSH1 0x20 DUP3 ADD SWAP1 POP PUSH2 0x1566 PUSH1 0x0 DUP4 ADD DUP5 PUSH2 0x1542 JUMP JUMPDEST SWAP3 SWAP2 POP POP JUMP JUMPDEST PUSH1 0x0 DUP1 PUSH1 0x0 DUP1 PUSH1 0x80 DUP6 DUP8 SUB SLT ISZERO PUSH2 0x1586 JUMPI PUSH2 0x1585 PUSH2 0xD62 JUMP JUMPDEST JUMPDEST PUSH1 0x0 PUSH2 0x1594 DUP8 DUP3 DUP9 ADD PUSH2 0xDB5 JUMP JUMPDEST SWAP5 POP POP PUSH1 0x20 PUSH2 0x15A5 DUP8 DUP3 DUP9 ADD PUSH2 0xDEB JUMP JUMPDEST SWAP4 POP POP PUSH1 0x40 PUSH2 0x15B6 DUP8 DUP3 DUP9 ADD PUSH2 0xDEB JUMP JUMPDEST SWAP3 POP POP PUSH1 0x60 PUSH2 0x15C7 DUP8 DUP3 DUP9 ADD PUSH2 0xDB5 JUMP JUMPDEST SWAP2 POP POP SWAP3 SWAP6 SWAP2 SWAP5 POP SWAP3 POP JUMP JUMPDEST PUSH1 0x0 DUP1 PUSH1 0x40 DUP4 DUP6 SUB SLT ISZERO PUSH2 0x15EA JUMPI PUSH2 0x15E9 PUSH2 0xD62 JUMP JUMPDEST JUMPDEST PUSH1 0x0 PUSH2 0x15F8 DUP6 DUP3 DUP7 ADD PUSH2 0xDB5 JUMP JUMPDEST SWAP3 POP POP PUSH1 0x20 PUSH2 0x1609 DUP6 DUP3 DUP7 ADD PUSH2 0xE23 JUMP JUMPDEST SWAP2 POP POP SWAP3 POP SWAP3 SWAP1 POP JUMP JUMPDEST PUSH1 0x0 DUP1 PUSH1 0x0 DUP1 PUSH1 0x80 DUP6 DUP8 SUB SLT ISZERO PUSH2 0x162D JUMPI PUSH2 0x162C PUSH2 0xD62 JUMP JUMPDEST JUMPDEST PUSH1 0x0 PUSH2 0x163B DUP8 DUP3 DUP9 ADD PUSH2 0xDB5 JUMP JUMPDEST SWAP5 POP POP PUSH1 0x20 PUSH2 0x164C DUP8 DUP3 DUP9 ADD PUSH2 0xDEB JUMP JUMPDEST SWAP4 POP POP PUSH1 0x40 PUSH2 0x165D DUP8 DUP3 DUP9 ADD PUSH2 0xDB5 JUMP JUMPDEST SWAP3 POP POP PUSH1 0x60 PUSH2 0x166E DUP8 DUP3 DUP9 ADD PUSH2 0xED8 JUMP JUMPDEST SWAP2 POP POP SWAP3 SWAP6 SWAP2 SWAP5 POP SWAP3 POP JUMP JUMPDEST PUSH1 0x0 DUP1 PUSH1 0x0 PUSH1 0x60 DUP5 DUP7 SUB SLT ISZERO PUSH2 0x1693 JUMPI PUSH2 0x1692 PUSH2 0xD62 JUMP JUMPDEST JUMPDEST PUSH1 0x0 PUSH2 0x16A1 DUP7 DUP3 DUP8 ADD PUSH2 0xDB5 JUMP JUMPDEST SWAP4 POP POP PUSH1 0x20 PUSH2 0x16B2 DUP7 DUP3 DUP8 ADD PUSH2 0xDEB JUMP JUMPDEST SWAP3 POP POP PUSH1 0x40 PUSH2 0x16C3 DUP7 DUP3 DUP8 ADD PUSH2 0xDB5 JUMP JUMPDEST SWAP2 POP POP SWAP3 POP SWAP3 POP SWAP3 JUMP JUMPDEST PUSH1 0x0 DUP2 MLOAD SWAP1 POP SWAP2 SWAP1 POP JUMP JUMPDEST PUSH1 0x0 DUP3 DUP3 MSTORE PUSH1 0x20 DUP3 ADD SWAP1 POP SWAP3 SWAP2 POP POP JUMP JUMPDEST PUSH1 0x0 JUMPDEST DUP4 DUP2 LT ISZERO PUSH2 0x1707 JUMPI DUP1 DUP3 ADD MLOAD DUP2 DUP5 ADD MSTORE PUSH1 0x20 DUP2 ADD SWAP1 POP PUSH2 0x16EC JUMP JUMPDEST PUSH1 0x0 DUP5 DUP5 ADD MSTORE POP POP POP POP JUMP JUMPDEST PUSH1 0x0 PUSH1 0x1F NOT PUSH1 0x1F DUP4 ADD AND SWAP1 POP SWAP2 SWAP1 POP JUMP JUMPDEST PUSH1 0x0 PUSH2 0x172F DUP3 PUSH2 0x16CD JUMP JUMPDEST PUSH2 0x1739 DUP2 DUP6 PUSH2 0x16D8 JUMP JUMPDEST SWAP4 POP PUSH2 0x1749 DUP2 DUP6 PUSH1 0x20 DUP7 ADD PUSH2 0x16E9 JUMP JUMPDEST PUSH2 0x1752 DUP2 PUSH2 0x1713 JUMP JUMPDEST DUP5 ADD SWAP2 POP POP SWAP3 SWAP2 POP POP JUMP JUMPDEST PUSH1 0x0 PUSH1 0xA0 DUP4 ADD PUSH1 0x0 DUP4 ADD MLOAD PUSH2 0x1775 PUSH1 0x0 DUP7 ADD DUP3 PUSH2 0x1270 JUMP JUMPDEST POP PUSH1 0x20 DUP4 ADD MLOAD PUSH2 0x1788 PUSH1 0x20 DUP7 ADD DUP3 PUSH2 0x1270 JUMP JUMPDEST POP PUSH1 0x40 DUP4 ADD MLOAD PUSH2 0x179B PUSH1 0x40 DUP7 ADD DUP3 PUSH2 0x1270 JUMP JUMPDEST POP PUSH1 0x60 DUP4 ADD MLOAD PUSH2 0x17AE PUSH1 0x60 DUP7 ADD DUP3 PUSH2 0x127F JUMP JUMPDEST POP PUSH1 0x80 DUP4 ADD MLOAD DUP5 DUP3 SUB PUSH1 0x80 DUP7 ADD MSTORE PUSH2 0x17C6 DUP3 DUP3 PUSH2 0x1724 JUMP JUMPDEST SWAP2 POP POP DUP1 SWAP2 POP POP SWAP3 SWAP2 POP POP JUMP JUMPDEST PUSH1 0x0 PUSH1 0x20 DUP3 ADD SWAP1 POP DUP2 DUP2 SUB PUSH1 0x0 DUP4 ADD MSTORE PUSH2 0x17ED DUP2 DUP5 PUSH2 0x175D JUMP JUMPDEST SWAP1 POP SWAP3 SWAP2 POP POP JUMP JUMPDEST PUSH1 0x0 DUP1 PUSH1 0x0 DUP1 PUSH1 0x0 PUSH1 0xA0 DUP7 DUP9 SUB SLT ISZERO PUSH2 0x1811 JUMPI PUSH2 0x1810 PUSH2 0xD62 JUMP JUMPDEST JUMPDEST PUSH1 0x0 PUSH2 0x181F DUP9 DUP3 DUP10 ADD PUSH2 0xDB5 JUMP JUMPDEST SWAP6 POP POP PUSH1 0x20 PUSH2 0x1830 DUP9 DUP3 DUP10 ADD PUSH2 0xDB5 JUMP JUMPDEST SWAP5 POP POP PUSH1 0x40 PUSH2 0x1841 DUP9 DUP3 DUP10 ADD PUSH2 0xDB5 JUMP JUMPDEST SWAP4 POP POP PUSH1 0x60 PUSH2 0x1852 DUP9 DUP3 DUP10 ADD PUSH2 0xDB5 JUMP JUMPDEST SWAP3 POP POP PUSH1 0x80 PUSH2 0x1863 DUP9 DUP3 DUP10 ADD PUSH2 0xDB5 JUMP JUMPDEST SWAP2 POP POP SWAP3 SWAP6 POP SWAP3 SWAP6 SWAP1 SWAP4 POP JUMP JUMPDEST PUSH1 0x0 DUP1 PUSH1 0x40 DUP4 DUP6 SUB SLT ISZERO PUSH2 0x1887 JUMPI PUSH2 0x1886 PUSH2 0xD62 JUMP JUMPDEST JUMPDEST PUSH1 0x0 PUSH2 0x1895 DUP6 DUP3 DUP7 ADD PUSH2 0xDB5 JUMP JUMPDEST SWAP3 POP POP PUSH1 0x20 PUSH2 0x18A6 DUP6 DUP3 DUP7 ADD PUSH2 0xDEB JUMP JUMPDEST SWAP2 POP POP SWAP3 POP SWAP3 SWAP1 POP JUMP JUMPDEST PUSH1 0x0 DUP1 DUP4 PUSH1 0x1F DUP5 ADD SLT PUSH2 0x18C6 JUMPI PUSH2 0x18C5 PUSH2 0x13DF JUMP JUMPDEST JUMPDEST DUP3 CALLDATALOAD SWAP1 POP PUSH8 0xFFFFFFFFFFFFFFFF DUP2 GT ISZERO PUSH2 0x18E3 JUMPI PUSH2 0x18E2 PUSH2 0x13E4 JUMP JUMPDEST JUMPDEST PUSH1 0x20 DUP4 ADD SWAP2 POP DUP4 PUSH1 0x20 DUP3 MUL DUP4 ADD GT ISZERO PUSH2 0x18FF JUMPI PUSH2 0x18FE PUSH2 0x13E9 JUMP JUMPDEST JUMPDEST SWAP3 POP SWAP3 SWAP1 POP JUMP JUMPDEST PUSH1 0x0 DUP1 PUSH1 0x20 DUP4 DUP6 SUB SLT ISZERO PUSH2 0x191D JUMPI PUSH2 0x191C PUSH2 0xD62 JUMP JUMPDEST JUMPDEST PUSH1 0x0 DUP4 ADD CALLDATALOAD PUSH8 0xFFFFFFFFFFFFFFFF DUP2 GT ISZERO PUSH2 0x193B JUMPI PUSH2 0x193A PUSH2 0xD67 JUMP JUMPDEST JUMPDEST PUSH2 0x1947 DUP6 DUP3 DUP7 ADD PUSH2 0x18B0 JUMP JUMPDEST SWAP3 POP SWAP3 POP POP SWAP3 POP SWAP3 SWAP1 POP JUMP JUMPDEST PUSH1 0x0 DUP1 PUSH1 0x0 DUP1 PUSH1 0x0 PUSH1 0xA0 DUP7 DUP9 SUB SLT ISZERO PUSH2 0x196F JUMPI PUSH2 0x196E PUSH2 0xD62 JUMP JUMPDEST JUMPDEST PUSH1 0x0 PUSH2 0x197D DUP9 DUP3 DUP10 ADD PUSH2 0xDB5 JUMP JUMPDEST SWAP6 POP POP PUSH1 0x20 PUSH2 0x198E DUP9 DUP3 DUP10 ADD PUSH2 0xDEB JUMP JUMPDEST SWAP5 POP POP PUSH1 0x40 PUSH2 0x199F DUP9 DUP3 DUP10 ADD PUSH2 0xDEB JUMP JUMPDEST SWAP4 POP POP PUSH1 0x60 PUSH2 0x19B0 DUP9 DUP3 DUP10 ADD PUSH2 0xED8 JUMP JUMPDEST SWAP3 POP POP PUSH1 0x80 PUSH2 0x19C1 DUP9 DUP3 DUP10 ADD PUSH2 0xDB5 JUMP JUMPDEST SWAP2 POP POP SWAP3 SWAP6 POP SWAP3 SWAP6 SWAP1 SWAP4 POP JUMP JUMPDEST PUSH1 0x0 DUP1 DUP4 PUSH1 0x1F DUP5 ADD SLT PUSH2 0x19E4 JUMPI PUSH2 0x19E3 PUSH2 0x13DF JUMP JUMPDEST JUMPDEST DUP3 CALLDATALOAD SWAP1 POP PUSH8 0xFFFFFFFFFFFFFFFF DUP2 GT ISZERO PUSH2 0x1A01 JUMPI PUSH2 0x1A00 PUSH2 0x13E4 JUMP JUMPDEST JUMPDEST PUSH1 0x20 DUP4 ADD SWAP2 POP DUP4 PUSH1 0x20 DUP3 MUL DUP4 ADD GT ISZERO PUSH2 0x1A1D JUMPI PUSH2 0x1A1C PUSH2 0x13E9 JUMP JUMPDEST JUMPDEST SWAP3 POP SWAP3 SWAP1 POP JUMP JUMPDEST PUSH1 0x0 DUP1 PUSH1 0x0 DUP1 PUSH1 0x0 DUP1 PUSH1 0x0 DUP1 PUSH1 0x0 DUP1 PUSH1 0x0 PUSH1 0xE0 DUP13 DUP15 SUB SLT ISZERO PUSH2 0x1A49 JUMPI PUSH2 0x1A48 PUSH2 0xD62 JUMP JUMPDEST JUMPDEST PUSH1 0x0 PUSH2 0x1A57 DUP15 DUP3 DUP16 ADD PUSH2 0xDB5 JUMP JUMPDEST SWAP12 POP POP PUSH1 0x20 DUP13 ADD CALLDATALOAD PUSH8 0xFFFFFFFFFFFFFFFF DUP2 GT ISZERO PUSH2 0x1A78 JUMPI PUSH2 0x1A77 PUSH2 0xD67 JUMP JUMPDEST JUMPDEST PUSH2 0x1A84 DUP15 DUP3 DUP16 ADD PUSH2 0x18B0 JUMP JUMPDEST SWAP11 POP SWAP11 POP POP PUSH1 0x40 DUP13 ADD CALLDATALOAD PUSH8 0xFFFFFFFFFFFFFFFF DUP2 GT ISZERO PUSH2 0x1AA7 JUMPI PUSH2 0x1AA6 PUSH2 0xD67 JUMP JUMPDEST JUMPDEST PUSH2 0x1AB3 DUP15 DUP3 DUP16 ADD PUSH2 0x19CE JUMP JUMPDEST SWAP9 POP SWAP9 POP POP PUSH1 0x60 DUP13 ADD CALLDATALOAD PUSH8 0xFFFFFFFFFFFFFFFF DUP2 GT ISZERO PUSH2 0x1AD6 JUMPI PUSH2 0x1AD5 PUSH2 0xD67 JUMP JUMPDEST JUMPDEST PUSH2 0x1AE2 DUP15 DUP3 DUP16 ADD PUSH2 0x19CE JUMP JUMPDEST SWAP7 POP SWAP7 POP POP PUSH1 0x80 PUSH2 0x1AF5 DUP15 DUP3 DUP16 ADD PUSH2 0xDB5 JUMP JUMPDEST SWAP5 POP POP PUSH1 0xA0 DUP13 ADD CALLDATALOAD PUSH8 0xFFFFFFFFFFFFFFFF DUP2 GT ISZERO PUSH2 0x1B16 JUMPI PUSH2 0x1B15 PUSH2 0xD67 JUMP JUMPDEST JUMPDEST PUSH2 0x1B22 DUP15 DUP3 DUP16 ADD PUSH2 0x13EE JUMP JUMPDEST SWAP4 POP SWAP4 POP POP PUSH1 0xC0 PUSH2 0x1B35 DUP15 DUP3 DUP16 ADD PUSH2 0xED8 JUMP JUMPDEST SWAP2 POP POP SWAP3 SWAP6 SWAP9 SWAP12 POP SWAP3 SWAP6 SWAP9 SWAP12 SWAP1 SWAP4 SWAP7 SWAP10 POP JUMP JUMPDEST PUSH2 0x1B51 DUP2 PUSH2 0x108C JUMP JUMPDEST DUP2 EQ PUSH2 0x1B5C JUMPI PUSH1 0x0 DUP1 REVERT JUMPDEST POP JUMP JUMPDEST PUSH1 0x0 DUP2 CALLDATALOAD SWAP1 POP PUSH2 0x1B6E DUP2 PUSH2 0x1B48 JUMP JUMPDEST SWAP3 SWAP2 POP POP JUMP JUMPDEST PUSH1 0x0 DUP1 PUSH1 0x40 DUP4 DUP6 SUB SLT ISZERO PUSH2 0x1B8B JUMPI PUSH2 0x1B8A PUSH2 0xD62 JUMP JUMPDEST JUMPDEST PUSH1 0x0 PUSH2 0x1B99 DUP6 DUP3 DUP7 ADD PUSH2 0x1B5F JUMP JUMPDEST SWAP3 POP POP PUSH1 0x20 PUSH2 0x1BAA DUP6 DUP3 DUP7 ADD PUSH2 0x1B5F JUMP JUMPDEST SWAP2 POP POP SWAP3 POP SWAP3 SWAP1 POP JUMP JUMPDEST PUSH1 0x0 PUSH1 0xC0 DUP3 ADD SWAP1 POP PUSH2 0x1BC9 PUSH1 0x0 DUP4 ADD DUP10 PUSH2 0x1112 JUMP JUMPDEST PUSH2 0x1BD6 PUSH1 0x20 DUP4 ADD DUP9 PUSH2 0x1112 JUMP JUMPDEST PUSH2 0x1BE3 PUSH1 0x40 DUP4 ADD DUP8 PUSH2 0x1112 JUMP JUMPDEST PUSH2 0x1BF0 PUSH1 0x60 DUP4 ADD DUP7 PUSH2 0x1112 JUMP JUMPDEST PUSH2 0x1BFD PUSH1 0x80 DUP4 ADD DUP6 PUSH2 0x1112 JUMP JUMPDEST PUSH2 0x1C0A PUSH1 0xA0 DUP4 ADD DUP5 PUSH2 0x1112 JUMP JUMPDEST SWAP8 SWAP7 POP POP POP POP POP POP POP JUMP JUMPDEST PUSH1 0x20 DUP3 ADD PUSH1 0x0 DUP3 ADD MLOAD PUSH2 0x1C2B PUSH1 0x0 DUP6 ADD DUP3 PUSH2 0x1216 JUMP JUMPDEST POP POP POP POP JUMP JUMPDEST PUSH1 0x0 PUSH1 0x20 DUP3 ADD SWAP1 POP PUSH2 0x1C46 PUSH1 0x0 DUP4 ADD DUP5 PUSH2 0x1C15 JUMP JUMPDEST SWAP3 SWAP2 POP POP JUMP JUMPDEST PUSH1 0x0 DUP1 PUSH1 0x0 PUSH1 0x60 DUP5 DUP7 SUB SLT ISZERO PUSH2 0x1C65 JUMPI PUSH2 0x1C64 PUSH2 0xD62 JUMP JUMPDEST JUMPDEST PUSH1 0x0 PUSH2 0x1C73 DUP7 DUP3 DUP8 ADD PUSH2 0xDB5 JUMP JUMPDEST SWAP4 POP POP PUSH1 0x20 PUSH2 0x1C84 DUP7 DUP3 DUP8 ADD PUSH2 0xDB5 JUMP JUMPDEST SWAP3 POP POP PUSH1 0x40 PUSH2 0x1C95 DUP7 DUP3 DUP8 ADD PUSH2 0xDEB JUMP JUMPDEST SWAP2 POP POP SWAP3 POP SWAP3 POP SWAP3 JUMP JUMPDEST PUSH1 0x0 DUP2 MLOAD SWAP1 POP SWAP2 SWAP1 POP JUMP JUMPDEST PUSH1 0x0 DUP3 DUP3 MSTORE PUSH1 0x20 DUP3 ADD SWAP1 POP SWAP3 SWAP2 POP POP JUMP JUMPDEST PUSH1 0x0 DUP2 SWAP1 POP PUSH1 0x20 DUP3 ADD SWAP1 POP SWAP2 SWAP1 POP JUMP JUMPDEST PUSH1 0x0 PUSH2 0x1CD7 DUP4 DUP4 PUSH2 0x127F JUMP JUMPDEST PUSH1 0x20 DUP4 ADD SWAP1 POP SWAP3 SWAP2 POP POP JUMP JUMPDEST PUSH1 0x0 PUSH1 0x20 DUP3 ADD SWAP1 POP SWAP2 SWAP1 POP JUMP JUMPDEST PUSH1 0x0 PUSH2 0x1CFB DUP3 PUSH2 0x1C9F JUMP JUMPDEST PUSH2 0x1D05 DUP2 DUP6 PUSH2 0x1CAA JUMP JUMPDEST SWAP4 POP PUSH2 0x1D10 DUP4 PUSH2 0x1CBB JUMP JUMPDEST DUP1 PUSH1 0x0 JUMPDEST DUP4 DUP2 LT ISZERO PUSH2 0x1D41 JUMPI DUP2 MLOAD PUSH2 0x1D28 DUP9 DUP3 PUSH2 0x1CCB JUMP JUMPDEST SWAP8 POP PUSH2 0x1D33 DUP4 PUSH2 0x1CE3 JUMP JUMPDEST SWAP3 POP POP PUSH1 0x1 DUP2 ADD SWAP1 POP PUSH2 0x1D14 JUMP JUMPDEST POP DUP6 SWAP4 POP POP POP POP SWAP3 SWAP2 POP POP JUMP JUMPDEST PUSH1 0x0 PUSH1 0x20 DUP3 ADD SWAP1 POP DUP2 DUP2 SUB PUSH1 0x0 DUP4 ADD MSTORE PUSH2 0x1D68 DUP2 DUP5 PUSH2 0x1CF0 JUMP JUMPDEST SWAP1 POP SWAP3 SWAP2 POP POP JUMP JUMPDEST PUSH1 0x0 DUP1 REVERT JUMPDEST PUSH1 0x0 PUSH1 0xA0 DUP3 DUP5 SUB SLT ISZERO PUSH2 0x1D8B JUMPI PUSH2 0x1D8A PUSH2 0x1D70 JUMP JUMPDEST JUMPDEST DUP2 SWAP1 POP SWAP3 SWAP2 POP POP JUMP JUMPDEST PUSH1 0x0 DUP1 PUSH1 0x40 DUP4 DUP6 SUB SLT ISZERO PUSH2 0x1DAB JUMPI PUSH2 0x1DAA PUSH2 0xD62 JUMP JUMPDEST JUMPDEST PUSH1 0x0 PUSH2 0x1DB9 DUP6 DUP3 DUP7 ADD PUSH2 0xF11 JUMP JUMPDEST SWAP3 POP POP PUSH1 0x20 DUP4 ADD CALLDATALOAD PUSH8 0xFFFFFFFFFFFFFFFF DUP2 GT ISZERO PUSH2 0x1DDA JUMPI PUSH2 0x1DD9 PUSH2 0xD67 JUMP JUMPDEST JUMPDEST PUSH2 0x1DE6 DUP6 DUP3 DUP7 ADD PUSH2 0x1D75 JUMP JUMPDEST SWAP2 POP POP SWAP3 POP SWAP3 SWAP1 POP JUMP JUMPDEST PUSH1 0x0 DUP1 PUSH1 0x0 DUP1 PUSH1 0x0 DUP1 PUSH1 0xC0 DUP8 DUP10 SUB SLT ISZERO PUSH2 0x1E0D JUMPI PUSH2 0x1E0C PUSH2 0xD62 JUMP JUMPDEST JUMPDEST PUSH1 0x0 PUSH2 0x1E1B DUP10 DUP3 DUP11 ADD PUSH2 0xDB5 JUMP JUMPDEST SWAP7 POP POP PUSH1 0x20 PUSH2 0x1E2C DUP10 DUP3 DUP11 ADD PUSH2 0xDB5 JUMP JUMPDEST SWAP6 POP POP PUSH1 0x40 PUSH2 0x1E3D DUP10 DUP3 DUP11 ADD PUSH2 0xDB5 JUMP JUMPDEST SWAP5 POP POP PUSH1 0x60 PUSH2 0x1E4E DUP10 DUP3 DUP11 ADD PUSH2 0xDEB JUMP JUMPDEST SWAP4 POP POP PUSH1 0x80 PUSH2 0x1E5F DUP10 DUP3 DUP11 ADD PUSH2 0xDEB JUMP JUMPDEST SWAP3 POP POP PUSH1 0xA0 PUSH2 0x1E70 DUP10 DUP3 DUP11 ADD PUSH2 0xDEB JUMP JUMPDEST SWAP2 POP POP SWAP3 SWAP6 POP SWAP3 SWAP6 POP SWAP3 SWAP6 JUMP JUMPDEST PUSH1 0x0 DUP1 PUSH1 0x0 DUP1 PUSH1 0x0 DUP1 PUSH1 0x0 DUP1 PUSH2 0x100 DUP10 DUP12 SUB SLT ISZERO PUSH2 0x1E9E JUMPI PUSH2 0x1E9D PUSH2 0xD62 JUMP JUMPDEST JUMPDEST PUSH1 0x0 PUSH2 0x1EAC DUP12 DUP3 DUP13 ADD PUSH2 0xDB5 JUMP JUMPDEST SWAP9 POP POP PUSH1 0x20 PUSH2 0x1EBD DUP12 DUP3 DUP13 ADD PUSH2 0xDEB JUMP JUMPDEST SWAP8 POP POP PUSH1 0x40 PUSH2 0x1ECE DUP12 DUP3 DUP13 ADD PUSH2 0xDEB JUMP JUMPDEST SWAP7 POP POP PUSH1 0x60 PUSH2 0x1EDF DUP12 DUP3 DUP13 ADD PUSH2 0xDB5 JUMP JUMPDEST SWAP6 POP POP PUSH1 0x80 PUSH2 0x1EF0 DUP12 DUP3 DUP13 ADD PUSH2 0xDEB JUMP JUMPDEST SWAP5 POP POP PUSH1 0xA0 PUSH2 0x1F01 DUP12 DUP3 DUP13 ADD PUSH2 0xF11 JUMP JUMPDEST SWAP4 POP POP PUSH1 0xC0 PUSH2 0x1F12 DUP12 DUP3 DUP13 ADD PUSH2 0xF47 JUMP JUMPDEST SWAP3 POP POP PUSH1 0xE0 PUSH2 0x1F23 DUP12 DUP3 DUP13 ADD PUSH2 0xF47 JUMP JUMPDEST SWAP2 POP POP SWAP3 SWAP6 SWAP9 POP SWAP3 SWAP6 SWAP9 SWAP1 SWAP4 SWAP7 POP JUMP JUMPDEST PUSH1 0x0 PUSH1 0x20 DUP3 DUP5 SUB SLT ISZERO PUSH2 0x1F49 JUMPI PUSH2 0x1F48 PUSH2 0x1D70 JUMP JUMPDEST JUMPDEST DUP2 SWAP1 POP SWAP3 SWAP2 POP POP JUMP JUMPDEST PUSH1 0x0 DUP1 PUSH1 0x40 DUP4 DUP6 SUB SLT ISZERO PUSH2 0x1F69 JUMPI PUSH2 0x1F68 PUSH2 0xD62 JUMP JUMPDEST JUMPDEST PUSH1 0x0 PUSH2 0x1F77 DUP6 DUP3 DUP7 ADD PUSH2 0xDB5 JUMP JUMPDEST SWAP3 POP POP PUSH1 0x20 PUSH2 0x1F88 DUP6 DUP3 DUP7 ADD PUSH2 0x1F33 JUMP JUMPDEST SWAP2 POP POP SWAP3 POP SWAP3 SWAP1 POP JUMP JUMPDEST PUSH2 0x1F9B DUP2 PUSH2 0xEB3 JUMP JUMPDEST DUP3 MSTORE POP POP JUMP JUMPDEST PUSH1 0x0 PUSH1 0x20 DUP3 ADD SWAP1 POP PUSH2 0x1FB6 PUSH1 0x0 DUP4 ADD DUP5 PUSH2 0x1F92 JUMP JUMPDEST SWAP3 SWAP2 POP POP JUMP JUMPDEST PUSH1 0x0 PUSH1 0x40 DUP3 ADD SWAP1 POP PUSH2 0x1FD1 PUSH1 0x0 DUP4 ADD DUP6 PUSH2 0x1542 JUMP JUMPDEST PUSH2 0x1FDE PUSH1 0x20 DUP4 ADD DUP5 PUSH2 0x1112 JUMP JUMPDEST SWAP4 SWAP3 POP POP POP JUMP JUMPDEST PUSH1 0x0 DUP2 MLOAD SWAP1 POP PUSH2 0x1FF4 DUP2 PUSH2 0xE0C JUMP JUMPDEST SWAP3 SWAP2 POP POP JUMP JUMPDEST PUSH1 0x0 PUSH1 0x20 DUP3 DUP5 SUB SLT ISZERO PUSH2 0x2010 JUMPI PUSH2 0x200F PUSH2 0xD62 JUMP JUMPDEST JUMPDEST PUSH1 0x0 PUSH2 0x201E DUP5 DUP3 DUP6 ADD PUSH2 0x1FE5 JUMP JUMPDEST SWAP2 POP POP SWAP3 SWAP2 POP POP JUMP JUMPDEST PUSH1 0x0 DUP2 SWAP1 POP SWAP2 SWAP1 POP JUMP JUMPDEST PUSH1 0x0 PUSH2 0x204C PUSH2 0x2047 PUSH2 0x2042 DUP5 PUSH2 0x2027 JUMP JUMPDEST PUSH2 0x1012 JUMP JUMPDEST PUSH2 0xDCA JUMP JUMPDEST SWAP1 POP SWAP2 SWAP1 POP JUMP JUMPDEST PUSH2 0x205C DUP2 PUSH2 0x2031 JUMP JUMPDEST DUP3 MSTORE POP POP JUMP JUMPDEST PUSH1 0x0 DUP3 DUP3 MSTORE PUSH1 0x20 DUP3 ADD SWAP1 POP SWAP3 SWAP2 POP POP JUMP JUMPDEST DUP3 DUP2 DUP4 CALLDATACOPY PUSH1 0x0 DUP4 DUP4 ADD MSTORE POP POP POP JUMP JUMPDEST PUSH1 0x0 PUSH2 0x208E DUP4 DUP6 PUSH2 0x2062 JUMP JUMPDEST SWAP4 POP PUSH2 0x209B DUP4 DUP6 DUP5 PUSH2 0x2073 JUMP JUMPDEST PUSH2 0x20A4 DUP4 PUSH2 0x1713 JUMP JUMPDEST DUP5 ADD SWAP1 POP SWAP4 SWAP3 POP POP POP JUMP JUMPDEST PUSH1 0x0 PUSH1 0xA0 DUP3 ADD SWAP1 POP PUSH2 0x20C4 PUSH1 0x0 DUP4 ADD DUP10 PUSH2 0x1542 JUMP JUMPDEST PUSH2 0x20D1 PUSH1 0x20 DUP4 ADD DUP9 PUSH2 0x1112 JUMP JUMPDEST PUSH2 0x20DE PUSH1 0x40 DUP4 ADD DUP8 PUSH2 0x2053 JUMP JUMPDEST PUSH2 0x20EB PUSH1 0x60 DUP4 ADD DUP7 PUSH2 0x1542 JUMP JUMPDEST DUP2 DUP2 SUB PUSH1 0x80 DUP4 ADD MSTORE PUSH2 0x20FE DUP2 DUP5 DUP7 PUSH2 0x2082 JUMP JUMPDEST SWAP1 POP SWAP8 SWAP7 POP POP POP POP POP POP POP JUMP JUMPDEST PUSH1 0x0 PUSH1 0x60 DUP3 ADD SWAP1 POP PUSH2 0x2120 PUSH1 0x0 DUP4 ADD DUP7 PUSH2 0x1542 JUMP JUMPDEST PUSH2 0x212D PUSH1 0x20 DUP4 ADD DUP6 PUSH2 0x1542 JUMP JUMPDEST PUSH2 0x213A PUSH1 0x40 DUP4 ADD DUP5 PUSH2 0x1112 JUMP JUMPDEST SWAP5 SWAP4 POP POP POP POP JUMP INVALID LOG2 PUSH5 0x6970667358 0x22 SLT KECCAK256 SWAP4 0xAE CODESIZE SWAP15 GAS 0xDD 0xAE DUP13 INVALID CALLER DUP16 0xED 0x4F 0xCA DUP11 PUSH9 0x32BD3C5BA7E1599633 0xFC 0x2E PUSH12 0x1EFC1EBA64736F6C63430008 EQ STOP CALLER "},"methodIdentifiers":{"ADDRESSES_PROVIDER()":"0542975c","BRIDGE_PROTOCOL_FEE()":"272d9072","FLASHLOAN_PREMIUM_TOTAL()":"074b2e43","FLASHLOAN_PREMIUM_TO_PROTOCOL()":"6a99c036","MAX_NUMBER_RESERVES()":"f8119d51","MAX_STABLE_RATE_BORROW_SIZE_PERCENT()":"e82fec2f","backUnbacked(address,uint256,uint256)":"d65dc7a1","borrow(address,uint256,uint256,uint16,address)":"a415bcad","configureEModeCategory(uint8,(uint16,uint16,uint16,address,string))":"d579ea7d","deposit(address,uint256,address,uint16)":"e8eda9df","dropReserve(address)":"63c9b860","finalizeTransfer(address,address,address,uint256,uint256,uint256)":"d5ed3933","flashLoan(address,address[],uint256[],uint256[],address,bytes,uint16)":"ab9c4b5d","flashLoanSimple(address,address,uint256,bytes,uint16)":"42b0b77c","getConfiguration(address)":"c44b11f7","getEModeCategoryData(uint8)":"6c6f6ae1","getReserveAddressById(uint16)":"52751797","getReserveData(address)":"35ea6a75","getReserveNormalizedIncome(address)":"d15e0053","getReserveNormalizedVariableDebt(address)":"386497fd","getReservesList()":"d1946dbc","getUserAccountData(address)":"bf92857c","getUserConfiguration(address)":"4417a583","getUserEMode(address)":"eddf1b79","initReserve(address,address,address,address,address)":"7a708e92","liquidationCall(address,address,address,uint256,bool)":"00a718a9","mintToTreasury(address[])":"9cd19996","mintUnbacked(address,uint256,address,uint16)":"69a933a5","rebalanceStableBorrowRate(address,address)":"cd112382","repay(address,uint256,uint256,address)":"573ade81","repayWithATokens(address,uint256,uint256)":"2dad97d4","repayWithPermit(address,uint256,uint256,address,uint256,uint8,bytes32,bytes32)":"ee3e210b","rescueTokens(address,address,uint256)":"cea9d26f","resetIsolationModeTotalDebt(address)":"e43e88a1","setConfiguration(address,(uint256))":"f51e435b","setReserveInterestRateStrategyAddress(address,address)":"1d2118f9","setUserEMode(uint8)":"28530a47","setUserUseReserveAsCollateral(address,bool)":"5a3b74b9","supply(address,uint256,address,uint16)":"617ba037","supplyWithPermit(address,uint256,address,uint16,uint256,uint8,bytes32,bytes32)":"02c205f0","swapBorrowRateMode(address,uint256)":"94ba89a2","updateBridgeProtocolFee(uint256)":"3036b439","updateFlashloanPremiums(uint128,uint128)":"bcb6e522","withdraw(address,uint256,address)":"69328dec"}}}}}