{"abi":[{"type":"constructor","inputs":[{"name":"_addressProvider","type":"address","internalType":"address"}],"stateMutability":"nonpayable"},{"type":"receive","stateMutability":"payable"},{"type":"function","name":"ADDRESSES_PROVIDER","inputs":[],"outputs":[{"name":"","type":"address","internalType":"contract IPoolAddressesProvider"}],"stateMutability":"view"},{"type":"function","name":"POOL","inputs":[],"outputs":[{"name":"","type":"address","internalType":"contract IPool"}],"stateMutability":"view"},{"type":"function","name":"_simulateArbitrage","inputs":[{"name":"params","type":"tuple","internalType":"struct FlashArbitrage.ArbitrageParams","components":[{"name":"tokenA","type":"address","internalType":"address"},{"name":"tokenB","type":"address","internalType":"address"},{"name":"dexBuy","type":"address","internalType":"address"},{"name":"dexSell","type":"address","internalType":"address"},{"name":"amountIn","type":"uint256","internalType":"uint256"},{"name":"minProfitBps","type":"uint256","internalType":"uint256"},{"name":"deadline","type":"uint256","internalType":"uint256"}]}],"outputs":[{"name":"","type":"uint256","internalType":"uint256"}],"stateMutability":"view"},{"type":"function","name":"addAuthorizedCaller","inputs":[{"name":"caller","type":"address","internalType":"address"}],"outputs":[],"stateMutability":"nonpayable"},{"type":"function","name":"addSupportedDEX","inputs":[{"name":"dex","type":"address","internalType":"address"}],"outputs":[],"stateMutability":"nonpayable"},{"type":"function","name":"authorizedCallers","inputs":[{"name":"","type":"address","internalType":"address"}],"outputs":[{"name":"","type":"bool","internalType":"bool"}],"stateMutability":"view"},{"type":"function","name":"calculateProfit","inputs":[{"name":"params","type":"tuple","internalType":"struct FlashArbitrage.ArbitrageParams","components":[{"name":"tokenA","type":"address","internalType":"address"},{"name":"tokenB","type":"address","internalType":"address"},{"name":"dexBuy","type":"address","internalType":"address"},{"name":"dexSell","type":"address","internalType":"address"},{"name":"amountIn","type":"uint256","internalType":"uint256"},{"name":"minProfitBps","type":"uint256","internalType":"uint256"},{"name":"deadline","type":"uint256","internalType":"uint256"}]}],"outputs":[{"name":"","type":"uint256","internalType":"uint256"}],"stateMutability":"view"},{"type":"function","name":"emergencyWithdraw","inputs":[{"name":"token","type":"address","internalType":"address"},{"name":"to","type":"address","internalType":"address"}],"outputs":[],"stateMutability":"nonpayable"},{"type":"function","name":"executeArbitrage","inputs":[{"name":"params","type":"tuple","internalType":"struct FlashArbitrage.ArbitrageParams","components":[{"name":"tokenA","type":"address","internalType":"address"},{"name":"tokenB","type":"address","internalType":"address"},{"name":"dexBuy","type":"address","internalType":"address"},{"name":"dexSell","type":"address","internalType":"address"},{"name":"amountIn","type":"uint256","internalType":"uint256"},{"name":"minProfitBps","type":"uint256","internalType":"uint256"},{"name":"deadline","type":"uint256","internalType":"uint256"}]}],"outputs":[],"stateMutability":"nonpayable"},{"type":"function","name":"executeOperation","inputs":[{"name":"asset","type":"address","internalType":"address"},{"name":"amount","type":"uint256","internalType":"uint256"},{"name":"premium","type":"uint256","internalType":"uint256"},{"name":"initiator","type":"address","internalType":"address"},{"name":"params","type":"bytes","internalType":"bytes"}],"outputs":[{"name":"","type":"bool","internalType":"bool"}],"stateMutability":"nonpayable"},{"type":"function","name":"maxSlippageBps","inputs":[],"outputs":[{"name":"","type":"uint256","internalType":"uint256"}],"stateMutability":"view"},{"type":"function","name":"minProfitThreshold","inputs":[],"outputs":[{"name":"","type":"uint256","internalType":"uint256"}],"stateMutability":"view"},{"type":"function","name":"owner","inputs":[],"outputs":[{"name":"","type":"address","internalType":"address"}],"stateMutability":"view"},{"type":"function","name":"removeAuthorizedCaller","inputs":[{"name":"caller","type":"address","internalType":"address"}],"outputs":[],"stateMutability":"nonpayable"},{"type":"function","name":"removeSupportedDEX","inputs":[{"name":"dex","type":"address","internalType":"address"}],"outputs":[],"stateMutability":"nonpayable"},{"type":"function","name":"renounceOwnership","inputs":[],"outputs":[],"stateMutability":"nonpayable"},{"type":"function","name":"supportedDEXs","inputs":[{"name":"","type":"address","internalType":"address"}],"outputs":[{"name":"","type":"bool","internalType":"bool"}],"stateMutability":"view"},{"type":"function","name":"transferOwnership","inputs":[{"name":"newOwner","type":"address","internalType":"address"}],"outputs":[],"stateMutability":"nonpayable"},{"type":"function","name":"updateConfiguration","inputs":[{"name":"_maxSlippageBps","type":"uint256","internalType":"uint256"},{"name":"_minProfitThreshold","type":"uint256","internalType":"uint256"}],"outputs":[],"stateMutability":"nonpayable"},{"type":"event","name":"ArbitrageExecuted","inputs":[{"name":"tokenA","type":"address","indexed":true,"internalType":"address"},{"name":"tokenB","type":"address","indexed":true,"internalType":"address"},{"name":"dexBuy","type":"address","indexed":true,"internalType":"address"},{"name":"dexSell","type":"address","indexed":false,"internalType":"address"},{"name":"amountBorrowed","type":"uint256","indexed":false,"internalType":"uint256"},{"name":"profit","type":"uint256","indexed":false,"internalType":"uint256"},{"name":"executor","type":"address","indexed":false,"internalType":"address"}],"anonymous":false},{"type":"event","name":"ConfigurationUpdated","inputs":[{"name":"maxSlippageBps","type":"uint256","indexed":false,"internalType":"uint256"},{"name":"minProfitThreshold","type":"uint256","indexed":false,"internalType":"uint256"}],"anonymous":false},{"type":"event","name":"OwnershipTransferred","inputs":[{"name":"previousOwner","type":"address","indexed":true,"internalType":"address"},{"name":"newOwner","type":"address","indexed":true,"internalType":"address"}],"anonymous":false},{"type":"event","name":"ProfitWithdrawn","inputs":[{"name":"token","type":"address","indexed":true,"internalType":"address"},{"name":"amount","type":"uint256","indexed":false,"internalType":"uint256"},{"name":"to","type":"address","indexed":true,"internalType":"address"}],"anonymous":false},{"type":"error","name":"OwnableInvalidOwner","inputs":[{"name":"owner","type":"address","internalType":"address"}]},{"type":"error","name":"OwnableUnauthorizedAccount","inputs":[{"name":"account","type":"address","internalType":"address"}]},{"type":"error","name":"ReentrancyGuardReentrantCall","inputs":[]}],"bytecode":{"object":"0x60c060405261012c600455603260055534801561001a575f5ffd5b50604051612eee380380612eee833981810160405281019061003c9190610348565b33818073ffffffffffffffffffffffffffffffffffffffff1660808173ffffffffffffffffffffffffffffffffffffffff16815250508073ffffffffffffffffffffffffffffffffffffffff1663026b1d5f6040518163ffffffff1660e01b8152600401602060405180830381865afa1580156100bb573d5f5f3e3d5ffd5b505050506040513d601f19601f820116820180604052508101906100df9190610348565b73ffffffffffffffffffffffffffffffffffffffff1660a08173ffffffffffffffffffffffffffffffffffffffff1681525050505f73ffffffffffffffffffffffffffffffffffffffff168173ffffffffffffffffffffffffffffffffffffffff1603610183575f6040517f1e4fbdf700000000000000000000000000000000000000000000000000000000815260040161017a9190610382565b60405180910390fd5b6101928161020260201b60201c565b5060018081905550600160025f6101ad6102c360201b60201c565b73ffffffffffffffffffffffffffffffffffffffff1673ffffffffffffffffffffffffffffffffffffffff1681526020019081526020015f205f6101000a81548160ff0219169083151502179055505061039b565b5f5f5f9054906101000a900473ffffffffffffffffffffffffffffffffffffffff169050815f5f6101000a81548173ffffffffffffffffffffffffffffffffffffffff021916908373ffffffffffffffffffffffffffffffffffffffff1602179055508173ffffffffffffffffffffffffffffffffffffffff168173ffffffffffffffffffffffffffffffffffffffff167f8be0079c531659141344cd1fd0a4f28419497f9722a3daafe3b4186f6b6457e060405160405180910390a35050565b5f5f5f9054906101000a900473ffffffffffffffffffffffffffffffffffffffff16905090565b5f5ffd5b5f73ffffffffffffffffffffffffffffffffffffffff82169050919050565b5f610317826102ee565b9050919050565b6103278161030d565b8114610331575f5ffd5b50565b5f815190506103428161031e565b92915050565b5f6020828403121561035d5761035c6102ea565b5b5f61036a84828501610334565b91505092915050565b61037c8161030d565b82525050565b5f6020820190506103955f830184610373565b92915050565b60805160a051612b1d6103d15f395f81816104fd015281816106c901528181610b030152610eea01525f6104780152612b1d5ff3fe608060405260043610610117575f3560e01c80637535d2461161009f578063bf2b3ee611610063578063bf2b3ee614610384578063c4aa7395146103c0578063f2fde38b146103ea578063f3e3617914610412578063f46804631461044e5761011e565b80637535d246146102b85780638da5cb5b146102e2578063b3e3813f1461030c578063b73e5fe014610334578063b7aa02311461035c5761011e565b8063536fff6c116100e6578063536fff6c146101d85780636382d9ad1461021457806366cdf67e1461023c578063715018a6146102785780637341ab8c1461028e5761011e565b80630542975c1461012257806313a155ea1461014c5780631b11d0ff14610174578063489273e4146101b05761011e565b3661011e57005b5f5ffd5b34801561012d575f5ffd5b50610136610476565b6040516101439190611c20565b60405180910390f35b348015610157575f5ffd5b50610172600480360381019061016d9190611c85565b61049a565b005b34801561017f575f5ffd5b5061019a60048036038101906101959190611d44565b6104fa565b6040516101a79190611df4565b60405180910390f35b3480156101bb575f5ffd5b506101d660048036038101906101d19190611c85565b61086f565b005b3480156101e3575f5ffd5b506101fe60048036038101906101f99190611c85565b6108cf565b60405161020b9190611df4565b60405180910390f35b34801561021f575f5ffd5b5061023a60048036038101906102359190611e0d565b6108ec565b005b348015610247575f5ffd5b50610262600480360381019061025d9190611e6d565b610a5e565b60405161026f9190611ea7565b60405180910390f35b348015610283575f5ffd5b5061028c610ae8565b005b348015610299575f5ffd5b506102a2610afb565b6040516102af9190611ea7565b60405180910390f35b3480156102c3575f5ffd5b506102cc610b01565b6040516102d99190611ee0565b60405180910390f35b3480156102ed575f5ffd5b506102f6610b25565b6040516103039190611f08565b60405180910390f35b348015610317575f5ffd5b50610332600480360381019061032d9190611f21565b610b4c565b005b34801561033f575f5ffd5b5061035a60048036038101906103559190611e6d565b610b9f565b005b348015610367575f5ffd5b50610382600480360381019061037d9190611c85565b610f98565b005b34801561038f575f5ffd5b506103aa60048036038101906103a59190611c85565b610ff7565b6040516103b79190611df4565b60405180910390f35b3480156103cb575f5ffd5b506103d4611014565b6040516103e19190611ea7565b60405180910390f35b3480156103f5575f5ffd5b50610410600480360381019061040b9190611c85565b61101a565b005b34801561041d575f5ffd5b5061043860048036038101906104339190611e6d565b61109e565b6040516104459190611ea7565b60405180910390f35b348015610459575f5ffd5b50610474600480360381019061046f9190611c85565b61145f565b005b7f000000000000000000000000000000000000000000000000000000000000000081565b6104a26114be565b600160025f8373ffffffffffffffffffffffffffffffffffffffff1673ffffffffffffffffffffffffffffffffffffffff1681526020019081526020015f205f6101000a81548160ff02191690831515021790555050565b5f7f000000000000000000000000000000000000000000000000000000000000000073ffffffffffffffffffffffffffffffffffffffff163373ffffffffffffffffffffffffffffffffffffffff1614801561058157503073ffffffffffffffffffffffffffffffffffffffff168473ffffffffffffffffffffffffffffffffffffffff16145b6105c0576040517f08c379a00000000000000000000000000000000000000000000000000000000081526004016105b790611fb9565b60405180910390fd5b5f5f84848101906105d1919061214f565b915091505f6105e0838a611545565b90505f888a6105ef91906121bb565b9050808b73ffffffffffffffffffffffffffffffffffffffff166370a08231306040518263ffffffff1660e01b815260040161062b9190611f08565b602060405180830381865afa158015610646573d5f5f3e3d5ffd5b505050506040513d601f19601f8201168201806040525081019061066a9190612202565b10156106ab576040517f08c379a00000000000000000000000000000000000000000000000000000000081526004016106a29061229d565b60405180910390fd5b8a73ffffffffffffffffffffffffffffffffffffffff1663095ea7b37f0000000000000000000000000000000000000000000000000000000000000000836040518363ffffffff1660e01b81526004016107069291906122bb565b6020604051808303815f875af1158015610722573d5f5f3e3d5ffd5b505050506040513d601f19601f82011682018060405250810190610746919061230c565b505f8211156107cc578a73ffffffffffffffffffffffffffffffffffffffff1663a9059cbb84846040518363ffffffff1660e01b815260040161078a9291906122bb565b6020604051808303815f875af11580156107a6573d5f5f3e3d5ffd5b505050506040513d601f19601f820116820180604052508101906107ca919061230c565b505b836040015173ffffffffffffffffffffffffffffffffffffffff16846020015173ffffffffffffffffffffffffffffffffffffffff16855f015173ffffffffffffffffffffffffffffffffffffffff167f692bb80371b2666c25563fb08e699516f2c8c371e99b6b2eb24d249a5212255e87606001518e87896040516108559493929190612337565b60405180910390a460019450505050509695505050505050565b6108776114be565b600160035f8373ffffffffffffffffffffffffffffffffffffffff1673ffffffffffffffffffffffffffffffffffffffff1681526020019081526020015f205f6101000a81548160ff02191690831515021790555050565b6002602052805f5260405f205f915054906101000a900460ff1681565b6108f46114be565b5f8273ffffffffffffffffffffffffffffffffffffffff166370a08231306040518263ffffffff1660e01b815260040161092e9190611f08565b602060405180830381865afa158015610949573d5f5f3e3d5ffd5b505050506040513d601f19601f8201168201806040525081019061096d9190612202565b90505f811115610a59578273ffffffffffffffffffffffffffffffffffffffff1663a9059cbb83836040518363ffffffff1660e01b81526004016109b29291906122bb565b6020604051808303815f875af11580156109ce573d5f5f3e3d5ffd5b505050506040513d601f19601f820116820180604052508101906109f2919061230c565b508173ffffffffffffffffffffffffffffffffffffffff168373ffffffffffffffffffffffffffffffffffffffff167fe6fee221bb8a85476104e6b67ae7b66010866c78f60f8ce4946f80da6ce04df083604051610a509190611ea7565b60405180910390a35b505050565b5f3073ffffffffffffffffffffffffffffffffffffffff1663f3e36179836040518263ffffffff1660e01b8152600401610a989190612488565b602060405180830381865afa925050508015610ad257506040513d601f19601f82011682018060405250810190610acf9190612202565b60015b610ade575f9050610ae3565b809150505b919050565b610af06114be565b610af95f6119c1565b565b60055481565b7f000000000000000000000000000000000000000000000000000000000000000081565b5f5f5f9054906101000a900473ffffffffffffffffffffffffffffffffffffffff16905090565b610b546114be565b81600481905550806005819055507fef1efc2eb4c3919acff49f1baa43e65b34b152dd75ac70025e825092d576ed688282604051610b939291906124a1565b60405180910390a15050565b60025f3373ffffffffffffffffffffffffffffffffffffffff1673ffffffffffffffffffffffffffffffffffffffff1681526020019081526020015f205f9054906101000a900460ff1680610c265750610bf7610b25565b73ffffffffffffffffffffffffffffffffffffffff163373ffffffffffffffffffffffffffffffffffffffff16145b610c65576040517f08c379a0000000000000000000000000000000000000000000000000000000008152600401610c5c90612512565b60405180910390fd5b610c6d611a82565b5f73ffffffffffffffffffffffffffffffffffffffff16815f016020810190610c969190611c85565b73ffffffffffffffffffffffffffffffffffffffff1614158015610cf857505f73ffffffffffffffffffffffffffffffffffffffff16816020016020810190610cdf9190611c85565b73ffffffffffffffffffffffffffffffffffffffff1614155b8015610d0757505f8160800135115b8015610d165750428160c00135115b610d55576040517f08c379a0000000000000000000000000000000000000000000000000000000008152600401610d4c9061257a565b60405180910390fd5b60035f826040016020810190610d6b9190611c85565b73ffffffffffffffffffffffffffffffffffffffff1673ffffffffffffffffffffffffffffffffffffffff1681526020019081526020015f205f9054906101000a900460ff168015610e15575060035f826060016020810190610dce9190611c85565b73ffffffffffffffffffffffffffffffffffffffff1673ffffffffffffffffffffffffffffffffffffffff1681526020019081526020015f205f9054906101000a900460ff165b610e54576040517f08c379a0000000000000000000000000000000000000000000000000000000008152600401610e4b906125e2565b60405180910390fd5b5f610e5e82610a5e565b90506127108260a001358360800135610e779190612600565b610e81919061266e565b811015610ec3576040517f08c379a0000000000000000000000000000000000000000000000000000000008152600401610eba9061270e565b60405180910390fd5b5f8233604051602001610ed792919061272c565b60405160208183030381529060405290507f000000000000000000000000000000000000000000000000000000000000000073ffffffffffffffffffffffffffffffffffffffff166342b0b77c30855f016020810190610f379190611c85565b8660800135855f6040518663ffffffff1660e01b8152600401610f5e9594939291906127fa565b5f604051808303815f87803b158015610f75575f5ffd5b505af1158015610f87573d5f5f3e3d5ffd5b505050505050610f95611ac8565b50565b610fa06114be565b5f60025f8373ffffffffffffffffffffffffffffffffffffffff1673ffffffffffffffffffffffffffffffffffffffff1681526020019081526020015f205f6101000a81548160ff02191690831515021790555050565b6003602052805f5260405f205f915054906101000a900460ff1681565b60045481565b6110226114be565b5f73ffffffffffffffffffffffffffffffffffffffff168173ffffffffffffffffffffffffffffffffffffffff1603611092575f6040517f1e4fbdf70000000000000000000000000000000000000000000000000000000081526004016110899190611f08565b60405180910390fd5b61109b816119c1565b50565b5f5f600267ffffffffffffffff8111156110bb576110ba611feb565b5b6040519080825280602002602001820160405280156110e95781602001602082028036833780820191505090505b509050825f0160208101906110fe9190611c85565b815f8151811061111157611110612852565b5b602002602001019073ffffffffffffffffffffffffffffffffffffffff16908173ffffffffffffffffffffffffffffffffffffffff168152505082602001602081019061115e9190611c85565b8160018151811061117257611171612852565b5b602002602001019073ffffffffffffffffffffffffffffffffffffffff16908173ffffffffffffffffffffffffffffffffffffffff16815250505f8360400160208101906111c09190611c85565b73ffffffffffffffffffffffffffffffffffffffff1663d06ca61f8560800135846040518363ffffffff1660e01b81526004016111fe929190612927565b5f60405180830381865afa158015611218573d5f5f3e3d5ffd5b505050506040513d5f823e3d601f19601f820116820180604052508101906112409190612a15565b90505f600267ffffffffffffffff81111561125e5761125d611feb565b5b60405190808252806020026020018201604052801561128c5781602001602082028036833780820191505090505b5090508460200160208101906112a29190611c85565b815f815181106112b5576112b4612852565b5b602002602001019073ffffffffffffffffffffffffffffffffffffffff16908173ffffffffffffffffffffffffffffffffffffffff1681525050845f0160208101906113019190611c85565b8160018151811061131557611314612852565b5b602002602001019073ffffffffffffffffffffffffffffffffffffffff16908173ffffffffffffffffffffffffffffffffffffffff16815250505f8560600160208101906113639190611c85565b73ffffffffffffffffffffffffffffffffffffffff1663d06ca61f8460018151811061139257611391612852565b5b6020026020010151846040518363ffffffff1660e01b81526004016113b8929190612927565b5f60405180830381865afa1580156113d2573d5f5f3e3d5ffd5b505050506040513d5f823e3d601f19601f820116820180604052508101906113fa9190612a15565b905085608001358160018151811061141557611414612852565b5b602002602001015111611428575f611454565b85608001358160018151811061144157611440612852565b5b60200260200101516114539190612a5c565b5b945050505050919050565b6114676114be565b5f60035f8373ffffffffffffffffffffffffffffffffffffffff1673ffffffffffffffffffffffffffffffffffffffff1681526020019081526020015f205f6101000a81548160ff02191690831515021790555050565b6114c6611ad1565b73ffffffffffffffffffffffffffffffffffffffff166114e4610b25565b73ffffffffffffffffffffffffffffffffffffffff161461154357611507611ad1565b6040517f118cdaa700000000000000000000000000000000000000000000000000000000815260040161153a9190611f08565b60405180910390fd5b565b5f825f015173ffffffffffffffffffffffffffffffffffffffff1663095ea7b38460400151846040518363ffffffff1660e01b81526004016115889291906122bb565b6020604051808303815f875af11580156115a4573d5f5f3e3d5ffd5b505050506040513d601f19601f820116820180604052508101906115c8919061230c565b505f600267ffffffffffffffff8111156115e5576115e4611feb565b5b6040519080825280602002602001820160405280156116135781602001602082028036833780820191505090505b509050835f0151815f8151811061162d5761162c612852565b5b602002602001019073ffffffffffffffffffffffffffffffffffffffff16908173ffffffffffffffffffffffffffffffffffffffff16815250508360200151816001815181106116805761167f612852565b5b602002602001019073ffffffffffffffffffffffffffffffffffffffff16908173ffffffffffffffffffffffffffffffffffffffff16815250505f846040015173ffffffffffffffffffffffffffffffffffffffff166338ed1739856116eb87868a60400151611ad8565b85308a60c001516040518663ffffffff1660e01b8152600401611712959493929190612a8f565b5f604051808303815f875af115801561172d573d5f5f3e3d5ffd5b505050506040513d5f823e3d601f19601f820116820180604052508101906117559190612a15565b90505f8160018151811061176c5761176b612852565b5b60200260200101519050856020015173ffffffffffffffffffffffffffffffffffffffff1663095ea7b38760600151836040518363ffffffff1660e01b81526004016117b99291906122bb565b6020604051808303815f875af11580156117d5573d5f5f3e3d5ffd5b505050506040513d601f19601f820116820180604052508101906117f9919061230c565b505f600267ffffffffffffffff81111561181657611815611feb565b5b6040519080825280602002602001820160405280156118445781602001602082028036833780820191505090505b5090508660200151815f8151811061185f5761185e612852565b5b602002602001019073ffffffffffffffffffffffffffffffffffffffff16908173ffffffffffffffffffffffffffffffffffffffff1681525050865f0151816001815181106118b1576118b0612852565b5b602002602001019073ffffffffffffffffffffffffffffffffffffffff16908173ffffffffffffffffffffffffffffffffffffffff16815250505f876060015173ffffffffffffffffffffffffffffffffffffffff166338ed1739848985308d60c001516040518663ffffffff1660e01b8152600401611935959493929190612a8f565b5f604051808303815f875af1158015611950573d5f5f3e3d5ffd5b505050506040513d5f823e3d601f19601f820116820180604052508101906119789190612a15565b90505f8160018151811061198f5761198e612852565b5b602002602001015190508781116119a6575f6119b3565b87816119b29190612a5c565b5b965050505050505092915050565b5f5f5f9054906101000a900473ffffffffffffffffffffffffffffffffffffffff169050815f5f6101000a81548173ffffffffffffffffffffffffffffffffffffffff021916908373ffffffffffffffffffffffffffffffffffffffff1602179055508173ffffffffffffffffffffffffffffffffffffffff168173ffffffffffffffffffffffffffffffffffffffff167f8be0079c531659141344cd1fd0a4f28419497f9722a3daafe3b4186f6b6457e060405160405180910390a35050565b600260015403611abe576040517f3ee5aeb500000000000000000000000000000000000000000000000000000000815260040160405180910390fd5b6002600181905550565b60018081905550565b5f33905090565b5f5f8273ffffffffffffffffffffffffffffffffffffffff1663d06ca61f86866040518363ffffffff1660e01b8152600401611b15929190612927565b5f60405180830381865afa158015611b2f573d5f5f3e3d5ffd5b505050506040513d5f823e3d601f19601f82011682018060405250810190611b579190612a15565b9050612710600454612710611b6c9190612a5c565b82600181518110611b8057611b7f612852565b5b6020026020010151611b929190612600565b611b9c919061266e565b9150509392505050565b5f73ffffffffffffffffffffffffffffffffffffffff82169050919050565b5f819050919050565b5f611be8611be3611bde84611ba6565b611bc5565b611ba6565b9050919050565b5f611bf982611bce565b9050919050565b5f611c0a82611bef565b9050919050565b611c1a81611c00565b82525050565b5f602082019050611c335f830184611c11565b92915050565b5f604051905090565b5f5ffd5b5f5ffd5b5f611c5482611ba6565b9050919050565b611c6481611c4a565b8114611c6e575f5ffd5b50565b5f81359050611c7f81611c5b565b92915050565b5f60208284031215611c9a57611c99611c42565b5b5f611ca784828501611c71565b91505092915050565b5f819050919050565b611cc281611cb0565b8114611ccc575f5ffd5b50565b5f81359050611cdd81611cb9565b92915050565b5f5ffd5b5f5ffd5b5f5ffd5b5f5f83601f840112611d0457611d03611ce3565b5b8235905067ffffffffffffffff811115611d2157611d20611ce7565b5b602083019150836001820283011115611d3d57611d3c611ceb565b5b9250929050565b5f5f5f5f5f5f60a08789031215611d5e57611d5d611c42565b5b5f611d6b89828a01611c71565b9650506020611d7c89828a01611ccf565b9550506040611d8d89828a01611ccf565b9450506060611d9e89828a01611c71565b935050608087013567ffffffffffffffff811115611dbf57611dbe611c46565b5b611dcb89828a01611cef565b92509250509295509295509295565b5f8115159050919050565b611dee81611dda565b82525050565b5f602082019050611e075f830184611de5565b92915050565b5f5f60408385031215611e2357611e22611c42565b5b5f611e3085828601611c71565b9250506020611e4185828601611c71565b9150509250929050565b5f5ffd5b5f60e08284031215611e6457611e63611e4b565b5b81905092915050565b5f60e08284031215611e8257611e81611c42565b5b5f611e8f84828501611e4f565b91505092915050565b611ea181611cb0565b82525050565b5f602082019050611eba5f830184611e98565b92915050565b5f611eca82611bef565b9050919050565b611eda81611ec0565b82525050565b5f602082019050611ef35f830184611ed1565b92915050565b611f0281611c4a565b82525050565b5f602082019050611f1b5f830184611ef9565b92915050565b5f5f60408385031215611f3757611f36611c42565b5b5f611f4485828601611ccf565b9250506020611f5585828601611ccf565b9150509250929050565b5f82825260208201905092915050565b7f466c6173684172626974726167653a20496e76616c69642063616c6c000000005f82015250565b5f611fa3601c83611f5f565b9150611fae82611f6f565b602082019050919050565b5f6020820190508181035f830152611fd081611f97565b9050919050565b5f5ffd5b5f601f19601f8301169050919050565b7f4e487b71000000000000000000000000000000000000000000000000000000005f52604160045260245ffd5b61202182611fdb565b810181811067ffffffffffffffff821117156120405761203f611feb565b5b80604052505050565b5f612052611c39565b905061205e8282612018565b919050565b5f60e0828403121561207857612077611fd7565b5b61208260e0612049565b90505f61209184828501611c71565b5f8301525060206120a484828501611c71565b60208301525060406120b884828501611c71565b60408301525060606120cc84828501611c71565b60608301525060806120e084828501611ccf565b60808301525060a06120f484828501611ccf565b60a08301525060c061210884828501611ccf565b60c08301525092915050565b5f61211e82611ba6565b9050919050565b61212e81612114565b8114612138575f5ffd5b50565b5f8135905061214981612125565b92915050565b5f5f610100838503121561216657612165611c42565b5b5f61217385828601612063565b92505060e06121848582860161213b565b9150509250929050565b7f4e487b71000000000000000000000000000000000000000000000000000000005f52601160045260245ffd5b5f6121c582611cb0565b91506121d083611cb0565b92508282019050808211156121e8576121e761218e565b5b92915050565b5f815190506121fc81611cb9565b92915050565b5f6020828403121561221757612216611c42565b5b5f612224848285016121ee565b91505092915050565b7f466c6173684172626974726167653a20496e73756666696369656e742066756e5f8201527f6473000000000000000000000000000000000000000000000000000000000000602082015250565b5f612287602283611f5f565b91506122928261222d565b604082019050919050565b5f6020820190508181035f8301526122b48161227b565b9050919050565b5f6040820190506122ce5f830185611ef9565b6122db6020830184611e98565b9392505050565b6122eb81611dda565b81146122f5575f5ffd5b50565b5f81519050612306816122e2565b92915050565b5f6020828403121561232157612320611c42565b5b5f61232e848285016122f8565b91505092915050565b5f60808201905061234a5f830187611ef9565b6123576020830186611e98565b6123646040830185611e98565b6123716060830184611ef9565b95945050505050565b5f6123886020840184611c71565b905092915050565b61239981611c4a565b82525050565b5f6123ad6020840184611ccf565b905092915050565b6123be81611cb0565b82525050565b60e082016123d45f83018361237a565b6123e05f850182612390565b506123ee602083018361237a565b6123fb6020850182612390565b50612409604083018361237a565b6124166040850182612390565b50612424606083018361237a565b6124316060850182612390565b5061243f608083018361239f565b61244c60808501826123b5565b5061245a60a083018361239f565b61246760a08501826123b5565b5061247560c083018361239f565b61248260c08501826123b5565b50505050565b5f60e08201905061249b5f8301846123c4565b92915050565b5f6040820190506124b45f830185611e98565b6124c16020830184611e98565b9392505050565b7f466c6173684172626974726167653a204e6f7420617574686f72697a656400005f82015250565b5f6124fc601e83611f5f565b9150612507826124c8565b602082019050919050565b5f6020820190508181035f830152612529816124f0565b9050919050565b7f466c6173684172626974726167653a20496e76616c696420706172616d7300005f82015250565b5f612564601e83611f5f565b915061256f82612530565b602082019050919050565b5f6020820190508181035f83015261259181612558565b9050919050565b7f466c6173684172626974726167653a20556e737570706f7274656420444558005f82015250565b5f6125cc601f83611f5f565b91506125d782612598565b602082019050919050565b5f6020820190508181035f8301526125f9816125c0565b9050919050565b5f61260a82611cb0565b915061261583611cb0565b925082820261262381611cb0565b9150828204841483151761263a5761263961218e565b5b5092915050565b7f4e487b71000000000000000000000000000000000000000000000000000000005f52601260045260245ffd5b5f61267882611cb0565b915061268383611cb0565b92508261269357612692612641565b5b828204905092915050565b7f466c6173684172626974726167653a20496e73756666696369656e742070726f5f8201527f6669740000000000000000000000000000000000000000000000000000000000602082015250565b5f6126f8602383611f5f565b91506127038261269e565b604082019050919050565b5f6020820190508181035f830152612725816126ec565b9050919050565b5f610100820190506127405f8301856123c4565b61274d60e0830184611ef9565b9392505050565b5f81519050919050565b5f82825260208201905092915050565b8281835e5f83830152505050565b5f61278682612754565b612790818561275e565b93506127a081856020860161276e565b6127a981611fdb565b840191505092915050565b5f819050919050565b5f61ffff82169050919050565b5f6127e46127df6127da846127b4565b611bc5565b6127bd565b9050919050565b6127f4816127ca565b82525050565b5f60a08201905061280d5f830188611ef9565b61281a6020830187611ef9565b6128276040830186611e98565b8181036060830152612839818561277c565b905061284860808301846127eb565b9695505050505050565b7f4e487b71000000000000000000000000000000000000000000000000000000005f52603260045260245ffd5b5f81519050919050565b5f82825260208201905092915050565b5f819050602082019050919050565b5f6128b38383612390565b60208301905092915050565b5f602082019050919050565b5f6128d58261287f565b6128df8185612889565b93506128ea83612899565b805f5b8381101561291a57815161290188826128a8565b975061290c836128bf565b9250506001810190506128ed565b5085935050505092915050565b5f60408201905061293a5f830185611e98565b818103602083015261294c81846128cb565b90509392505050565b5f67ffffffffffffffff82111561296f5761296e611feb565b5b602082029050602081019050919050565b5f61299261298d84612955565b612049565b905080838252602082019050602084028301858111156129b5576129b4611ceb565b5b835b818110156129de57806129ca88826121ee565b8452602084019350506020810190506129b7565b5050509392505050565b5f82601f8301126129fc576129fb611ce3565b5b8151612a0c848260208601612980565b91505092915050565b5f60208284031215612a2a57612a29611c42565b5b5f82015167ffffffffffffffff811115612a4757612a46611c46565b5b612a53848285016129e8565b91505092915050565b5f612a6682611cb0565b9150612a7183611cb0565b9250828203905081811115612a8957612a8861218e565b5b92915050565b5f60a082019050612aa25f830188611e98565b612aaf6020830187611e98565b8181036040830152612ac181866128cb565b9050612ad06060830185611ef9565b612add6080830184611e98565b969550505050505056fea2646970667358221220659c4dafb8d961e70e93e7b8e26e1d05ec13ca06a2d97a06cfca0b68d8d3645a64736f6c634300081e0033","linkReferences":{}},"methodIdentifiers":{"ADDRESSES_PROVIDER()":"0542975c","POOL()":"7535d246","_simulateArbitrage((address,address,address,address,uint256,uint256,uint256))":"f3e36179","addAuthorizedCaller(address)":"13a155ea","addSupportedDEX(address)":"489273e4","authorizedCallers(address)":"536fff6c","calculateProfit((address,address,address,address,uint256,uint256,uint256))":"66cdf67e","emergencyWithdraw(address,address)":"6382d9ad","executeArbitrage((address,address,address,address,uint256,uint256,uint256))":"b73e5fe0","executeOperation(address,uint256,uint256,address,bytes)":"1b11d0ff","maxSlippageBps()":"c4aa7395","minProfitThreshold()":"7341ab8c","owner()":"8da5cb5b","removeAuthorizedCaller(address)":"b7aa0231","removeSupportedDEX(address)":"f4680463","renounceOwnership()":"715018a6","supportedDEXs(address)":"bf2b3ee6","transferOwnership(address)":"f2fde38b","updateConfiguration(uint256,uint256)":"b3e3813f"},"id":0}