{
  "_format": "hh-sol-artifact-1",
  "contractName": "MockDEX",
  "sourceName": "contracts/MockDEX.sol",
  "abi": [
    {
      "inputs": [
        {
          "internalType": "uint256",
          "name": "amountIn",
          "type": "uint256"
        },
        {
          "internalType": "address[]",
          "name": "path",
          "type": "address[]"
        }
      ],
      "name": "getAmountsOut",
      "outputs": [
        {
          "internalType": "uint256[]",
          "name": "amounts",
          "type": "uint256[]"
        }
      ],
      "stateMutability": "view",
      "type": "function"
    },
    {
      "inputs": [
        {
          "internalType": "address",
          "name": "",
          "type": "address"
        },
        {
          "internalType": "address",
          "name": "",
          "type": "address"
        }
      ],
      "name": "prices",
      "outputs": [
        {
          "internalType": "uint256",
          "name": "",
          "type": "uint256"
        }
      ],
      "stateMutability": "view",
      "type": "function"
    },
    {
      "inputs": [
        {
          "internalType": "address",
          "name": "tokenA",
          "type": "address"
        },
        {
          "internalType": "address",
          "name": "tokenB",
          "type": "address"
        },
        {
          "internalType": "uint256",
          "name": "price",
          "type": "uint256"
        }
      ],
      "name": "setPrice",
      "outputs": [],
      "stateMutability": "nonpayable",
      "type": "function"
    },
    {
      "inputs": [
        {
          "internalType": "uint256",
          "name": "amountIn",
          "type": "uint256"
        },
        {
          "internalType": "uint256",
          "name": "amountOutMin",
          "type": "uint256"
        },
        {
          "internalType": "address[]",
          "name": "path",
          "type": "address[]"
        },
        {
          "internalType": "address",
          "name": "to",
          "type": "address"
        },
        {
          "internalType": "uint256",
          "name": "deadline",
          "type": "uint256"
        }
      ],
      "name": "swapExactTokensForTokens",
      "outputs": [
        {
          "internalType": "uint256[]",
          "name": "amounts",
          "type": "uint256[]"
        }
      ],
      "stateMutability": "nonpayable",
      "type": "function"
    }
  ],
  "bytecode": "0x608060405234801561001057600080fd5b50610dbe806100206000396000f3fe608060405234801561001057600080fd5b506004361061004c5760003560e01c80631f3124041461005157806338ed173914610081578063792eb791146100b1578063d06ca61f146100cd575b600080fd5b61006b6004803603810190610066919061073d565b6100fd565b6040516100789190610796565b60405180910390f35b61009b60048036038101906100969190610842565b610122565b6040516100a8919061099a565b60405180910390f35b6100cb60048036038101906100c691906109bc565b610484565b005b6100e760048036038101906100e29190610a0f565b610509565b6040516100f4919061099a565b60405180910390f35b6000602052816000526040600020602052806000526040600020600091509150505481565b60606002858590501461016a576040517f08c379a000000000000000000000000000000000000000000000000000000000815260040161016190610acc565b60405180910390fd5b6000670de0b6b3a76400006000808888600081811061018c5761018b610aec565b5b90506020020160208101906101a19190610b1b565b73ffffffffffffffffffffffffffffffffffffffff1673ffffffffffffffffffffffffffffffffffffffff1681526020019081526020016000206000888860018181106101f1576101f0610aec565b5b90506020020160208101906102069190610b1b565b73ffffffffffffffffffffffffffffffffffffffff1673ffffffffffffffffffffffffffffffffffffffff168152602001908152602001600020548961024c9190610b77565b6102569190610be8565b90508681101561029b576040517f08c379a000000000000000000000000000000000000000000000000000000000815260040161029290610c65565b60405180910390fd5b600267ffffffffffffffff8111156102b6576102b5610c85565b5b6040519080825280602002602001820160405280156102e45781602001602082028036833780820191505090505b50915087826000815181106102fc576102fb610aec565b5b602002602001018181525050808260018151811061031d5761031c610aec565b5b6020026020010181815250508585600081811061033d5761033c610aec565b5b90506020020160208101906103529190610b1b565b73ffffffffffffffffffffffffffffffffffffffff166323b872dd33308b6040518463ffffffff1660e01b815260040161038e93929190610cc3565b6020604051808303816000875af11580156103ad573d6000803e3d6000fd5b505050506040513d601f19601f820116820180604052508101906103d19190610d32565b50858560018181106103e6576103e5610aec565b5b90506020020160208101906103fb9190610b1b565b73ffffffffffffffffffffffffffffffffffffffff1663a9059cbb85836040518363ffffffff1660e01b8152600401610435929190610d5f565b6020604051808303816000875af1158015610454573d6000803e3d6000fd5b505050506040513d601f19601f820116820180604052508101906104789190610d32565b50509695505050505050565b806000808573ffffffffffffffffffffffffffffffffffffffff1673ffffffffffffffffffffffffffffffffffffffff16815260200190815260200160002060008473ffffffffffffffffffffffffffffffffffffffff1673ffffffffffffffffffffffffffffffffffffffff16815260200190815260200160002081905550505050565b606060028383905014610551576040517f08c379a000000000000000000000000000000000000000000000000000000000815260040161054890610acc565b60405180910390fd5b6000670de0b6b3a76400006000808686600081811061057357610572610aec565b5b90506020020160208101906105889190610b1b565b73ffffffffffffffffffffffffffffffffffffffff1673ffffffffffffffffffffffffffffffffffffffff1681526020019081526020016000206000868660018181106105d8576105d7610aec565b5b90506020020160208101906105ed9190610b1b565b73ffffffffffffffffffffffffffffffffffffffff1673ffffffffffffffffffffffffffffffffffffffff16815260200190815260200160002054866106339190610b77565b61063d9190610be8565b9050600267ffffffffffffffff81111561065a57610659610c85565b5b6040519080825280602002602001820160405280156106885781602001602082028036833780820191505090505b50915084826000815181106106a05761069f610aec565b5b60200260200101818152505080826001815181106106c1576106c0610aec565b5b602002602001018181525050509392505050565b600080fd5b600080fd5b600073ffffffffffffffffffffffffffffffffffffffff82169050919050565b600061070a826106df565b9050919050565b61071a816106ff565b811461072557600080fd5b50565b60008135905061073781610711565b92915050565b60008060408385031215610754576107536106d5565b5b600061076285828601610728565b925050602061077385828601610728565b9150509250929050565b6000819050919050565b6107908161077d565b82525050565b60006020820190506107ab6000830184610787565b92915050565b6107ba8161077d565b81146107c557600080fd5b50565b6000813590506107d7816107b1565b92915050565b600080fd5b600080fd5b600080fd5b60008083601f840112610802576108016107dd565b5b8235905067ffffffffffffffff81111561081f5761081e6107e2565b5b60208301915083602082028301111561083b5761083a6107e7565b5b9250929050565b60008060008060008060a0878903121561085f5761085e6106d5565b5b600061086d89828a016107c8565b965050602061087e89828a016107c8565b955050604087013567ffffffffffffffff81111561089f5761089e6106da565b5b6108ab89828a016107ec565b945094505060606108be89828a01610728565b92505060806108cf89828a016107c8565b9150509295509295509295565b600081519050919050565b600082825260208201905092915050565b6000819050602082019050919050565b6109118161077d565b82525050565b60006109238383610908565b60208301905092915050565b6000602082019050919050565b6000610947826108dc565b61095181856108e7565b935061095c836108f8565b8060005b8381101561098d5781516109748882610917565b975061097f8361092f565b925050600181019050610960565b5085935050505092915050565b600060208201905081810360008301526109b4818461093c565b905092915050565b6000806000606084860312156109d5576109d46106d5565b5b60006109e386828701610728565b93505060206109f486828701610728565b9250506040610a05868287016107c8565b9150509250925092565b600080600060408486031215610a2857610a276106d5565b5b6000610a36868287016107c8565b935050602084013567ffffffffffffffff811115610a5757610a566106da565b5b610a63868287016107ec565b92509250509250925092565b600082825260208201905092915050565b7f4d6f636b4445583a20496e76616c696420706174680000000000000000000000600082015250565b6000610ab6601583610a6f565b9150610ac182610a80565b602082019050919050565b60006020820190508181036000830152610ae581610aa9565b9050919050565b7f4e487b7100000000000000000000000000000000000000000000000000000000600052603260045260246000fd5b600060208284031215610b3157610b306106d5565b5b6000610b3f84828501610728565b91505092915050565b7f4e487b7100000000000000000000000000000000000000000000000000000000600052601160045260246000fd5b6000610b828261077d565b9150610b8d8361077d565b9250828202610b9b8161077d565b91508282048414831517610bb257610bb1610b48565b5b5092915050565b7f4e487b7100000000000000000000000000000000000000000000000000000000600052601260045260246000fd5b6000610bf38261077d565b9150610bfe8361077d565b925082610c0e57610c0d610bb9565b5b828204905092915050565b7f4d6f636b4445583a20536c697070616765000000000000000000000000000000600082015250565b6000610c4f601183610a6f565b9150610c5a82610c19565b602082019050919050565b60006020820190508181036000830152610c7e81610c42565b9050919050565b7f4e487b7100000000000000000000000000000000000000000000000000000000600052604160045260246000fd5b610cbd816106ff565b82525050565b6000606082019050610cd86000830186610cb4565b610ce56020830185610cb4565b610cf26040830184610787565b949350505050565b60008115159050919050565b610d0f81610cfa565b8114610d1a57600080fd5b50565b600081519050610d2c81610d06565b92915050565b600060208284031215610d4857610d476106d5565b5b6000610d5684828501610d1d565b91505092915050565b6000604082019050610d746000830185610cb4565b610d816020830184610787565b939250505056fea26469706673582212202faaf4a671e309e1b142f664047b0fcebdc2d125594a27167314c8b212e02bd964736f6c63430008140033",
  "linkReferences": {},
  "deployedLinkReferences": {}
}