{
  "_format": "hh-sol-artifact-1",
  "contractName": "FlashArbitrage",
  "sourceName": "contracts/FlashArbitrage.sol",
  "abi": [
    {
      "inputs": [
        {
          "internalType": "address",
          "name": "_addressProvider",
          "type": "address"
        }
      ],
      "stateMutability": "nonpayable",
      "type": "constructor"
    },
    {
      "inputs": [
        {
          "internalType": "address",
          "name": "owner",
          "type": "address"
        }
      ],
      "name": "OwnableInvalidOwner",
      "type": "error"
    },
    {
      "inputs": [
        {
          "internalType": "address",
          "name": "account",
          "type": "address"
        }
      ],
      "name": "OwnableUnauthorizedAccount",
      "type": "error"
    },
    {
      "inputs": [],
      "name": "ReentrancyGuardReentrantCall",
      "type": "error"
    },
    {
      "anonymous": false,
      "inputs": [
        {
          "indexed": true,
          "internalType": "address",
          "name": "tokenA",
          "type": "address"
        },
        {
          "indexed": true,
          "internalType": "address",
          "name": "tokenB",
          "type": "address"
        },
        {
          "indexed": true,
          "internalType": "address",
          "name": "dexBuy",
          "type": "address"
        },
        {
          "indexed": false,
          "internalType": "address",
          "name": "dexSell",
          "type": "address"
        },
        {
          "indexed": false,
          "internalType": "uint256",
          "name": "amountBorrowed",
          "type": "uint256"
        },
        {
          "indexed": false,
          "internalType": "uint256",
          "name": "profit",
          "type": "uint256"
        },
        {
          "indexed": false,
          "internalType": "address",
          "name": "executor",
          "type": "address"
        }
      ],
      "name": "ArbitrageExecuted",
      "type": "event"
    },
    {
      "anonymous": false,
      "inputs": [
        {
          "indexed": false,
          "internalType": "uint256",
          "name": "maxSlippageBps",
          "type": "uint256"
        },
        {
          "indexed": false,
          "internalType": "uint256",
          "name": "minProfitThreshold",
          "type": "uint256"
        }
      ],
      "name": "ConfigurationUpdated",
      "type": "event"
    },
    {
      "anonymous": false,
      "inputs": [
        {
          "indexed": true,
          "internalType": "address",
          "name": "previousOwner",
          "type": "address"
        },
        {
          "indexed": true,
          "internalType": "address",
          "name": "newOwner",
          "type": "address"
        }
      ],
      "name": "OwnershipTransferred",
      "type": "event"
    },
    {
      "anonymous": false,
      "inputs": [
        {
          "indexed": true,
          "internalType": "address",
          "name": "token",
          "type": "address"
        },
        {
          "indexed": false,
          "internalType": "uint256",
          "name": "amount",
          "type": "uint256"
        },
        {
          "indexed": true,
          "internalType": "address",
          "name": "to",
          "type": "address"
        }
      ],
      "name": "ProfitWithdrawn",
      "type": "event"
    },
    {
      "inputs": [],
      "name": "ADDRESSES_PROVIDER",
      "outputs": [
        {
          "internalType": "contract IPoolAddressesProvider",
          "name": "",
          "type": "address"
        }
      ],
      "stateMutability": "view",
      "type": "function"
    },
    {
      "inputs": [],
      "name": "POOL",
      "outputs": [
        {
          "internalType": "contract IPool",
          "name": "",
          "type": "address"
        }
      ],
      "stateMutability": "view",
      "type": "function"
    },
    {
      "inputs": [
        {
          "components": [
            {
              "internalType": "address",
              "name": "tokenA",
              "type": "address"
            },
            {
              "internalType": "address",
              "name": "tokenB",
              "type": "address"
            },
            {
              "internalType": "address",
              "name": "dexBuy",
              "type": "address"
            },
            {
              "internalType": "address",
              "name": "dexSell",
              "type": "address"
            },
            {
              "internalType": "uint256",
              "name": "amountIn",
              "type": "uint256"
            },
            {
              "internalType": "uint256",
              "name": "minProfitBps",
              "type": "uint256"
            },
            {
              "internalType": "uint256",
              "name": "deadline",
              "type": "uint256"
            }
          ],
          "internalType": "struct FlashArbitrage.ArbitrageParams",
          "name": "params",
          "type": "tuple"
        }
      ],
      "name": "_simulateArbitrage",
      "outputs": [
        {
          "internalType": "uint256",
          "name": "",
          "type": "uint256"
        }
      ],
      "stateMutability": "view",
      "type": "function"
    },
    {
      "inputs": [
        {
          "internalType": "address",
          "name": "caller",
          "type": "address"
        }
      ],
      "name": "addAuthorizedCaller",
      "outputs": [],
      "stateMutability": "nonpayable",
      "type": "function"
    },
    {
      "inputs": [
        {
          "internalType": "address",
          "name": "dex",
          "type": "address"
        }
      ],
      "name": "addSupportedDEX",
      "outputs": [],
      "stateMutability": "nonpayable",
      "type": "function"
    },
    {
      "inputs": [
        {
          "internalType": "address",
          "name": "",
          "type": "address"
        }
      ],
      "name": "authorizedCallers",
      "outputs": [
        {
          "internalType": "bool",
          "name": "",
          "type": "bool"
        }
      ],
      "stateMutability": "view",
      "type": "function"
    },
    {
      "inputs": [
        {
          "components": [
            {
              "internalType": "address",
              "name": "tokenA",
              "type": "address"
            },
            {
              "internalType": "address",
              "name": "tokenB",
              "type": "address"
            },
            {
              "internalType": "address",
              "name": "dexBuy",
              "type": "address"
            },
            {
              "internalType": "address",
              "name": "dexSell",
              "type": "address"
            },
            {
              "internalType": "uint256",
              "name": "amountIn",
              "type": "uint256"
            },
            {
              "internalType": "uint256",
              "name": "minProfitBps",
              "type": "uint256"
            },
            {
              "internalType": "uint256",
              "name": "deadline",
              "type": "uint256"
            }
          ],
          "internalType": "struct FlashArbitrage.ArbitrageParams",
          "name": "params",
          "type": "tuple"
        }
      ],
      "name": "calculateProfit",
      "outputs": [
        {
          "internalType": "uint256",
          "name": "",
          "type": "uint256"
        }
      ],
      "stateMutability": "view",
      "type": "function"
    },
    {
      "inputs": [
        {
          "internalType": "address",
          "name": "token",
          "type": "address"
        },
        {
          "internalType": "address",
          "name": "to",
          "type": "address"
        }
      ],
      "name": "emergencyWithdraw",
      "outputs": [],
      "stateMutability": "nonpayable",
      "type": "function"
    },
    {
      "inputs": [
        {
          "components": [
            {
              "internalType": "address",
              "name": "tokenA",
              "type": "address"
            },
            {
              "internalType": "address",
              "name": "tokenB",
              "type": "address"
            },
            {
              "internalType": "address",
              "name": "dexBuy",
              "type": "address"
            },
            {
              "internalType": "address",
              "name": "dexSell",
              "type": "address"
            },
            {
              "internalType": "uint256",
              "name": "amountIn",
              "type": "uint256"
            },
            {
              "internalType": "uint256",
              "name": "minProfitBps",
              "type": "uint256"
            },
            {
              "internalType": "uint256",
              "name": "deadline",
              "type": "uint256"
            }
          ],
          "internalType": "struct FlashArbitrage.ArbitrageParams",
          "name": "params",
          "type": "tuple"
        }
      ],
      "name": "executeArbitrage",
      "outputs": [],
      "stateMutability": "nonpayable",
      "type": "function"
    },
    {
      "inputs": [
        {
          "internalType": "address",
          "name": "asset",
          "type": "address"
        },
        {
          "internalType": "uint256",
          "name": "amount",
          "type": "uint256"
        },
        {
          "internalType": "uint256",
          "name": "premium",
          "type": "uint256"
        },
        {
          "internalType": "address",
          "name": "initiator",
          "type": "address"
        },
        {
          "internalType": "bytes",
          "name": "params",
          "type": "bytes"
        }
      ],
      "name": "executeOperation",
      "outputs": [
        {
          "internalType": "bool",
          "name": "",
          "type": "bool"
        }
      ],
      "stateMutability": "nonpayable",
      "type": "function"
    },
    {
      "inputs": [],
      "name": "maxSlippageBps",
      "outputs": [
        {
          "internalType": "uint256",
          "name": "",
          "type": "uint256"
        }
      ],
      "stateMutability": "view",
      "type": "function"
    },
    {
      "inputs": [],
      "name": "minProfitThreshold",
      "outputs": [
        {
          "internalType": "uint256",
          "name": "",
          "type": "uint256"
        }
      ],
      "stateMutability": "view",
      "type": "function"
    },
    {
      "inputs": [],
      "name": "owner",
      "outputs": [
        {
          "internalType": "address",
          "name": "",
          "type": "address"
        }
      ],
      "stateMutability": "view",
      "type": "function"
    },
    {
      "inputs": [
        {
          "internalType": "address",
          "name": "caller",
          "type": "address"
        }
      ],
      "name": "removeAuthorizedCaller",
      "outputs": [],
      "stateMutability": "nonpayable",
      "type": "function"
    },
    {
      "inputs": [
        {
          "internalType": "address",
          "name": "dex",
          "type": "address"
        }
      ],
      "name": "removeSupportedDEX",
      "outputs": [],
      "stateMutability": "nonpayable",
      "type": "function"
    },
    {
      "inputs": [],
      "name": "renounceOwnership",
      "outputs": [],
      "stateMutability": "nonpayable",
      "type": "function"
    },
    {
      "inputs": [
        {
          "internalType": "address",
          "name": "",
          "type": "address"
        }
      ],
      "name": "supportedDEXs",
      "outputs": [
        {
          "internalType": "bool",
          "name": "",
          "type": "bool"
        }
      ],
      "stateMutability": "view",
      "type": "function"
    },
    {
      "inputs": [
        {
          "internalType": "address",
          "name": "newOwner",
          "type": "address"
        }
      ],
      "name": "transferOwnership",
      "outputs": [],
      "stateMutability": "nonpayable",
      "type": "function"
    },
    {
      "inputs": [
        {
          "internalType": "uint256",
          "name": "_maxSlippageBps",
          "type": "uint256"
        },
        {
          "internalType": "uint256",
          "name": "_minProfitThreshold",
          "type": "uint256"
        }
      ],
      "name": "updateConfiguration",
      "outputs": [],
      "stateMutability": "nonpayable",
      "type": "function"
    },
    {
      "stateMutability": "payable",
      "type": "receive"
    }
  ],
  "bytecode": "0x60c060405261012c60045560326005553480156200001c57600080fd5b506040516200306038038062003060833981810160405281019062000042919062000371565b33818073ffffffffffffffffffffffffffffffffffffffff1660808173ffffffffffffffffffffffffffffffffffffffff16815250508073ffffffffffffffffffffffffffffffffffffffff1663026b1d5f6040518163ffffffff1660e01b8152600401602060405180830381865afa158015620000c4573d6000803e3d6000fd5b505050506040513d601f19601f82011682018060405250810190620000ea919062000371565b73ffffffffffffffffffffffffffffffffffffffff1660a08173ffffffffffffffffffffffffffffffffffffffff168152505050600073ffffffffffffffffffffffffffffffffffffffff168173ffffffffffffffffffffffffffffffffffffffff1603620001935760006040517f1e4fbdf70000000000000000000000000000000000000000000000000000000081526004016200018a9190620003b4565b60405180910390fd5b620001a4816200021a60201b60201c565b5060018081905550600160026000620001c2620002de60201b60201c565b73ffffffffffffffffffffffffffffffffffffffff1673ffffffffffffffffffffffffffffffffffffffff16815260200190815260200160002060006101000a81548160ff02191690831515021790555050620003d1565b60008060009054906101000a900473ffffffffffffffffffffffffffffffffffffffff169050816000806101000a81548173ffffffffffffffffffffffffffffffffffffffff021916908373ffffffffffffffffffffffffffffffffffffffff1602179055508173ffffffffffffffffffffffffffffffffffffffff168173ffffffffffffffffffffffffffffffffffffffff167f8be0079c531659141344cd1fd0a4f28419497f9722a3daafe3b4186f6b6457e060405160405180910390a35050565b60008060009054906101000a900473ffffffffffffffffffffffffffffffffffffffff16905090565b600080fd5b600073ffffffffffffffffffffffffffffffffffffffff82169050919050565b600062000339826200030c565b9050919050565b6200034b816200032c565b81146200035757600080fd5b50565b6000815190506200036b8162000340565b92915050565b6000602082840312156200038a576200038962000307565b5b60006200039a848285016200035a565b91505092915050565b620003ae816200032c565b82525050565b6000602082019050620003cb6000830184620003a3565b92915050565b60805160a051612c546200040c60003960008181610516015281816106e701528181610b390152610f310152600061048d0152612c546000f3fe6080604052600436106101185760003560e01c80637535d246116100a0578063bf2b3ee611610064578063bf2b3ee614610394578063c4aa7395146103d1578063f2fde38b146103fc578063f3e3617914610425578063f4680463146104625761011f565b80637535d246146102c35780638da5cb5b146102ee578063b3e3813f14610319578063b73e5fe014610342578063b7aa02311461036b5761011f565b8063536fff6c116100e7578063536fff6c146101de5780636382d9ad1461021b57806366cdf67e14610244578063715018a6146102815780637341ab8c146102985761011f565b80630542975c1461012457806313a155ea1461014f5780631b11d0ff14610178578063489273e4146101b55761011f565b3661011f57005b600080fd5b34801561013057600080fd5b5061013961048b565b6040516101469190611cb7565b60405180910390f35b34801561015b57600080fd5b5061017660048036038101906101719190611d24565b6104af565b005b34801561018457600080fd5b5061019f600480360381019061019a9190611dec565b610512565b6040516101ac9190611ea1565b60405180910390f35b3480156101c157600080fd5b506101dc60048036038101906101d79190611d24565b610895565b005b3480156101ea57600080fd5b5061020560048036038101906102009190611d24565b6108f8565b6040516102129190611ea1565b60405180910390f35b34801561022757600080fd5b50610242600480360381019061023d9190611ebc565b610918565b005b34801561025057600080fd5b5061026b60048036038101906102669190611f20565b610a91565b6040516102789190611f5c565b60405180910390f35b34801561028d57600080fd5b50610296610b1d565b005b3480156102a457600080fd5b506102ad610b31565b6040516102ba9190611f5c565b60405180910390f35b3480156102cf57600080fd5b506102d8610b37565b6040516102e59190611f98565b60405180910390f35b3480156102fa57600080fd5b50610303610b5b565b6040516103109190611fc2565b60405180910390f35b34801561032557600080fd5b50610340600480360381019061033b9190611fdd565b610b84565b005b34801561034e57600080fd5b5061036960048036038101906103649190611f20565b610bd7565b005b34801561037757600080fd5b50610392600480360381019061038d9190611d24565b610fe6565b005b3480156103a057600080fd5b506103bb60048036038101906103b69190611d24565b611049565b6040516103c89190611ea1565b60405180910390f35b3480156103dd57600080fd5b506103e6611069565b6040516103f39190611f5c565b60405180910390f35b34801561040857600080fd5b50610423600480360381019061041e9190611d24565b61106f565b005b34801561043157600080fd5b5061044c60048036038101906104479190611f20565b6110f5565b6040516104599190611f5c565b60405180910390f35b34801561046e57600080fd5b5061048960048036038101906104849190611d24565b6114c7565b005b7f000000000000000000000000000000000000000000000000000000000000000081565b6104b761152a565b6001600260008373ffffffffffffffffffffffffffffffffffffffff1673ffffffffffffffffffffffffffffffffffffffff16815260200190815260200160002060006101000a81548160ff02191690831515021790555050565b60007f000000000000000000000000000000000000000000000000000000000000000073ffffffffffffffffffffffffffffffffffffffff163373ffffffffffffffffffffffffffffffffffffffff1614801561059a57503073ffffffffffffffffffffffffffffffffffffffff168473ffffffffffffffffffffffffffffffffffffffff16145b6105d9576040517f08c379a00000000000000000000000000000000000000000000000000000000081526004016105d09061207a565b60405180910390fd5b60008084848101906105eb919061221d565b9150915060006105fb838a6115b1565b90506000888a61060b919061228d565b9050808b73ffffffffffffffffffffffffffffffffffffffff166370a08231306040518263ffffffff1660e01b81526004016106479190611fc2565b602060405180830381865afa158015610664573d6000803e3d6000fd5b505050506040513d601f19601f8201168201806040525081019061068891906122d6565b10156106c9576040517f08c379a00000000000000000000000000000000000000000000000000000000081526004016106c090612375565b60405180910390fd5b8a73ffffffffffffffffffffffffffffffffffffffff1663095ea7b37f0000000000000000000000000000000000000000000000000000000000000000836040518363ffffffff1660e01b8152600401610724929190612395565b6020604051808303816000875af1158015610743573d6000803e3d6000fd5b505050506040513d601f19601f8201168201806040525081019061076791906123ea565b5060008211156107f1578a73ffffffffffffffffffffffffffffffffffffffff1663a9059cbb84846040518363ffffffff1660e01b81526004016107ac929190612395565b6020604051808303816000875af11580156107cb573d6000803e3d6000fd5b505050506040513d601f19601f820116820180604052508101906107ef91906123ea565b505b836040015173ffffffffffffffffffffffffffffffffffffffff16846020015173ffffffffffffffffffffffffffffffffffffffff16856000015173ffffffffffffffffffffffffffffffffffffffff167f692bb80371b2666c25563fb08e699516f2c8c371e99b6b2eb24d249a5212255e87606001518e878960405161087b9493929190612417565b60405180910390a460019450505050509695505050505050565b61089d61152a565b6001600360008373ffffffffffffffffffffffffffffffffffffffff1673ffffffffffffffffffffffffffffffffffffffff16815260200190815260200160002060006101000a81548160ff02191690831515021790555050565b60026020528060005260406000206000915054906101000a900460ff1681565b61092061152a565b60008273ffffffffffffffffffffffffffffffffffffffff166370a08231306040518263ffffffff1660e01b815260040161095b9190611fc2565b602060405180830381865afa158015610978573d6000803e3d6000fd5b505050506040513d601f19601f8201168201806040525081019061099c91906122d6565b90506000811115610a8c578273ffffffffffffffffffffffffffffffffffffffff1663a9059cbb83836040518363ffffffff1660e01b81526004016109e2929190612395565b6020604051808303816000875af1158015610a01573d6000803e3d6000fd5b505050506040513d601f19601f82011682018060405250810190610a2591906123ea565b508173ffffffffffffffffffffffffffffffffffffffff168373ffffffffffffffffffffffffffffffffffffffff167fe6fee221bb8a85476104e6b67ae7b66010866c78f60f8ce4946f80da6ce04df083604051610a839190611f5c565b60405180910390a35b505050565b60003073ffffffffffffffffffffffffffffffffffffffff1663f3e36179836040518263ffffffff1660e01b8152600401610acc919061256e565b602060405180830381865afa925050508015610b0657506040513d601f19601f82011682018060405250810190610b0391906122d6565b60015b610b135760009050610b18565b809150505b919050565b610b2561152a565b610b2f6000611a4a565b565b60055481565b7f000000000000000000000000000000000000000000000000000000000000000081565b60008060009054906101000a900473ffffffffffffffffffffffffffffffffffffffff16905090565b610b8c61152a565b81600481905550806005819055507fef1efc2eb4c3919acff49f1baa43e65b34b152dd75ac70025e825092d576ed688282604051610bcb929190612589565b60405180910390a15050565b600260003373ffffffffffffffffffffffffffffffffffffffff1673ffffffffffffffffffffffffffffffffffffffff16815260200190815260200160002060009054906101000a900460ff1680610c615750610c32610b5b565b73ffffffffffffffffffffffffffffffffffffffff163373ffffffffffffffffffffffffffffffffffffffff16145b610ca0576040517f08c379a0000000000000000000000000000000000000000000000000000000008152600401610c97906125fe565b60405180910390fd5b610ca8611b0e565b600073ffffffffffffffffffffffffffffffffffffffff16816000016020810190610cd39190611d24565b73ffffffffffffffffffffffffffffffffffffffff1614158015610d365750600073ffffffffffffffffffffffffffffffffffffffff16816020016020810190610d1d9190611d24565b73ffffffffffffffffffffffffffffffffffffffff1614155b8015610d46575060008160800135115b8015610d555750428160c00135115b610d94576040517f08c379a0000000000000000000000000000000000000000000000000000000008152600401610d8b9061266a565b60405180910390fd5b60036000826040016020810190610dab9190611d24565b73ffffffffffffffffffffffffffffffffffffffff1673ffffffffffffffffffffffffffffffffffffffff16815260200190815260200160002060009054906101000a900460ff168015610e5a575060036000826060016020810190610e119190611d24565b73ffffffffffffffffffffffffffffffffffffffff1673ffffffffffffffffffffffffffffffffffffffff16815260200190815260200160002060009054906101000a900460ff165b610e99576040517f08c379a0000000000000000000000000000000000000000000000000000000008152600401610e90906126d6565b60405180910390fd5b6000610ea482610a91565b90506127108260a001358360800135610ebd91906126f6565b610ec79190612767565b811015610f09576040517f08c379a0000000000000000000000000000000000000000000000000000000008152600401610f009061280a565b60405180910390fd5b60008233604051602001610f1e92919061282a565b60405160208183030381529060405290507f000000000000000000000000000000000000000000000000000000000000000073ffffffffffffffffffffffffffffffffffffffff166342b0b77c30856000016020810190610f7f9190611d24565b86608001358560006040518663ffffffff1660e01b8152600401610fa795949392919061291c565b600060405180830381600087803b158015610fc157600080fd5b505af1158015610fd5573d6000803e3d6000fd5b505050505050610fe3611b54565b50565b610fee61152a565b6000600260008373ffffffffffffffffffffffffffffffffffffffff1673ffffffffffffffffffffffffffffffffffffffff16815260200190815260200160002060006101000a81548160ff02191690831515021790555050565b60036020528060005260406000206000915054906101000a900460ff1681565b60045481565b61107761152a565b600073ffffffffffffffffffffffffffffffffffffffff168173ffffffffffffffffffffffffffffffffffffffff16036110e95760006040517f1e4fbdf70000000000000000000000000000000000000000000000000000000081526004016110e09190611fc2565b60405180910390fd5b6110f281611a4a565b50565b600080600267ffffffffffffffff811115611113576111126120b0565b5b6040519080825280602002602001820160405280156111415781602001602082028036833780820191505090505b5090508260000160208101906111579190611d24565b8160008151811061116b5761116a612976565b5b602002602001019073ffffffffffffffffffffffffffffffffffffffff16908173ffffffffffffffffffffffffffffffffffffffff16815250508260200160208101906111b89190611d24565b816001815181106111cc576111cb612976565b5b602002602001019073ffffffffffffffffffffffffffffffffffffffff16908173ffffffffffffffffffffffffffffffffffffffff1681525050600083604001602081019061121b9190611d24565b73ffffffffffffffffffffffffffffffffffffffff1663d06ca61f8560800135846040518363ffffffff1660e01b8152600401611259929190612a54565b600060405180830381865afa158015611276573d6000803e3d6000fd5b505050506040513d6000823e3d601f19601f8201168201806040525081019061129f9190612b47565b90506000600267ffffffffffffffff8111156112be576112bd6120b0565b5b6040519080825280602002602001820160405280156112ec5781602001602082028036833780820191505090505b5090508460200160208101906113029190611d24565b8160008151811061131657611315612976565b5b602002602001019073ffffffffffffffffffffffffffffffffffffffff16908173ffffffffffffffffffffffffffffffffffffffff16815250508460000160208101906113639190611d24565b8160018151811061137757611376612976565b5b602002602001019073ffffffffffffffffffffffffffffffffffffffff16908173ffffffffffffffffffffffffffffffffffffffff168152505060008560600160208101906113c69190611d24565b73ffffffffffffffffffffffffffffffffffffffff1663d06ca61f846001815181106113f5576113f4612976565b5b6020026020010151846040518363ffffffff1660e01b815260040161141b929190612a54565b600060405180830381865afa158015611438573d6000803e3d6000fd5b505050506040513d6000823e3d601f19601f820116820180604052508101906114619190612b47565b905085608001358160018151811061147c5761147b612976565b5b6020026020010151116114905760006114bc565b8560800135816001815181106114a9576114a8612976565b5b60200260200101516114bb9190612b90565b5b945050505050919050565b6114cf61152a565b6000600360008373ffffffffffffffffffffffffffffffffffffffff1673ffffffffffffffffffffffffffffffffffffffff16815260200190815260200160002060006101000a81548160ff02191690831515021790555050565b611532611b5d565b73ffffffffffffffffffffffffffffffffffffffff16611550610b5b565b73ffffffffffffffffffffffffffffffffffffffff16146115af57611573611b5d565b6040517f118cdaa70000000000000000000000000000000000000000000000000000000081526004016115a69190611fc2565b60405180910390fd5b565b6000826000015173ffffffffffffffffffffffffffffffffffffffff1663095ea7b38460400151846040518363ffffffff1660e01b81526004016115f6929190612395565b6020604051808303816000875af1158015611615573d6000803e3d6000fd5b505050506040513d601f19601f8201168201806040525081019061163991906123ea565b506000600267ffffffffffffffff811115611657576116566120b0565b5b6040519080825280602002602001820160405280156116855781602001602082028036833780820191505090505b5090508360000151816000815181106116a1576116a0612976565b5b602002602001019073ffffffffffffffffffffffffffffffffffffffff16908173ffffffffffffffffffffffffffffffffffffffff16815250508360200151816001815181106116f4576116f3612976565b5b602002602001019073ffffffffffffffffffffffffffffffffffffffff16908173ffffffffffffffffffffffffffffffffffffffff16815250506000846040015173ffffffffffffffffffffffffffffffffffffffff166338ed17398561176087868a60400151611b65565b85308a60c001516040518663ffffffff1660e01b8152600401611787959493929190612bc4565b6000604051808303816000875af11580156117a6573d6000803e3d6000fd5b505050506040513d6000823e3d601f19601f820116820180604052508101906117cf9190612b47565b90506000816001815181106117e7576117e6612976565b5b60200260200101519050856020015173ffffffffffffffffffffffffffffffffffffffff1663095ea7b38760600151836040518363ffffffff1660e01b8152600401611834929190612395565b6020604051808303816000875af1158015611853573d6000803e3d6000fd5b505050506040513d601f19601f8201168201806040525081019061187791906123ea565b506000600267ffffffffffffffff811115611895576118946120b0565b5b6040519080825280602002602001820160405280156118c35781602001602082028036833780820191505090505b5090508660200151816000815181106118df576118de612976565b5b602002602001019073ffffffffffffffffffffffffffffffffffffffff16908173ffffffffffffffffffffffffffffffffffffffff168152505086600001518160018151811061193257611931612976565b5b602002602001019073ffffffffffffffffffffffffffffffffffffffff16908173ffffffffffffffffffffffffffffffffffffffff16815250506000876060015173ffffffffffffffffffffffffffffffffffffffff166338ed1739848985308d60c001516040518663ffffffff1660e01b81526004016119b7959493929190612bc4565b6000604051808303816000875af11580156119d6573d6000803e3d6000fd5b505050506040513d6000823e3d601f19601f820116820180604052508101906119ff9190612b47565b9050600081600181518110611a1757611a16612976565b5b60200260200101519050878111611a2f576000611a3c565b8781611a3b9190612b90565b5b965050505050505092915050565b60008060009054906101000a900473ffffffffffffffffffffffffffffffffffffffff169050816000806101000a81548173ffffffffffffffffffffffffffffffffffffffff021916908373ffffffffffffffffffffffffffffffffffffffff1602179055508173ffffffffffffffffffffffffffffffffffffffff168173ffffffffffffffffffffffffffffffffffffffff167f8be0079c531659141344cd1fd0a4f28419497f9722a3daafe3b4186f6b6457e060405160405180910390a35050565b600260015403611b4a576040517f3ee5aeb500000000000000000000000000000000000000000000000000000000815260040160405180910390fd5b6002600181905550565b60018081905550565b600033905090565b6000808273ffffffffffffffffffffffffffffffffffffffff1663d06ca61f86866040518363ffffffff1660e01b8152600401611ba3929190612a54565b600060405180830381865afa158015611bc0573d6000803e3d6000fd5b505050506040513d6000823e3d601f19601f82011682018060405250810190611be99190612b47565b9050612710600454612710611bfe9190612b90565b82600181518110611c1257611c11612976565b5b6020026020010151611c2491906126f6565b611c2e9190612767565b9150509392505050565b600073ffffffffffffffffffffffffffffffffffffffff82169050919050565b6000819050919050565b6000611c7d611c78611c7384611c38565b611c58565b611c38565b9050919050565b6000611c8f82611c62565b9050919050565b6000611ca182611c84565b9050919050565b611cb181611c96565b82525050565b6000602082019050611ccc6000830184611ca8565b92915050565b6000604051905090565b600080fd5b600080fd5b6000611cf182611c38565b9050919050565b611d0181611ce6565b8114611d0c57600080fd5b50565b600081359050611d1e81611cf8565b92915050565b600060208284031215611d3a57611d39611cdc565b5b6000611d4884828501611d0f565b91505092915050565b6000819050919050565b611d6481611d51565b8114611d6f57600080fd5b50565b600081359050611d8181611d5b565b92915050565b600080fd5b600080fd5b600080fd5b60008083601f840112611dac57611dab611d87565b5b8235905067ffffffffffffffff811115611dc957611dc8611d8c565b5b602083019150836001820283011115611de557611de4611d91565b5b9250929050565b60008060008060008060a08789031215611e0957611e08611cdc565b5b6000611e1789828a01611d0f565b9650506020611e2889828a01611d72565b9550506040611e3989828a01611d72565b9450506060611e4a89828a01611d0f565b935050608087013567ffffffffffffffff811115611e6b57611e6a611ce1565b5b611e7789828a01611d96565b92509250509295509295509295565b60008115159050919050565b611e9b81611e86565b82525050565b6000602082019050611eb66000830184611e92565b92915050565b60008060408385031215611ed357611ed2611cdc565b5b6000611ee185828601611d0f565b9250506020611ef285828601611d0f565b9150509250929050565b600080fd5b600060e08284031215611f1757611f16611efc565b5b81905092915050565b600060e08284031215611f3657611f35611cdc565b5b6000611f4484828501611f01565b91505092915050565b611f5681611d51565b82525050565b6000602082019050611f716000830184611f4d565b92915050565b6000611f8282611c84565b9050919050565b611f9281611f77565b82525050565b6000602082019050611fad6000830184611f89565b92915050565b611fbc81611ce6565b82525050565b6000602082019050611fd76000830184611fb3565b92915050565b60008060408385031215611ff457611ff3611cdc565b5b600061200285828601611d72565b925050602061201385828601611d72565b9150509250929050565b600082825260208201905092915050565b7f466c6173684172626974726167653a20496e76616c69642063616c6c00000000600082015250565b6000612064601c8361201d565b915061206f8261202e565b602082019050919050565b6000602082019050818103600083015261209381612057565b9050919050565b600080fd5b6000601f19601f8301169050919050565b7f4e487b7100000000000000000000000000000000000000000000000000000000600052604160045260246000fd5b6120e88261209f565b810181811067ffffffffffffffff82111715612107576121066120b0565b5b80604052505050565b600061211a611cd2565b905061212682826120df565b919050565b600060e082840312156121415761214061209a565b5b61214b60e0612110565b9050600061215b84828501611d0f565b600083015250602061216f84828501611d0f565b602083015250604061218384828501611d0f565b604083015250606061219784828501611d0f565b60608301525060806121ab84828501611d72565b60808301525060a06121bf84828501611d72565b60a08301525060c06121d384828501611d72565b60c08301525092915050565b60006121ea82611c38565b9050919050565b6121fa816121df565b811461220557600080fd5b50565b600081359050612217816121f1565b92915050565b600080610100838503121561223557612234611cdc565b5b60006122438582860161212b565b92505060e061225485828601612208565b9150509250929050565b7f4e487b7100000000000000000000000000000000000000000000000000000000600052601160045260246000fd5b600061229882611d51565b91506122a383611d51565b92508282019050808211156122bb576122ba61225e565b5b92915050565b6000815190506122d081611d5b565b92915050565b6000602082840312156122ec576122eb611cdc565b5b60006122fa848285016122c1565b91505092915050565b7f466c6173684172626974726167653a20496e73756666696369656e742066756e60008201527f6473000000000000000000000000000000000000000000000000000000000000602082015250565b600061235f60228361201d565b915061236a82612303565b604082019050919050565b6000602082019050818103600083015261238e81612352565b9050919050565b60006040820190506123aa6000830185611fb3565b6123b76020830184611f4d565b9392505050565b6123c781611e86565b81146123d257600080fd5b50565b6000815190506123e4816123be565b92915050565b600060208284031215612400576123ff611cdc565b5b600061240e848285016123d5565b91505092915050565b600060808201905061242c6000830187611fb3565b6124396020830186611f4d565b6124466040830185611f4d565b6124536060830184611fb3565b95945050505050565b600061246b6020840184611d0f565b905092915050565b61247c81611ce6565b82525050565b60006124916020840184611d72565b905092915050565b6124a281611d51565b82525050565b60e082016124b9600083018361245c565b6124c66000850182612473565b506124d4602083018361245c565b6124e16020850182612473565b506124ef604083018361245c565b6124fc6040850182612473565b5061250a606083018361245c565b6125176060850182612473565b506125256080830183612482565b6125326080850182612499565b5061254060a0830183612482565b61254d60a0850182612499565b5061255b60c0830183612482565b61256860c0850182612499565b50505050565b600060e08201905061258360008301846124a8565b92915050565b600060408201905061259e6000830185611f4d565b6125ab6020830184611f4d565b9392505050565b7f466c6173684172626974726167653a204e6f7420617574686f72697a65640000600082015250565b60006125e8601e8361201d565b91506125f3826125b2565b602082019050919050565b60006020820190508181036000830152612617816125db565b9050919050565b7f466c6173684172626974726167653a20496e76616c696420706172616d730000600082015250565b6000612654601e8361201d565b915061265f8261261e565b602082019050919050565b6000602082019050818103600083015261268381612647565b9050919050565b7f466c6173684172626974726167653a20556e737570706f727465642044455800600082015250565b60006126c0601f8361201d565b91506126cb8261268a565b602082019050919050565b600060208201905081810360008301526126ef816126b3565b9050919050565b600061270182611d51565b915061270c83611d51565b925082820261271a81611d51565b915082820484148315176127315761273061225e565b5b5092915050565b7f4e487b7100000000000000000000000000000000000000000000000000000000600052601260045260246000fd5b600061277282611d51565b915061277d83611d51565b92508261278d5761278c612738565b5b828204905092915050565b7f466c6173684172626974726167653a20496e73756666696369656e742070726f60008201527f6669740000000000000000000000000000000000000000000000000000000000602082015250565b60006127f460238361201d565b91506127ff82612798565b604082019050919050565b60006020820190508181036000830152612823816127e7565b9050919050565b60006101008201905061284060008301856124a8565b61284d60e0830184611fb3565b9392505050565b600081519050919050565b600082825260208201905092915050565b60005b8381101561288e578082015181840152602081019050612873565b60008484015250505050565b60006128a582612854565b6128af818561285f565b93506128bf818560208601612870565b6128c88161209f565b840191505092915050565b6000819050919050565b600061ffff82169050919050565b60006129066129016128fc846128d3565b611c58565b6128dd565b9050919050565b612916816128eb565b82525050565b600060a0820190506129316000830188611fb3565b61293e6020830187611fb3565b61294b6040830186611f4d565b818103606083015261295d818561289a565b905061296c608083018461290d565b9695505050505050565b7f4e487b7100000000000000000000000000000000000000000000000000000000600052603260045260246000fd5b600081519050919050565b600082825260208201905092915050565b6000819050602082019050919050565b60006129dd8383612473565b60208301905092915050565b6000602082019050919050565b6000612a01826129a5565b612a0b81856129b0565b9350612a16836129c1565b8060005b83811015612a47578151612a2e88826129d1565b9750612a39836129e9565b925050600181019050612a1a565b5085935050505092915050565b6000604082019050612a696000830185611f4d565b8181036020830152612a7b81846129f6565b90509392505050565b600067ffffffffffffffff821115612a9f57612a9e6120b0565b5b602082029050602081019050919050565b6000612ac3612abe84612a84565b612110565b90508083825260208201905060208402830185811115612ae657612ae5611d91565b5b835b81811015612b0f5780612afb88826122c1565b845260208401935050602081019050612ae8565b5050509392505050565b600082601f830112612b2e57612b2d611d87565b5b8151612b3e848260208601612ab0565b91505092915050565b600060208284031215612b5d57612b5c611cdc565b5b600082015167ffffffffffffffff811115612b7b57612b7a611ce1565b5b612b8784828501612b19565b91505092915050565b6000612b9b82611d51565b9150612ba683611d51565b9250828203905081811115612bbe57612bbd61225e565b5b92915050565b600060a082019050612bd96000830188611f4d565b612be66020830187611f4d565b8181036040830152612bf881866129f6565b9050612c076060830185611fb3565b612c146080830184611f4d565b969550505050505056fea264697066735822122027241a34f19f747a254397ccfd2943d3a3a096913f3446de5aa5b4c216722aec64736f6c63430008140033",
  "linkReferences": {},
  "deployedLinkReferences": {}
}